:020000040800F2
:10000000A8060020A1010008D50800088D080008F6
:10001000D1080008A9070008BB1200080000000072
:10002000000000000000000000000000B10A00080D
:10003000AD0700080000000065090008A10B0008DA
:10004000BB010008BB010008BB010008BB010008A0
:10005000BB010008BB010008BB010008BB01000890
:10006000BB010008BB010008BB010008BB01000880
:10007000BB010008BB010008BB010008BB01000870
:10008000BB010008BB010008BB010008BB01000860
:10009000BB010008BB010008BB010008BB01000850
:1000A000BB010008BB010008BB010008BB01000840
:1000B000BB010008690C0008BB010008BB01000877
:1000C000BB010008BB010008BB010008BB01000820
:1000D000BB010008610E0008BB010008350F0008D5
:1000E000BB010008BB010008BB010008BB01000800
:1000F000BB010008BB010008BB010008BB010008F0
:10010000BB010008BB010008BB010008BB010008DF
:10011000BB010008BB010008BB010008BB010008CF
:10012000BB010008BB010008BB010008BB010008BF
:10013000BB010008BB010008BB010008BB010008AF
:10014000BB010008BB010008BB010008BB0100089F
:10015000BB010008BB010008BB010008BB0100088F
:10016000BB010008BB010008BB010008BB0100087F
:10017000BB010008BB010008BB010008BB0100086F
:10018000BB010008BB010008DFF810D000F072F8D6
:100190000048004729180008AFF30080A806002097
:1001A0000648804706480047FEE7FEE7FEE7FEE711
:1001B000FEE7FEE7FEE7FEE7FEE7FEE7A50B000829
:1001C00089010008D2B201E000F8012B491EFBD2E0
:1001D00070470022F6E710B513460A460446194652
:1001E000FFF7F0FF204610BD30B505462A460B4606
:1001F00012F8010B13F8014B08B1A042F8D01CB162
:10020000002802D06D1CF1E7284630BD421C10F8D2
:10021000011B0029FBD1801A704710B5002200E0B5
:10022000521C835C8C5CA34201D1002BF8D1D8B264
:10023000E1B2401A10BD034611F8012B00F8012B62
:10024000002AF9D11846704730B50B460146002008
:100250002022012409E021FA02F59D4205D303FA88
:1002600002F5491B04FA02F52844151EA2F1010209
:10027000F1DC30BD064C074D06E0E06840F00103BC
:1002800094E8070098471034AC42F6D3FFF780FF9C
:100290009C190008BC1900082DE9F041ADF5027D5C
:1002A00007460E464FF4007102A8FFF792FF0024A4
:1002B00000200190002510222146641C02A842540F
:1002C0003846FFF7A3FF00F10C054FF0000800BF10
:1002D00005F07F08ED090DB148F080082046611C4B
:1002E0008CB202A901F80080002DF1D10022204635
:1002F000611C8CB202A90A5404222046611C8CB2F3
:1003000002A90A544D222046611C8CB202A90A544B
:1003100051222046611C8CB202A90A545422204664
:10032000611C8CB202A90A542046611C8CB202A93D
:100330000A5404222046611C8CB202A90A540222EB
:100340002046611C8CB202A90A5400222046611C7E
:100350008CB202A90A5478222046611C8CB202A9F0
:100360000A543846FFF752FF80B201909DF80520ED
:100370002046611C8CB202A90A549DF80420204634
:10038000611C8CB202A90A5408193946FFF753FFC1
:10039000BDF80400204484B24FF400712248FFF7F6
:1003A00018FF002021490880214602A800F07CFEA9
:1003B0002DE0012001F001FA1B480078202826D109
:1003C00019484078022822D11748C07806281CD244
:1003D000DFE800F003070B0F131715A001F0D8F8A2
:1003E00013E019A001F0D4F80FE022A001F0D0F83A
:1003F0000BE02EA001F0CCF807E036A001F0C8F821
:1004000003E03CA001F0C4F800BF00BF02E0701E92
:10041000061ECED100BF26B101200DF5027DBDE83C
:10042000F0810020F9E700002400002010000020E7
:10043000C1ACBDD3D2D1B1BBB7FECEF1B6CBBDD32B
:10044000CADC0D0A00000000B7FECEF1B6CBB2BB8D
:10045000D6A7B3D6BFCDBBA7B6CBC7EBC7F3B5C442
:10046000204D51545420D0ADD2E9BCB6B1F00D0AA4
:1004700000000000BFCDBBA7B6CBB1EACAB6B7FB40
:10048000CAC7D5FDC8B7B5C4205554462D3820B1CC
:10049000E0C2EBA3ACB5ABB7FECEF1B6CBB2BBD4EA
:1004A000CAD0EDCAB9D3C30D0A000000CDF8C2E727
:1004B000C1ACBDD3D2D1BDA8C1A2A3ACB5AB204DB8
:1004C00051545420B7FECEF1B2BBBFC9D3C30D0AFD
:1004D00000000000D3C3BBA7C3FBBBF2C3DCC2EB6D
:1004E000B5C4CAFDBEDDB8F1CABDCEDED0A70D0AC7
:1004F00000000000BFCDBBA7B6CBCEB4B1BBCADAFB
:10050000C8A8C1ACBDD3B5BDB4CBB7FECEF1C6F75C
:100510000D0A00002DE9F04FADF5017D06460F46AE
:1005200092464FF4007101A8FFF753FE002400200B
:1005300000908146002530222146641C01A84254C7
:100540003046FFF763FE00F1020B3846FFF75EFE10
:100550000BEB00054FF0000800BF05F07F08ED0928
:100560000DB148F080082046611C8CB201A901F849
:100570000080002DF1D13046FFF748FE80B2009098
:100580009DF801202046611C8CB201A90A549DF8F7
:1005900000202046611C8CB201A90A54081931467A
:1005A000FFF749FEBDF80000204484B23846FFF74B
:1005B0002DFE1FFA80F901A908193946FFF73BFE05
:1005C00004EB090084B24FF400710748FFF701FE05
:1005D000002006490880214601A800F065FD0DF5C0
:1005E000017DBDE8F08F00002400002010000020F5
:1005F0002DE9F043ADF5017D0746884616464FF4D8
:10060000007101A8FFF7E5FD0024002000900025FF
:1006100082222146641C01A842543846FFF7F6FDA9
:10062000451D4FF0000900BF05F07F09ED090DB130
:1006300049F080092046611C8CB201A901F80090A4
:10064000002DF1D100222046611C8CB201A90A5470
:1006500001222046611C8CB201A90A543846FFF7DA
:10066000D5FD80B200909DF801202046611C8CB21F
:1006700001A90A549DF800202046611C8CB201A9F2
:100680000A5408193946FFF7D6FDBDF8000020448A
:1006900084B22046611C8CB201A901F800804FF49D
:1006A00000712348FFF795FD00202249088021466C
:1006B00001A800F0F9FC2FE0012001F07EF81C48B1
:1006C0000078902828D11A484078032824D1184867
:1006D000007930B101280BD0022810D0802819D120
:1006E00014E015A000F054FF01201B49087011E030
:1006F0001AA000F04DFF0120174908700AE01FA062
:1007000000F046FF01201449087003E023A000F028
:100710003FFF00BF00BF02E0701E061ECCD100BF2D
:1007200026B101200DF5017DBDE8F0830020F9E739
:100730002400002010000020B6A9D4C4B3C9B9A673
:100740002CD6F7CCE2B7FECEF1D6CAC1BF203D20F1
:10075000516F53300D0A000013000020B6A9D4C415
:10076000B3C9B9A62CD6F7CCE2B7FECEF1D6CAC132
:10077000BF203D20516F53310D0A0000B6A9D4C4EB
:10078000B3C9B9A62CD6F7CCE2B7FECEF1D6CAC112
:10079000BF203D20516F53320D0A0000B6A9D4C4CA
:1007A000CAA7B0DC0D0A000000BFFEE77047F0B535
:1007B0000A4600210023002400BF3DE0012505FA80
:1007C00001F3156805EA03049C4234D105684F0023
:1007D0000326BE40B543056015794E00B540066856
:1007E000354305601579012D02D01579022D16D1FA
:1007F00085684F000326BE40B543856055794E009D
:10080000B540866835438560456801268E40B5430E
:100810004560456896798E40B6B235434560C568F7
:100820004F000326BE40B543C560D5794E00B540A4
:10083000C6683543C560491C1029BFD3F0BDF0B56B
:10084000002300244D07ED0E02FA05F3CE1000F14F
:10085000200555F826504E07F70E0F26BE40B5432B
:10086000CF1000F1200646F82750CE1000F12005E9
:1008700055F8265045EA0304CE1000F1200545F84E
:100880002640F0BD418370470183704700BFFEE7FB
:100890001CB50121202000F067F801208DF804002C
:1008A00003208DF8050000208DF8060001208DF84A
:1008B00007004002009069460448FFF778FF4FF4B4
:1008C00000710248FFF7E0FF1CBD00000014024069
:1008D00000BFFEE77047000070B5002100230F2223
:1008E000C4781CB3174C246804F4E064C4F5E064D5
:1008F000C4F30721C1F10404E3B20A4144789C40E7
:10090000E1B28478144021430C07210E0E4C057887
:100910006155047804F01F050124AC4005786D1181
:10092000AD0005F1E025C5F8004109E0047804F0C8
:100930001F050124AC40054D0678761145F8264088
:1009400070BD00000CED00E000E400E080E100E09C
:1009500002490143024A1160704700000000FA0595
:100960000CED00E07047000029B1064A126802430E
:10097000044B1A6004E0034A12688243014B1A6078
:10098000704700003038024029B1064A126802431D
:10099000044B1A6004E0034A12688243014B1A6058
:1009A000704700004038024029B1064A12680243ED
:1009B000044B1A6004E0034A12688243014B1A6038
:1009C0007047000044380240F0B5002100220024A6
:1009D000022500260223324F3F6807F00C0121B1A7
:1009E000042905D0082937D105E02E4F076036E0ED
:1009F0002D4F076033E02A4F3F1F3F68C7F38056F3
:100A0000274F3F1F3F6807F03F036EB1264FB7FBEC
:100A1000F3F7DFF88CC0ACF1040CDCF800C0CCF3C9
:100A2000881C07FB0CF40CE01E4FB7FBF3F7DFF854
:100A300070C0ACF1040CDCF800C0CCF3881C07FBE0
:100A40000CF4174F3F1F3F68C7F301477F1C7D0021
:100A5000B4FBF5F7076002E0124F076000BF00BF6C
:100A60000F4F3F6807F0F0010909104F7A5C0768E3
:100A7000D74047600A4F3F6807F4E051890A0B4F9F
:100A80007A5C4768D7408760054F3F6807F460414C
:100A9000490B064F7A5C4768D740C760F0BD00003D
:100AA000083802400024F40000127A000000002000
:100AB000704700000CB50020019000903448006899
:100AC00040F480303249086000BF3148006800F4CB
:100AD000003000900198401C0190009818B90198CE
:100AE000B0F5A04FF1D12A48006800F4003010B1F1
:100AF0000120009001E0002000900098012846D1DC
:100B000023484030006840F080502149403108605F
:100B10002048006840F440401E4908601C480830E6
:100B200000681B49083108600846006840F400402E
:100B300008600846006840F4A05008601648091F85
:100B40000860081F006840F08070091F086000BF3F
:100B50000F48006800F000700028F9D040F20570DE
:100B60000E4908600A480830006820F00300084970
:100B7000083108600846006840F00200086000BFC5
:100B800003480830006800F00C000828F8D10CBDBC
:100B9000003802400070004008544007003C02400A
:100BA0007047000010B51548006840F47000134904
:100BB00008601348006840F00100114908600020F7
:100BC0000F49083108600E4800680E4908400C497A
:100BD00008600D48091D0860081F006820F4802087
:100BE000091F0860002006490C310860FFF762FF0A
:100BF0004FF0006001498039086010BD88ED00E0C9
:100C000000380240FFFFF6FE103000241FB501211E
:100C10000220FFF7B9FE42F2CF00ADF8040042F225
:100C20000F7002900020ADF80C00ADF8060001A98D
:100C30000C4800F07DF81D208DF8000000208DF894
:100C4000010001208DF803006846FFF745FE0122F0
:100C50001146044800F062F80121024800F041F812
:100C60001FBD00000004004010B50121144800F031
:100C700044F820B30121124800F030F81148007800
:100C8000401C10490870084600781E2817DB002019
:100C900008700D48007838B941F2883300220BA162
:100CA0000BA0FFF737FC0AE007480078012806D1BF
:100CB00041F28833002208A105A0FFF72BFC10BDEC
:100CC000000400401E0000201D0000206F6666002A
:100CD0006C656430303100006F6E0000CA430282E0
:100CE000704721B1028842F00102028004E00288CC
:100CF0004FF6FE731A400280704730B5024600205E
:100D000000230024158A05EA0103958905EA0104F8
:100D100013B10CB1012000E0002030BD1AB183896D
:100D20000B43838102E083898B43838170470000FA
:100D300000220288184B98420ED0184B98420BD0D4
:100D4000B0F1804F08D0164B984205D0154B984211
:100D500002D0154B984204D14FF68F731A404B883E
:100D60001A43124B984207D0114B984204D04FF6C9
:100D7000FF431A400B891A4302804B68C3620B88F9
:100D80000385054B984202D0044B984201D18B7ADF
:100D90000386012383827047000001400004014064
:100DA0000004004000080040000C0040001000401B
:100DB0000014004010B588B0044601210846FFF732
:100DC000D3FD01211020FFF7EFFD07220921224862
:100DD000FFF735FD07220A211F48FFF730FD0220EB
:100DE0008DF8080003208DF8090000208DF80A0016
:100DF00001208DF80B004FF4C060019001A9164846
:100E0000FFF7D5FC04940020ADF81400ADF81600EF
:100E1000ADF81800ADF81C000C20ADF81A0004A9BC
:100E20000E4800F0D7F925208DF80C0000208DF831
:100E30000D0001208DF80F0003A8FFF74DFD0122E2
:100E400040F22551054800F0A0F90121034800F0C7
:100E500059F908B010BD0000000002400010014028
:100E600010B5002440F22551064800F064F901282D
:100E700007D1044800F018FAC4B22146014800F036
:100E800018FA10BD0010014010B588B004460121C9
:100E90000220FFF769FD01218804FFF775FD072295
:100EA0000A212248FFF7CBFC07220B211F48FFF73E
:100EB000C6FC02208DF8080003208DF809000020F0
:100EC0008DF80A0001208DF80B004FF4406001906E
:100ED00001A91648FFF76BFC04940020ADF814003C
:100EE000ADF81600ADF81800ADF81C000C20ADF8F8
:100EF0001A0004A90E4800F06DF927208DF80C00A7
:100F000000208DF80D0001208DF80F0003A8FFF7D9
:100F1000E3FC012240F22551054800F036F9012199
:100F2000034800F0EFF808B010BD000000040240D4
:100F30000048004010B540F225514C4800F0FBF845
:100F4000012800D010BD494800F0AEF9C4B24848AD
:100F50000088B0F5007F00DBF4E745490888411CB4
:100F6000434A118043490C544348007801287AD100
:100F700042480078062875D2DFE800F003102027E9
:100F80003954302C06D101203C49087000203C49DE
:100F9000087002E000203649088063E03848047099
:100FA000007838490880022034490870002036490A
:100FB0000870364908703649087053E020023249FB
:100FC000087003202D4908704CE02F48007820431A
:100FD0002D490870084600782E4908702948008875
:100FE000801E284908800420244908703AE02748D8
:100FF00001780078401C254A107027484454214845
:101000000088401E1F490880104600781E49097854
:10101000884206D1002020491278885405201749BB
:1010200008701FE01A4801780078401C184A1070B8
:101030001A48445413480088401E80B21149088061
:1010400078B900201549127888541148007814495D
:1010500008700120134908700020084908700449ED
:10106000088000BF00BF00BF6CE7000000480040E0
:101070001000002024000020130000201800002091
:1010800019000020160000201A0000201B0000207C
:101090001C00002014000020240200206402002014
:1010A000150000201200002070B504460D460BE02C
:1010B00000BF8021074800F031F80028F9D014F86B
:1010C000011B044800F0F5F8281EA5F101018DB2BE
:1010D000EED170BD0048004010B504460BE000BFE3
:1010E0008021074800F01AF80028F9D014F8011BF5
:1010F000034800F0DEF820780028F0D110BD000091
:101100000048004021B1828942F40052828104E00B
:1011100082894DF6FF731A40828170470246002093
:10112000B1F5007F00D100BF13880B400BB1012047
:1011300000E00020704770B502460024002300251F
:10114000002040F66A16B14200D100BFC1F342153B
:1011500001F01F03012606FA03F3012D02D196893F
:10116000334006E0022D02D1168A334001E0968A10
:1011700033400C12012606FA04F41688344013B1E9
:101180000CB1012000E0002070BDF0B50346002442
:1011900000260025002040F66A17B94200D100BFA2
:1011A0001846C1F3421401F01F06012707FA06F59D
:1011B000012C01D10C3004E0022C01D1103000E0F0
:1011C00014301AB107682F43076002E00768AF4385
:1011D0000760F0BD2DE9FF4705460E460024A146F5
:1011E00000BFA046B08900B100BF2C8A24F440544F
:1011F000F08804432C82AC8941F20C608443B088AF
:1012000031890843718908430443AC81AC8A24F4D2
:101210004074B0890443AC826846FFF7D5FB204890
:10122000854202D01F48854202D1DDF80C9001E0D2
:10123000DDF80890A88900F4004040B109EBC9002E
:1012400000EB091031684900B0FBF1F707E009EB4A
:10125000C90000EB091031688900B0FBF1F7642088
:10126000B7FBF0F004012009642101FB1078A88984
:1012700000F4004040B1322000EBC800B0FBF1F0B8
:1012800000F00700044308E0322000EB081064215E
:10129000B0FBF1F000F00F0004432C81BDE8FF87A4
:1012A000001001400014014001468888C0F3080086
:1012B0007047C1F308028280704700BFFEE700005C
:1012C00010B5A0B0044680216846FEF782FF204694
:1012D000FFF7DAFD35A0FFF7FFFE4FF47A7000F05C
:1012E0006CFA40F6B83132A000F022F918B132A001
:1012F00000F04EF902E033A000F04AF940F6B831B0
:1013000033A000F015F918B136A000F041F902E061
:1013100039A000F03DF980216846FEF75AFF3BA353
:101320003DA23EA1684600F043F942F210716846C2
:1013300000F0FEF818B140A000F02AF902E043A046
:1013400000F026F940F6B83145A000F0F1F818B1E8
:1013500047A000F01DF902E04BA000F019F9802130
:101360006846FEF736FF42F21D534DA24FA1684674
:1013700000F01EF94FF4FA51684600F0D9F818B1A0
:1013800051A000F005F902E055A000F001F940F687
:10139000B83159A000F0CCF818B15BA000F0F8F813
:1013A00002E05EA000F0F4F820B010BD2B2B2B0063
:1013B00041540D0A0000000057494649D4DACFDFF6
:1013C0000D0A000057494649C0EBCFDF0D0A000067
:1013D00041542B43574D4F44455F4445463D330DE3
:1013E0000A000000C9E8D6C357494649C4A3CABD8C
:1013F000B3C9B9A60D0A0000C9E8D6C35749464982
:10140000C4A3CABDCAA7B0DC0D0A00003132333410
:1014100035363738000000006362000041542B432A
:10142000574A41505F4445463D222573222C2225D0
:1014300073220D0A0000000057494649C1ACBDD3D4
:101440004150B3C9B9A60D0A0000000057494649EA
:10145000C1ACBDD34150CAA7B0DC0D0A00000000EA
:1014600041542B4349504D4F44453D310D0A000036
:10147000BFAAC6F457494649CDB8B4ABC4A3CABD48
:10148000B3C9B9A60D0A0000BFAAC6F45749464918
:10149000CDB8B4ABC4A3CABDCAA7B0DC0D0A000066
:1014A00062656D66612E636F6D00000041542B43D1
:1014B000495053544152543D22544350222C22252A
:1014C00073222C25640D0A0057494649C1ACBDD38F
:1014D000B7FECEF1C6F7B3C9B9A60D0A00000000E9
:1014E00057494649C1ACBDD3B7FECEF1C6F7CAA72E
:1014F000B0DC0D0A0000000041542B434950534515
:101500004E440D0A0000000057494649BDF8C8EB9B
:10151000CDB8B4ABB3C9B9A60D0A000057494649C6
:10152000BDF8C8EBCDB8B4ABCAA7B0DC0D0A00005B
:1015300070B505460C464FF400711148FEF749FEA0
:101540000020104908802846FFF7C6FD0DE0012065
:1015500000F033F90CA10A48FEF746FE20B90BA1B2
:101560000748FEF741FE00B103E0601E80B2041E92
:10157000EDD100BF002C01DD012070BD0020FCE793
:1015800024000020100000204F4B00003E0000000F
:101590000FB4054B10B503A9044A029800F02CF8CB
:1015A00010BC5DF814FB00000518000820000020A6
:1015B0000FB4084B10B504A902AA039800F01CF858
:1015C000044602A9002000F0F3F8204610BC5DF8A4
:1015D00014FB0000B117000802E008C8121F08C180
:1015E000002AFAD170477047002001E001C1121FA4
:1015F000002AFBD1704700002DE9FF4F8BB09A46BF
:101600000F460546002606E025280BD052460D99C8
:1016100090476D1C761C28780028F5D10FB0304615
:10162000BDE8F08F0024A0460122604900E0044399
:1016300015F8013F203B02FA03F00842F7D1287861
:101640002E2817D115F8010F44F004042A280ED0D3
:101650006FF02F022878A0F1300109290AD808EB91
:10166000880102EB410100EB01086D1CF2E757F81D
:10167000048B6D1C287869283ED006DC0028CDD06C
:1016800063280BD0642804D136E0732810D0752865
:101690004BD052460D999047761C85E017F8040B05
:1016A0008DF8000000208DF80100E946012003E0DC
:1016B00057F8049B4FF0FF3061074FF0000401D44E
:1016C0000AE0641C44450DDA8442FADB19F8041080
:1016D0000029F6D106E0641C8442FCDB19F80410F2
:1016E0000029F8D1264404E019F8010B52460D995F
:1016F0009047641EF8D257E001CF4FF00A0B002844
:1017000002DA40422D2102E0210504D52B218DF87B
:101710002410012103E0E10705D02021F7E70DF1B6
:10172000200908910CE00021F9E701CF4FF00A0BE6
:10173000F9E75946FEF788FD01F1300209F8012D5D
:101740000028F6D1ADEB090000F1200B600701D4B1
:101750004FF00108D84502DDA8EB0B0000E00020A7
:101760008046002406E009A85246005D0D99904786
:10177000641C761C08988442F5DB04E03020524655
:101780000D999047761CB8F10001A8F10108F5DC2D
:1017900005E019F8010B52460D999047761CBBF1F4
:1017A0000001ABF1010BF4DC6D1C34E709280100EA
:1017B0000A68531C0B601070704700B5034603E0C5
:1017C0004FF47A7000F005F8181EA3F10103F7D169
:1017D00000BD00214FF0E0221161A8214143491EC4
:1017E0005161002191610521116100BF4FF0E0219D
:1017F000096901F480310029F8D000214FF0E0227E
:101800001161704770B504460D4600BF8021054840
:10181000FFF784FC0028F9D0A1B20248FFF749FD88
:10182000204670BD00100140A0B04FF44070FFF79B
:101830008FF84FF4E130FFF7BDFA4FF4E130FFF7D6
:101840003FFDFFF725F841F270712EA0FEF724FD51
:1018500018B135A0FFF79CFE02E039A0FFF798FE13
:1018600041F2883200213CA0FEF7C2FE4FF4007125
:101870003B48FEF7AEFC00203A490880FFF7C6F966
:1018800001203949087000BF38480078012830D15C
:10189000374910A8FEF7CFFC36496846FEF7CBFC67
:1018A0006A4610A934A0FFF773FE00202F49087084
:1018B00029A110A8FEF7B1FCD0B934A16846FEF703
:1018C000ACFC40B94FF400713148FEF7DBFF01205A
:1018D000304908700CE030A16846FEF79EFC38B92C
:1018E0004FF400712A48FEF7CFFF00202949087005
:1018F00000BF4FF400711A48FEF76BFC0020194935
:101900000880C1E761363461386330366264356619
:101910003464663862613033633230356133366344
:101920006361376500000000B0CDB7A8D4C64D5143
:101930005454C1ACBDD3B3C9B9A60D0A0000000010
:10194000B0CDB7A8D4C64D515454C1ACBDD3CAA76D
:10195000B0DC0D0A000000006C656430303100001E
:10196000240000201000002013000020120000209E
:101970002402002064020020546F7069633A2573CA
:101980002020436D643A25730D0A00006F6E00003D
:10199000001402401D0000206F666600BC1900089C
:1019A0000000002024000000D8150008E0190008FD
:1019B0002400002084060000E81500080000000054
:1019C00001020304010203040607080900000000E5
:1019D0000000000000000000000000000000000007
:04000005080001A14D
:00000001FF
