:020000040800F2
:10000000600600200D0200080B050008030500082B
:1000100007050008C7020008790700080000000073
:10002000000000000000000000000000DD050008E6
:10003000CB02000800000000990500080D07000829
:1000400027020008270200082702000827020008EC
:100050002702000827020008CD0200082702000836
:1000600027020008270200082702000827020008CC
:1000700027020008270200082702000827020008BC
:1000800027020008270200082702000827020008AC
:10009000270200082702000827020008270200089C
:1000A000270200082702000827020008270200088C
:1000B000270200082702000827020008270200087C
:1000C000270200082702000827020008270200086C
:1000D000270200082702000827020008270200085C
:1000E000270200082702000827020008270200084C
:1000F000270200082702000827020008270200083C
:10010000270200082702000827020008270200082B
:10011000270200082702000827020008270200081B
:10012000270200082702000827020008270200080B
:1001300027020008270200082702000827020008FB
:1001400027020008270200082702000827020008EB
:1001500027020008270200082702000827020008DB
:1001600027020008270200082702000827020008CB
:1001700027020008270200082702000827020008BB
:10018000270200082702000800F002F800F02EF80D
:100190000AA090E8000C82448344AAF10107DA45E2
:1001A00001D100F023F8AFF2090EBAE80F0013F006
:1001B000010F18BFFB1A43F0010318472C0600007B
:1001C0003C0600000023002400250026103A28BF2A
:1001D00078C1FBD8520728BF30C148BF0B607047B9
:1001E0001FB500F0FBFA1FBD10B510BD00F031F8CF
:1001F0001146FFF7F5FF00F0E9FA00F04FF803B4FD
:10020000FFF7F2FF03BC00F057F8000009488047F1
:1002100009480047FEE7FEE7FEE7FEE7FEE7FEE7E8
:10022000FEE7FEE7FEE7FEE704480549054A064B00
:1002300070470000110700088901000860000020D5
:1002400060060020600200206002002070477047B6
:100250007047754600F02CF8AE46050069465346D7
:1002600020F00700854618B020B5FFF7DDFFBDE898
:1002700020404FF000064FF000074FF000084FF00D
:10028000000B21F00701AC46ACE8C009ACE8C0099E
:10029000ACE8C009ACE8C0098D46704710B504460B
:1002A000AFF300802046BDE81040FFF7A8BF000074
:1002B000004870470000002001491820ABBEFEE74F
:1002C00026000200704700BFFEE7704710B501200E
:1002D00000F06CF878B1052000F050FA01210648D2
:1002E00000F002F920B94FF40071044800F005F95C
:1002F000012000F055F810BD00000240001402403B
:1003000000B585B00121084600F048F90121202000
:1003100000F044F90121880300F050F900208DF825
:1003200008008DF80B000120019001A91A4800F087
:1003300093F80021084600F053F9012003900020B3
:100340008DF810000C208DF8110001208DF812009E
:1003500003A800F037F806208DF800000F208DF874
:10036000010001208DF80300684600F0CFF801205D
:100370008DF8080000208DF80B004FF400700190FC
:1003800003208DF8090000208DF80A0001A9034818
:1003900000F062F805B000BD000002400014024009
:1003A0000149086070470000143C014001460020EC
:1003B000034A12680A400AB1012000E00020704799
:1003C000143C0140002123498279002A3AD00A4690
:1003D000126803689A430B461A600A1D1268036884
:1003E0009A430B1D1A60027911440A6803681A4384
:1003F0000A60184A0832126803689A43154B08339A
:100400001A601A1D126803689A43124B0C331A6063
:100410004279102A0ED11A1F126803681A430D4B35
:1004200008331A601A1D126803681A43094B0C330B
:100430001A600DE00749427911440A6803681A43BB
:100440000A6005E0027911440A6803689A430A6069
:1004500070470000003C0140F0B50A46002100232F
:10046000002400BF3DE0012505FA01F3156805EA07
:1004700003049C4234D105684F000326BE40B543B7
:10048000056015794E00B54006683543056015795D
:10049000012D02D01579022D16D185684F00032653
:1004A000BE40B543856055794E00B54086683543FA
:1004B0008560456801268E40B5434560456896795C
:1004C0008E40B6B235434560C5684F000326BE4036
:1004D000B543C560D5794E00B540C6683543C560A3
:1004E000491C1029BFD3F0BD0246002013690B4000
:1004F0000BB1012000E00020704742694A40426190
:10050000704700BFFEE700BFFEE7704770B50021EF
:1005100000230F22C4781CB3174C246804F4E06451
:10052000C4F5E064C4F30721C1F10404E3B20A4155
:1005300044789C40E1B28478144021430C07210E9A
:100540000E4C05786155047804F01F050124AC4079
:1005500005786D11AD0005F1E025C5F8004109E011
:10056000047804F01F050124AC40054D067876118F
:1005700045F8264070BD00000CED00E000E400E00E
:1005800080E100E002490143024A11607047000027
:100590000000FA050CED00E07047000029B1064AA2
:1005A00012680243044B1A6004E0034A1268824353
:1005B000014B1A60704700003038024029B1064AEA
:1005C00012680243044B1A6004E0034A1268824333
:1005D000014B1A6070470000443802407047000029
:1005E00030B500228B071C0F0F2303FA04F20B4BCC
:1005F0008C1053F824309343084C8D1044F8253068
:1006000023468C1053F824308C07240F00FA04F48E
:100610002343024C8D1044F8253030BD083801408A
:100620000CB50020019000903448006840F4803000
:100630003249086000BF3148006800F40030009083
:100640000198401C0190009818B90198B0F5A04F8E
:10065000F1D12A48006800F4003010B10120009068
:1006600001E0002000900098012846D12348403046
:10067000006840F0805021494031086020480068FF
:1006800040F440401E4908601C48083000681B497F
:10069000083108600846006840F4004008600846D9
:1006A000006840F4A05008601648091F0860081F41
:1006B000006840F08070091F086000BF0F480068A4
:1006C00000F000700028F9D040F205700E49086073
:1006D0000A480830006820F0030008490831086023
:1006E0000846006840F00200086000BF0348083078
:1006F000006800F00C000828F8D10CBD003802405A
:100700000070004008544007003C02407047000061
:1007100010B51548006840F470001349086013488C
:10072000006840F001001149086000200F490831BD
:1007300008600E4800680E4908400C4908600D48E2
:10074000091D0860081F006820F48020091F086048
:10075000002006490C310860FFF762FF4FF000608F
:1007600001498039086010BD88ED00E00038024082
:10077000FFFFF6FE1030002400BFFEE700B5034681
:1007800003E04FF47A7000F005F8181EA3F101039E
:10079000F7D100BD15E000214FF0E0221161A72143
:1007A0005161002191610521116100BF4FF0E021ED
:1007B000096901F480310029F8D000214FF0E022CE
:1007C0001161011EA0F10100E5D170474FF44070A6
:1007D000FFF7D8FEFFF794FD00BFFEE74FF0407033
:1007E000E1EE100A70470000F80700080000002042
:0807F00060060000C4010008CE
:040000050800020DE0
:00000001FF
