:020000040800F2
:1000000070060020290200081D050008930300085F
:1000100019050008E3020008B90800080000000004
:10002000000000000000000000000000F1050008D2
:10003000E702000800000000AD050008E106000826
:10004000430200084302000843020008430200087C
:10005000430200084302000843020008430200086C
:10006000430200084302000843020008430200085C
:10007000430200084302000843020008430200084C
:10008000430200084302000843020008430200083C
:10009000430200084302000843020008430200082C
:1000A000430200084302000843020008430200081C
:1000B000430200084D0700084302000843020008FD
:1000C00043020008430200084302000843020008FC
:1000D00043020008430200084302000843020008EC
:1000E00043020008430200084302000843020008DC
:1000F00043020008430200084302000843020008CC
:1001000043020008430200084302000843020008BB
:1001100043020008430200084302000843020008AB
:10012000430200084302000843020008430200089B
:10013000430200084302000843020008430200088B
:10014000430200084302000843020008430200087B
:10015000430200084302000843020008430200086B
:10016000430200084302000843020008430200085B
:10017000430200084302000843020008430200084B
:10018000430200084302000800F002F800F03CF8C7
:100190000AA090E8000C82448344AAF10107DA45E2
:1001A00001D100F031F8AFF2090EBAE80F0013F0F8
:1001B000010F18BFFB1A43F0010318479007000016
:1001C000B0070000103A24BF78C878C1FAD85207A7
:1001D00024BF30C830C144BF04680C6070470000C1
:1001E0000023002400250026103A28BF78C1FBD840
:1001F000520728BF30C148BF0B6070471FB500F0E1
:100200009FFB1FBD10B510BD00F031F81146FFF780
:10021000F5FF00F053FB00F04FF803B4FFF7F2FFD7
:1002200003BC00F057F80000094880470948004720
:10023000FEE7FEE7FEE7FEE7FEE7FEE7FEE7FEE796
:10024000FEE7FEE704480549054A064B70470000F3
:10025000E5060008890100087000002070060020F3
:10026000700200207002002070477047704775468A
:1002700000F02CF8AE4605006946534620F0070012
:10028000854618B020B5FFF7DDFFBDE820404FF0F0
:1002900000064FF000074FF000084FF0000B21F070
:1002A0000701AC46ACE8C009ACE8C009ACE8C0093D
:1002B000ACE8C0098D46704710B50446AFF3008026
:1002C0002046BDE81040FFF7A8BF00000048704777
:1002D0001000002001491820ABBEFEE726000200F6
:1002E000704700BFFEE77047F0B50A4600210023C3
:1002F000002400BF3DE0012505FA01F3156805EA79
:1003000003049C4234D105684F000326BE40B54328
:10031000056015794E00B5400668354305601579CE
:10032000012D02D01579022D16D185684F000326C4
:10033000BE40B543856055794E00B540866835436B
:100340008560456801268E40B543456045689679CD
:100350008E40B6B235434560C5684F000326BE40A7
:10036000B543C560D5794E00B540C6683543C56014
:10037000491C1029BFD3F0BD0246002013690B4071
:100380000BB1012000E00020704742694A40426101
:10039000704700BFFEE700001CB50121084600F0D1
:1003A00007F90120009000208DF804008DF8070067
:1003B00069460248FFF798FF1CBD0000000002409C
:1003C00010B53B48007830B1012814D002283DD048
:1003D000032866D15CE001213648FFF7CDFF10B954
:1003E00001203349087000203349087033490870F0
:1003F0003349087059E001212E48FFF7BDFFB8B915
:100400002E48007810B901202C4908702A4800783D
:10041000401C2949087008460078642815DD022030
:1004200028490870224908700020234908700CE010
:1004300022480078012805D12249087003201C4970
:10044000087002E000201A4908702EE001211948C6
:10045000FFF792FFA8B918480078401C16490870A9
:1004600008460078322812DB1548007878B9032056
:100470001449087001201249087000200E490870C4
:1004800005E004200F4908700320094908700CE0BA
:1004900001210848FFF770FF10B1002004490870DF
:1004A00003E000200249087000BF00BF10BD00003B
:1004B0000000002000000240090000200A00002087
:1004C0000B000020080000201CB50121202000F0B6
:1004D0006FF80121102000F06BF84FF4C06000901D
:1004E00001208DF8040000208DF8070003208DF80E
:1004F000050000208DF8060069460548FFF7F4FE68
:100500004FF4C040009069460248FFF7EDFE1CBD65
:10051000001402400010024000BFFEE770470000D8
:1005200070B5002100230F22C4781CB3174C246837
:1005300004F4E064C4F5E064C4F30721C1F10404E9
:10054000E3B20A4144789C40E1B2847814402143EC
:100550000C07210E0E4C05786155047804F01F0538
:100560000124AC4005786D11AD0005F1E025C5F81A
:10057000004109E0047804F01F050124AC40054D5A
:100580000678761145F8264070BD00000CED00E0BD
:1005900000E400E080E100E002490143024A11600A
:1005A000704700000000FA050CED00E07047000005
:1005B00029B1064A12680243044B1A6004E0034A58
:1005C00012688243014B1A607047000030380240C5
:1005D00029B1064A12680243044B1A6004E0034A38
:1005E00012688243014B1A60704700004038024095
:1005F000704700000CB5002001900090344800685E
:1006000040F480303249086000BF3148006800F48F
:10061000003000900198401C0190009818B9019892
:10062000B0F5A04FF1D12A48006800F4003010B1B5
:100630000120009001E0002000900098012846D1A0
:1006400023484030006840F0805021494031086024
:100650002048006840F440401E4908601C480830AB
:1006600000681B49083108600846006840F40040F3
:1006700008600846006840F4A05008601648091F4A
:100680000860081F006840F08070091F086000BF04
:100690000F48006800F000700028F9D040F20570A3
:1006A0000E4908600A480830006820F00300084935
:1006B000083108600846006840F00200086000BF8A
:1006C00003480830006800F00C000828F8D10CBD81
:1006D000003802400070004008544007003C0240CF
:1006E0007047000010B51548006840F470001349C9
:1006F00008601348006840F00100114908600020BC
:100700000F49083108600E4800680E4908400C493E
:1007100008600D48091D0860081F006820F480204B
:10072000091F0860002006490C310860FFF762FFCE
:100730004FF0006001498039086010BD88ED00E08D
:1007400000380240FFFFF6FE1030002410B50121F2
:100750000B4800F055F888B10A480078401C094958
:10076000087008460078052804DDFFF729FE002000
:10077000044908700121024800F006F810BD00008D
:10078000000400400C000020CA430282704721B1DF
:10079000028842F00102028004E002884FF6FE73F4
:1007A0001A400280704700001FB501210220FFF7A8
:1007B0000FFF42F2CF00ADF804001320029000209A
:1007C000ADF80600ADF80C0001A90C4800F032F8B5
:1007D0001D208DF800000F208DF8010001208DF8FC
:1007E00003006846FFF79CFE01221146034800F013
:1007F00018F801210148FFF7CAFF1FBD000400409F
:1008000030B50246002000230024158A05EA0103C2
:10081000958905EA010413B10CB1012000E0002024
:1008200030BD1AB183890B43838102E083898B43F6
:100830008381704700220288184B98420ED0184BD3
:1008400098420BD0B0F1804F08D0164B984205D09B
:10085000154B984202D0154B984204D14FF68F7336
:100860001A404B881A43124B984207D0114B9842BA
:1008700004D04FF6FF431A400B891A4302804B689D
:10088000C3620B880385054B984202D0044B984203
:1008900001D18B7A038601238382704700000140D7
:1008A000000401400004004000080040000C00402B
:1008B000001000400014004000BFFEE74FF44070FD
:1008C000FFF76AFEFFF768FDFFF76EFFFFF7FCFD1D
:1008D00000BF18480078012806D002280DD0032850
:1008E00014D0042824D11AE04FF400711248FFF705
:1008F0004CFD04200F4908701BE04FF480610E4846
:10090000FFF743FD00200B49087012E04FF400513F
:100910000A48FFF73AFD00200649087009E04FF445
:1009200080410648FFF731FD00200249087000E0D1
:1009300000BFCEE708000020001402400010024073
:100940004FF04070E1EE100A704700006C0900089B
:100950000000002010000000C40100087C0900080D
:100960001000002060060000E00100080000000008
:0C0970000000000000000000000000007B
:0400000508000229C4
:00000001FF
