:020000040800F2
:10000000180600209D010008F5020008ED02000816
:10001000F1020008110200080309000800000000B6
:10002000000000000000000000000000B104000813
:10003000150200080000000085030008A105000863
:10004000B7010008B7010008B7010008B7010008B0
:10005000B7010008B7010008B7010008B7010008A0
:10006000B7010008B7010008B7010008B701000890
:10007000B7010008B7010008B7010008B701000880
:10008000B7010008B7010008B7010008B701000870
:10009000B7010008B7010008B7010008B701000860
:1000A000B7010008B7010008B7010008B701000850
:1000B000B7010008B7010008B7010008B701000840
:1000C000B7010008B7010008B7010008B701000830
:1000D000B7010008B9060008B7010008E1060008EA
:1000E000B7010008B7010008B7010008B701000810
:1000F000B7010008B7010008B7010008B701000800
:10010000B7010008B7010008B7010008B7010008EF
:10011000B7010008B7010008B7010008B7010008DF
:10012000B7010008B7010008B7010008B7010008CF
:10013000B7010008B7010008B7010008B7010008BF
:10014000B7010008B7010008B7010008B7010008AF
:10015000B7010008B7010008B7010008B70100089F
:10016000B7010008B7010008B7010008B70100088F
:10017000B7010008B7010008B7010008B70100087F
:10018000B7010008B7010008DFF80CD000F02EF826
:1001900000480047710B00081806002006488047F9
:1001A00006480047FEE7FEE7FEE7FEE7FEE7FEE75C
:1001B000FEE7FEE7FEE7FEE7A50500088901000867
:1001C00030B50B46014600202022012409E021FA27
:1001D00002F59D4205D303FA02F5491B04FA02F524
:1001E0002844151EA2F10102F1DC30BD064C074D7A
:1001F00006E0E06840F0010394E8070098471034F7
:10020000AC42F6D3FFF7C4FFA40B0008C40B0008F0
:1002100000BFFEE77047F0B50A4600210023002426
:1002200000BF3DE0012505FA01F3156805EA030466
:100230009C4234D105684F000326BE40B54305609B
:1002400015794E00B5400668354305601579012DD6
:1002500002D01579022D16D185684F000326BE40C5
:10026000B543856055794E00B54086683543856055
:10027000456801268E40B5434560456896798E40B5
:10028000B6B235434560C5684F000326BE40B5434E
:10029000C560D5794E00B540C6683543C560491C78
:1002A0001029BFD3F0BDF0B5002300244D07ED0E9B
:1002B00002FA05F3CE1000F1200555F826504E073E
:1002C000F70E0F26BE40B543CF1000F1200646F8CA
:1002D0002750CE1000F1200555F8265045EA0304BA
:1002E000CE1000F1200545F82640F0BD00BFFEE726
:1002F00000BFFEE77047000070B5002100230F2209
:10030000C4781CB3174C246804F4E064C4F5E064BA
:10031000C4F30721C1F10404E3B20A4144789C40CC
:10032000E1B28478144021430C07210E0E4C05786D
:100330006155047804F01F050124AC4005786D1167
:10034000AD0005F1E025C5F8004109E0047804F0AE
:100350001F050124AC40054D0678761145F826406E
:1003600070BD00000CED00E000E400E080E100E082
:1003700002490143024A1160704700000000FA057B
:100380000CED00E07047000029B1064A12680243F4
:10039000044B1A6004E0034A12688243014B1A605E
:1003A000704700003038024029B1064A1268024303
:1003B000044B1A6004E0034A12688243014B1A603E
:1003C0007047000044380240F0B5002100220024AC
:1003D000022500260223324F3F6807F00C0121B1AD
:1003E000042905D0082937D105E02E4F076036E0F3
:1003F0002D4F076033E02A4F3F1F3F68C7F38056F9
:10040000274F3F1F3F6807F03F036EB1264FB7FBF2
:10041000F3F7DFF88CC0ACF1040CDCF800C0CCF3CF
:10042000881C07FB0CF40CE01E4FB7FBF3F7DFF85A
:1004300070C0ACF1040CDCF800C0CCF3881C07FBE6
:100440000CF4174F3F1F3F68C7F301477F1C7D0027
:10045000B4FBF5F7076002E0124F076000BF00BF72
:100460000F4F3F6807F0F0010909104F7A5C0768E9
:10047000D74047600A4F3F6807F4E051890A0B4FA5
:100480007A5C4768D7408760054F3F6807F4604152
:10049000490B064F7A5C4768D740C760F0BD000043
:1004A000083802400024F40000127A000000002006
:1004B000704700000CB5002001900090344800689F
:1004C00040F480303249086000BF3148006800F4D1
:1004D000003000900198401C0190009818B90198D4
:1004E000B0F5A04FF1D12A48006800F4003010B1F7
:1004F0000120009001E0002000900098012846D1E2
:1005000023484030006840F0805021494031086065
:100510002048006840F440401E4908601C480830EC
:1005200000681B49083108600846006840F4004034
:1005300008600846006840F4A05008601648091F8B
:100540000860081F006840F08070091F086000BF45
:100550000F48006800F000700028F9D040F20570E4
:100560000E4908600A480830006820F00300084976
:10057000083108600846006840F00200086000BFCB
:1005800003480830006800F00C000828F8D10CBDC2
:10059000003802400070004008544007003C024010
:1005A0007047000010B51548006840F4700013490A
:1005B00008601348006840F00100114908600020FD
:1005C0000F49083108600E4800680E4908400C4980
:1005D00008600D48091D0860081F006820F480208D
:1005E000091F0860002006490C310860FFF762FF10
:1005F0004FF0006001498039086010BD88ED00E0CF
:1006000000380240FFFFF6FE1030002410B588B01D
:10061000044601210846FFF7B7FE01211020FFF72D
:10062000C3FE072209212248FFF73DFE07220A21C7
:100630001F48FFF738FE02208DF8080003208DF8D0
:10064000090000208DF80A0001208DF80B004FF4FE
:10065000C060019001A91648FFF7DDFD0494002059
:10066000ADF81400ADF81600ADF81800ADF81C0098
:100670000C20ADF81A0004A90E4800F0CFF8252090
:100680008DF80C0000208DF80D0001208DF80F0072
:1006900003A8FFF731FE012240F22551054800F082
:1006A00098F80121034800F051F808B010BD00008F
:1006B000000002400010014010B5002440F2255116
:1006C000064800F05CF8012807D1044800F010F952
:1006D000C4B22146014800F010F910BD00100140DD
:1006E00010B540F22551144800F049F8012822D1F4
:1006F00012480088B0F5007F0ADA0F4800F0F8F8D9
:10070000C1B20E480488601C0C4A10800C48015588
:100710000A480088801E0A49085C0D280BD107484A
:100720000088401E085C0A2805D106480078012888
:1007300001D10549087010BD00480040100000209C
:1007400018000020130000201200002021B182892F
:1007500042F40052828104E082894DF6FF731A4010
:100760008281704702460020B1F5007F00D100BFB2
:1007700013880B400BB1012000E00020704770B5DA
:100780000246002400230025002040F66A16B142EC
:1007900000D100BFC1F3421501F01F03012606FA84
:1007A00003F3012D02D19689334006E0022D02D1D8
:1007B000168A334001E0968A33400C12012606FA6D
:1007C00004F41688344013B10CB1012000E000207D
:1007D00070BDF0B50346002400260025002040F639
:1007E0006A17B94200D100BF1846C1F3421401F0A4
:1007F0001F06012707FA06F5012C01D10C3004E091
:10080000022C01D1103000E014301AB107682F43D8
:10081000076002E00768AF430760F0BD2DE9FF47BE
:1008200005460E460024A14600BFA046B08900B18F
:1008300000BF2C8A24F44054F08804432C82AC89F5
:1008400041F20C608443B0883189084371890843C0
:100850000443AC81AC8A24F44074B0890443AC8274
:100860006846FFF7B1FD2048854202D01F48854207
:1008700002D1DDF80C9001E0DDF80890A88900F4C1
:10088000004040B109EBC90000EB09103168490094
:10089000B0FBF1F707E009EBC90000EB0910316884
:1008A0008900B0FBF1F76420B7FBF0F004012009E8
:1008B000642101FB1078A88900F4004040B1322087
:1008C00000EBC800B0FBF1F000F00700044308E0C3
:1008D000322000EB08106421B0FBF1F000F00F00B3
:1008E00004432C81BDE8FF87001001400014014043
:1008F00001468888C0F308007047C1F3080282806F
:10090000704700BFFEE700000FB4054B10B503A908
:10091000044A029800F018F810BC5DF814FB0000BF
:100920004D0B00081400002002E008C8121F08C187
:10093000002AFAD170477047002001E001C1121F60
:10094000002AFBD1704700002DE9FF4F8BB09A467B
:100950000F460546002606E025280BD052460D9985
:1009600090476D1C761C28780028F5D10FB03046D2
:10097000BDE8F08F0024A0460122604900E0044356
:1009800015F8013F203B02FA03F00842F7D128781E
:100990002E2817D115F8010F44F004042A280ED090
:1009A0006FF02F022878A0F1300109290AD808EB4E
:1009B000880102EB410100EB01086D1CF2E757F8DA
:1009C000048B6D1C287869283ED006DC0028CDD029
:1009D00063280BD0642804D136E0732810D0752822
:1009E0004BD052460D999047761C85E017F8040BC2
:1009F0008DF8000000208DF80100E946012003E099
:100A000057F8049B4FF0FF3061074FF0000401D40A
:100A10000AE0641C44450DDA8442FADB19F804103C
:100A20000029F6D106E0641C8442FCDB19F80410AE
:100A30000029F8D1264404E019F8010B52460D991B
:100A40009047641EF8D257E001CF4FF00A0B002800
:100A500002DA40422D2102E0210504D52B218DF838
:100A60002410012103E0E10705D02021F7E70DF173
:100A7000200908910CE00021F9E701CF4FF00A0BA3
:100A8000F9E75946FFF79CFB01F1300209F8012D07
:100A90000028F6D1ADEB090000F1200B600701D46E
:100AA0004FF00108D84502DDA8EB0B0000E0002064
:100AB0008046002406E009A85246005D0D99904743
:100AC000641C761C08988442F5DB04E03020524612
:100AD0000D999047761CB8F10001A8F10108F5DCEA
:100AE00005E019F8010B52460D999047761CBBF1B1
:100AF0000001ABF1010BF4DC6D1C34E709280100A7
:100B000000B5034603E04FF47A7000F005F8181EB4
:100B1000A3F10103F7D100BD00214FF0E0221161E4
:100B2000A8214143491E51610021916105211161B4
:100B300000BF4FF0E021096901F480310029F8D0AD
:100B400000214FF0E02211617047000070B50446AB
:100B50000D4600BF80210548FFF704FE0028F9D0AC
:100B6000A1B20248FFF7C9FE204670BD0010014047
:100B70004FF44070FFF7FCFB4FF4E130FFF746FD08
:100B800000BF04A0FFF7C0FE4FF47A70FFF7B8FF74
:100B9000F7E7000068656C6C6F20776F726C640D0E
:100BA0000A000000C40B000800000020180000002C
:100BB00028090008DC0B00081800002000060000CF
:100BC00038090008000000000102030401020304C8
:0C0BD000060708090000000000000000FB
:040000050800019D51
:00000001FF
