:020000040800F2
:100000003853001059020008C1270008D91400080D
:10001000BD270008C30800085D400008000000007C
:10002000000000000000000000000000A101000826
:10003000810B000800000000F5010008852D000874
:1000400073020008730200087302000873020008BC
:1000500073020008730200087302000873020008AC
:10006000730200087302000873020008730200089C
:10007000730200087302000873020008730200088C
:10008000730200087302000873020008730200087C
:10009000730200087302000873020008730200086C
:1000A000730200087302000873020008730200085C
:1000B000730200087302000873020008730200084C
:1000C000730200087302000873020008730200083C
:1000D000730200087302000873020008730200082C
:1000E000730200087302000873020008730200081C
:1000F000730200087302000873020008730200080C
:1001000073020008730200087302000873020008FB
:1001100073020008730200087302000873020008EB
:1001200073020008730200087302000873020008DB
:1001300073020008730200087302000873020008CB
:1001400073020008730200087302000873020008BB
:1001500073020008730200087302000873020008AB
:10016000730200087302000873020008730200089B
:10017000730200087302000873020008730200088B
:100180007302000873020008DFF810D000F05CFB77
:100190000048004709BF0208AFF300803853001041
:1001A0002A4B19680868B0E8F04F80F30988BFF35C
:1001B0006F8F4FF0000080F311887047000000003F
:1001C00006480068006880F3088862B661B6BFF32D
:1001D0004F8FBFF36F8F00DF00BF00BF08ED00E05F
:1001E000DFF80C00016841F470010160704700BF46
:1001F00088ED00E0EFF30980BFF36F8F134B1A68AF
:100200001EF0100F08BF20ED108A20E9F04F10609B
:1002100008B44FF0500080F31188BFF34F8FBFF345
:100220006F8F32F05FFC4FF0000080F3118808BC44
:1002300019680868B0E8F04F1EF0100F08BFB0EC66
:10024000108A80F30988BFF36F8F7047D0020020B7
:10025000EFF30580704700000648804706480047D6
:10026000FEE7FEE7FEE7FEE7FEE7FEE7FEE7FEE766
:10027000FEE7FEE7B92D0008890100082DE9F05FCF
:100280000546002092469B46884606468146402405
:100290001BE0284641464746224600F004FA5346F2
:1002A0005A46C01A914110D311461846224600F012
:1002B000EBF92D1A67EB01084F4622460120002179
:1002C00000F0E2F917EB00094E41201EA4F10104F1
:1002D000DFDC484631462A464346BDE8F09F40EA07
:1002E00001039B0703D009E008C9121F08C0042AB4
:1002F000FAD203E011F8013B00F8013B521EF9D29B
:100300007047D2B201E000F8012B491EFBD27047C2
:100310000022F6E710B513460A4604461946FFF7D1
:10032000F0FF204610BD421C10F8011B0029FBD134
:10033000801A704710B5002200E0521C835C8C5C70
:10034000A34201D1002BF8D1D8B2E1B2401A10BDBE
:10035000034611F8012B00F8012B002AF9D11846A9
:1003600070472DE9FE4F804681EA0300C00F0C461E
:10037000009021F0004123F00045B8EB0200A941B4
:1003800005D24046214690461C460B46024623F0C5
:100390000040104347D0270DC7F30A00C3F30A51AA
:1003A0000290401A019040286BDAC3F3130040F426
:1003B000801B0098924620B10023D2EB030A63EB26
:1003C0000B0B01985946C0F14002504600F05CF911
:1003D00006460D4650465946019A00F074F910EB56
:1003E00008006141002487EA115284EAE7731A4346
:1003F00040D0009A62B3019A012A4FEA075215DCF5
:10040000001B61EB02014FF0004202EA0752CDE906
:100410000042001C41F5801132462B4600F074F971
:1004200003B0BDE8F08F40462146F9E7001B61EBC1
:100430000201001C41F5801300185B412018A2F551
:10044000001747EB030140EAD570B6196D4111E082
:100450006D084FEA360645EAC0754FEA0752001BA1
:1004600061EB0201001C41F5801149084FEA3000A0
:100470000019514132462B4603B0BDE8F04F00F061
:1004800034B90098012240000023D0EB020263EB54
:10049000E073009821464FEAE074B8EB000061EB8E
:1004A0000401E9E783F000435BE781F0004158E78E
:1004B0002DE9FE4F81EA030404F0004421F00041DD
:1004C00000944FF0000B23F0004350EA01045ED08B
:1004D00052EA03045BD0C3F30A54C1F30A552C4417
:1004E000A4F2F3340194A0FB0254C1F3130141F4CC
:1004F0008011C3F3130343F4801301FB024400FB98
:10050000034E840A970A44EA815447EA8357A4FBBE
:10051000076802958D0A05FB07854FEA932C04FBBB
:100520000C542705029D4FEA065847EA1637B5EBEB
:1005300008056EEB070C870E920E47EA811742EA18
:100540008312A7FB0201B6EB0B0164EB00042B0D39
:1005500043EA0C335E1844EB1C50DA465146E7FB85
:100560000201C5F313044FEA0B3343EA14534FEA75
:100570000432019C43EA0603A4F10C040294009C9B
:10058000CDE900B400F0C0F803B0BDE8F08F002062
:100590000146F9E70EB5C10F80EAE0700844CA07CA
:1005A000002140F233438DE80E000A460B4600F06E
:1005B000ABF803B000BD0EB540F23341029100210B
:1005C000CDE900110A460B4600F09EF803B000BDCD
:1005D000C1F30A5210B5C1F3130140F2FF3341F4E5
:1005E00080119A4201DA002010BD40F233439A4252
:1005F000A2F2334203DC524200F055F810BD9040A5
:1006000010BD00F0004230F000400AD0C10D01F5ED
:100610006071C0F3160042EA0151C208400711435D
:10062000704700200146704730B5041E71F1000488
:1006300004DB4FF00044404264EB0101141E73F1EF
:10064000000405DB1C464FF00043524263EB0403F9
:100650008B4208BF824230BD30B5041E71F10004E8
:1006600004DB4FF00044404264EB0101141E73F1BF
:10067000000405DB1C464FF00043524263EB0403C9
:10068000994208BF904230BD202A04DB203A00FA8C
:1006900002F1002070479140C2F1200320FA03F3D9
:1006A000194390407047202A04DB203A21FA02F0D7
:1006B0000021704721FA02F3D040C2F1200291409C
:1006C000084319467047202A06DBCB17203A41FA27
:1006D00002F043EAE07306E041FA02F3D040C2F1CF
:1006E0002002914008431946704710B5141E73F15B
:1006F000000408DA401C41F1000192185B411A43E2
:1007000001D120F0010010BD2DE9F04D92469B462D
:1007100011B1B1FA81F202E0B0FA80F220329046D3
:10072000FFF7B2FF04460F4640EA0A0041EA0B0118
:1007300053465A46084313D0114653EA010019D0D4
:10074000C8F140025046FFF7AEFF05460E46504640
:1007500059464246FFF798FF084305D0012004E0C0
:1007600020463946BDE8F08D0020054346EAE07694
:100770002C4337430A986305E40AA0EB08000022E3
:10078000FD0A44EA47540A3002D500200146E9E751
:10079000010510196941DDE9084500196941BDE805
:1007A000F04DA2E72DE9F04D00231A461B1A8A41AD
:1007B00003DB00200146BDE8F08DC1F30A52C1F30E
:1007C000130141F480154FF0000BD10702D100183E
:1007D0006D41521E0027044640F2FF11384601EBDE
:1007E000620A3E468046024600204FF48011FFF721
:1007F0005AFFC2197141BB1846EB0100B4EB030C60
:1008000075EB000C04D3E41A65EB000517460E46A1
:10081000241908F101006D4180463428E3DDF919FF
:1008200046EB0600091BA84103D24FF0FF321346E6
:1008300001E0002213461BEB070046EB0A51BDE81E
:10084000F04DFFF752BF0000064C074D06E0E06890
:1008500040F0010394E8070098471034AC42F6D307
:10086000FFF796FC149103085491030870B58C1897
:1008700010F8015B15F0070301D110F8013B2A11B4
:1008800006D110F8012B03E010F8016B01F8016BA1
:100890005B1EF9D12B0705D40023521E0DD401F89D
:1008A000013BFAE710F8013BCB1A921C03E013F866
:1008B000015B01F8015B521EF9D5A142D8D300209B
:1008C00070BD00BFFEE710B5022008F03EFB10BD72
:1008D00010B500200F4908600F48006820F4400060
:1008E0000D4908600846006840F480000860FFF782
:1008F000EAFF00200949C1F8AC02FFF7E4FF01203C
:1009000004490860FFF7DFFF00200549C1F88002B5
:1009100010BD00008082404200140240008042422C
:10092000008040421CB50121222002F011F9012073
:1009300000908DF8040000208DF8060001208DF84D
:1009400007006946064800F042FB4FF40060009043
:1009500001208DF804006946024800F038FB1CBDF8
:10096000000402400014024010B500200F49086046
:100970000F48006820F440000D49086008460068F0
:1009800040F480000860FFF79EFF01200949C1F88C
:10099000AC02FFF798FF012004490860FFF793FFBE
:1009A00000200549C1F8800210BD0000808240424D
:1009B00000140240008042420080404270B505466B
:1009C00000241548006820F44000134908600846D8
:1009D000006808601E2008F0B8FA002611E0002028
:1009E0000E490860FFF76FFF01200D49C1F8800232
:1009F0006006040E0B48006808B1601CC4B2701C8D
:100A0000C6B2082EEBDB15B9FFF7AEFF01E0FFF72A
:100A10005FFF204670BD000000140240808240420B
:100A2000008040422C82424270B504461348006860
:100A300020F44000114908600846006840F4800036
:100A4000086000200E490860FFF73DFF002511E017
:100A5000E0090C4908606006040E01200A49C1F84B
:100A60008002FFF730FF002005490860FFF72BFFE9
:100A7000681CC5B2082DEBDB70BD000000140240FD
:100A800080824042AC8242420080404210B50F4812
:100A9000006820F440000D4908600846006840F4F2
:100AA0008000086001200A4908600A49C1F88002F4
:100AB0001E2008F04AFA002005490860FFF703FFEE
:100AC00000200449C1F8800210BD0000001402405B
:100AD000AC8242420080404210B50D48006820F4CC
:100AE00040000B4908600846006840F48000086038
:100AF0000120084908601E2008F027FA0020064956
:100B0000C1F8AC02FFF7DFFE01200449086010BD08
:100B1000001402408082404200804242AC82424245
:100B200010B500241248006820F440001049086005
:100B300008460068086001200E4908600E49C1F8A7
:100B40008002FFF7C0FE09E0601CC4B2FA2C03DD8E
:100B5000FFF7C2FF012010BDFFF7B5FE0548803842
:100B600000680028F0D10549086000BFF3E70000E5
:100B700000140240AC8242420080404280824042E7
:100B80007047000051B18200A2F1C042126842F0E9
:100B900001038200A2F1C042136009E08200A2F1C9
:100BA000C0421268034B1A408300A3F1C0431A608D
:100BB00070470000FEFF0F00D0E901121143C26828
:100BC0001143026911434269114382691143C269A9
:100BD0001143026A1143426A1143826A1143C26A95
:100BE0001143026B114302689200A2F1C0421160EE
:100BF000816808290BD101688900A1F1C041096809
:100C000041F0400201688900A1F1C0410A60416BD6
:100C10000968426B526841EA0211426B926841EAEC
:100C20000221426B928941EA0241426B128A41EAF7
:100C30000251426B127D41EA0261426B926911439B
:100C40000268521C9200A2F1C0421160C16AB1F563
:100C5000804F1BD1816B0968826B526841EA021197
:100C6000826B926841EA0221826B128A41EA025148
:100C7000826B127D41EA0261826B926911430268C4
:100C80009200A2F1C042C2F8041107E06FF0704276
:100C900001688900A1F1C041C1F80421704700003A
:100CA0000EB50121062001F053FF02200090002024
:100CB0008DF804008DF8060003208DF80500012052
:100CC0008DF807006946294800F081F94FF400507B
:100CD000009001208DF804006946254800F077F95E
:100CE000FFF720FE002023490860142008F015F9C2
:100CF00001202149C1F8B402322008F00EF9002089
:100D00008DF80800012202A900F038F9012202A999
:100D1000A42000F033F916208DF80800012202A962
:100D2000802000F02BF90C208DF80800012202A988
:100D3000882000F023F9022202A9A12000F024F863
:100D40009DF8080030280ED19DF8090003280AD12B
:100D50009DF809009DF8082000EB022107A003F090
:100D60007FF900200EBD0120FCE7000000040240D6
:100D700000080240B4024142000041424354502066
:100D800049443A25780D0A002DE9F04106460F4600
:100D90001546FFF77BFE7020FFF746FEFFF7C0FE0B
:100DA000F0B2FFF741FEFFF7BBFEFFF76FFE7120C9
:100DB000FFF73AFEFFF7B4FE00240BE0691EA142E4
:100DC00001D0012100E000210846FFF7F7FD38556A
:100DD000601CC4B2AC42F1DBFFF77EFEBDE8F081DF
:100DE00071B581B00024002661480078401C60493C
:100DF0000870084600780A2190FBF1F201FB12000E
:100E000018B15B4800780A2867DA012201A902209C
:100E1000FFF7BAFF9DF8040000F00F0000287ED015
:100E20009DF8040000F00F00062878DA9DF8040011
:100E300000F00F01FF208840C5B2E843C0B240F087
:100E4000C0004C4981F8200000245AE0494890F83D
:100E500020000121A1400840F0B3474931F81400B7
:100E600004226946FFF790FF424890F8300000F0F6
:100E70000100C0B19DF801009DF8001001F00F01C4
:100E800000EB01203B49163121F814009DF80300C6
:100E90009DF8021001F00F0100EB012135480C30E4
:100EA00020F814101DE09DF801009DF8001001F0DD
:100EB0000F0100EB0120C0F5F07081B22D480C301D
:100EC00020F814109DF803009DF8021001F00F01A6
:100ED00000EB0121274801E011E020E0163020F866
:100EE00014109DF8000000F0F000802807D00021C9
:100EF0002048163020F814100A3820F81410601C0E
:100F0000C4B2052CA2DB01261A48808920B91948F1
:100F1000C08A08B9002001900020154908709DF88A
:100F2000040000F01F00D0B9124890F8200000F033
:100F3000800040B10F4890F8200020F080000D495B
:100F400081F820000BE04FF6FF700A498881C882C3
:100F5000084690F8200000F0E00081F820000448E6
:100F60000078F02802DD0A200149087030467CBD77
:100F70000100001014000020EC4903082DE9F041A5
:100F800005460E4617464FF00008FFF77FFD70201C
:100F9000FFF74AFDFFF7C4FDE8B2FFF745FDFFF795
:100FA000BFFD00240BE0305DFFF73EFDFFF7B8FD0D
:100FB0008046B8F1000F00D003E0601CC4B2BC4210
:100FC000F1DB00BFFFF788FD4046BDE8F081F0B5DA
:100FD0000A4600210023002400BF3DE0012505FA58
:100FE00001F3156805EA03049C4234D105684F00FB
:100FF0000326BE40B543056015794E00B54006682E
:10100000354305601579012D02D01579022D16D1D1
:1010100085684F000326BE40B543856055794E0074
:10102000B540866835438560456801268E40B543E6
:101030004560456896798E40B6B235434560C568CF
:101040004F000326BE40B543C560D5794E00B5407C
:10105000C6683543C560491C1029BFD3F0BDF0B543
:10106000002300244D07ED0E02FA05F3CE1000F127
:10107000200555F826504E07F70E0F26BE40B54303
:10108000CF1000F1200646F82750CE1000F12005C1
:1010900055F8265045EA0304CE1000F1200545F826
:1010A0002640F0BD1FB50121062001F051FD0220B0
:1010B000009000208DF804008DF8060003208DF8C4
:1010C000050001208DF8070069463448FFF77FFFCF
:1010D0004FF40050009001208DF80400694630481C
:1010E000FFF775FFFFF71EFC00202E4908600A205D
:1010F00007F013FF01202C49C1F8B4020A2007F0C1
:101100000CFF0220009001208DF8040000208DF8D3
:10111000070069462148FFF75AFF642007F0FDFEEB
:10112000042202A948F2401000F054F800208DF883
:101130000C0002A91DA002F093FF1FA102A8FFF757
:10114000F9F848BB02208DF80800012202A948F2F4
:10115000400000F093F9012202A948F2470000F094
:1011600039F89DF80800602807DA9DF8081014A0E7
:1011700002F076FF012000F053F90A2007F0CDFEBF
:1011800000208DF80800012202A948F2400000F07A
:1011900075F9002004B010BD0020FBE700040240F8
:1011A00000080240B4024142000041424354502032
:1011B00049443A25730D0A003931343700000000E4
:1011C00044656661756C74205665723A25640D0A33
:1011D000000000002DE9F04105460F461646FFF7D6
:1011E00055FC2820FFF720FCFFF79AFC2812FFF798
:1011F0001BFCFFF795FCE8B2FFF716FCFFF790FC2D
:10120000FFF744FC2920FFF70FFCFFF789FC0024BF
:101210000BE0711EA14201D0012100E0002108462F
:10122000FFF7CCFB3855601CC4B2B442F1DBFFF7CA
:1012300053FCBDE8F081000071B583B000240026A6
:1012400073480078401C72490870084600780A21EB
:1012500090FBF1F201FB120018B16D4800780A28EA
:101260007EDA012203A948F24E10FFF7B3FF0020F7
:101270000190012201A948F24E1000F0FFF89DF8FC
:101280000C0000F00F0000286AD09DF80C0000F060
:101290000F000628E4DA9DF80C0000F00F01FF2093
:1012A0008840C0B201905B4890F820509DF804003F
:1012B000C043C0B240F0C000564981F82000084643
:1012C00081898182C18AC183002444E0514890F819
:1012D00020000121A140084020B34F4931F81400FB
:1012E000042202A9FFF776FF4A4890F8300000F088
:1012F0000100C0B19DF808009DF8091000EB012025
:1013000081B24448163020F814109DF80A009DF868
:101310000B1000EB0120C0F5487081B23D480C3045
:1013200020F8141015E09DF808009DF8091000EB56
:10133000012081B237480C3020F814109DF80A00C3
:101340009DF80B1000EB012081B23248163020F8D6
:101350001410601CC4B2052CB8DB01262D4800E037
:101360002BE080892D490988884205DC2948C08AFC
:101370002A49498888421DDD9DF80C0000F00F00C5
:1013800001280ADD2348C089224988810846008B4C
:10139000C88200201E4908700FE01E48808A1D493F
:1013A00088810846C08BC88280200390084680F858
:1013B000205002E00020164908709DF80C0000F053
:1013C0008F00802819D1134890F8200000F0800089
:1013D00038B1104890F8200020F080000D4981F8C5
:1013E00020004FF6FF700B498881C882084690F8AC
:1013F000200000F0E00081F8200005480078F02887
:1014000002DD0A2002490870304604B070BD0000B9
:101410005800002014000020E249030810030020B7
:1014200038B50546002400208DF800008DF80150E5
:1014300000BF09E09DF800000F49095D0844C0B2F3
:101440008DF80000601CC4B2B82CF3D39DF80000E6
:10145000C043401CC0B28DF80000B822064948F2D3
:10146000470000F00BF80222694648F2FF0000F046
:1014700005F8002038BD00002A4903082DE9F04195
:1014800004460E4617464FF00008FFF7FFFA2820E3
:10149000FFF7CAFAFFF744FB2012FFF7C5FAFFF780
:1014A0003FFBE0B2FFF7C0FAFFF73AFB00250BE085
:1014B000705DFFF7B9FAFFF733FB8046B8F1000F14
:1014C00000D003E0681CC5B2BD42F1DB00BFFFF7EE
:1014D00003FB4046BDE8F08100BFFEE770B504465F
:1014E000002617480588408845431548808846F6F9
:1014F0000401884216D112488079012812D10020B7
:101500000F4988712A2048812B20888100210846B4
:1015100000F042FF01200A4988712B2048812A20CF
:10152000888103E00021084600F036FF01F032F91F
:10153000002602E003480480761CAE42FAD370BD58
:10154000100300208000006C2DE9F84F07460D467F
:1015500090469946DDF828B0A8EB0700401C1FFA1A
:1015600080FAA9EB0500401C80B20090002414E032
:10157000281981B2384600F00FFF01F00BF9002660
:1015800007E004FB0A603BF8100006490880701C65
:1015900086B25645F5DB601C84B200988442E7DBD6
:1015A000BDE8F88F8000006C10B50446002C66D1B1
:1015B0006C498871F02008804FF4A070488008467C
:1015C000808849F2413188420BD06648808846F6CF
:1015D0000401884205D06348808845F21031884272
:1015E0001AD12C205F4908812A2048812B2088812C
:1015F0000846808846F60401884205D0594880880C
:1016000045F21031884206D14FF4A0705549088048
:101610004FF4F0704880A1E05248808845F21051A4
:10162000884210D14FF430504E4908814FF4285071
:1016300048814FF42C5088814FF4F07008804FF4AB
:10164000487048808AE04748808841F663118842A4
:101650000DD12C20434908812B2048812A208881E4
:101660004FF4F07008804FF44870488076E02220F4
:101670003C49088120204881212088816EE001209A
:10168000384988714FF4A0700880F02048800846DF
:10169000808849F24131884205D03248808845F23D
:1016A0001031884207D12C202E4908812A204881F8
:1016B0002B2088813FE02B48808846F60401884231
:1016C00007D12C20274908812B2048812A20888196
:1016D00031E02448808845F21051884210D14FF4FF
:1016E0003050204908814FF4285048814FF42C5045
:1016F00088814FF4487008804FF4F07048801AE0F9
:101700001848808841F6631188420DD12C20154974
:1017100008812A2048812B2088814FF44870088056
:101720004FF4F070488006E022200E490881212005
:101730004881202088810B48808846F60401884231
:1017400005D00848808845F21031884206D14FF410
:10175000F070044908804FF4A0704880002000F029
:10176000A5FC10BD100300202DE9FF4F84B0814679
:101770008A460020039002900698A0EB090507987E
:10178000A0EB0A06CDF80490CDF800A0002D01DDF5
:10179000012705E00DB9002702E04FF0FF376D4249
:1017A000002E02DD4FF0010806E016B94FF00008E8
:1017B00002E04FF0FF387642B54201DD2C4600E0F2
:1017C00034464FF0000B21E0009A91B2019A90B29A
:1017D00000F022F8039828440390029830440290C5
:1017E0000398A04205DD0398001B0390019838443C
:1017F00001900298A04205DD0298001B029000981B
:10180000404400900BF101001FFA80FB601C8345EF
:10181000DADD08B0BDE8F08F30B504460D46294644
:10182000204600F0B9FD00F0B5FF024800880249EB
:10183000088030BD100000208000006C2DE9F043CE
:1018400006460F469046002445460320A0EB480973
:101850003CE07A1B91B2321990B2FFF7DDFF3A1BE0
:1018600091B2721990B2FFF7D7FF3A1991B272197B
:1018700090B2FFF7D1FF7A1991B2321990B2FFF707
:10188000CBFF7A1991B2321B90B2FFF7C5FF3A191C
:1018900091B2721B90B2FFF7BFFF7A1B91B2321B5D
:1018A00090B2FFF7B9FF3A1B91B2721B90B2FFF7EB
:1018B000B3FF641CB9F1000F03DAA000801D81445E
:1018C00004E0601B80000A3081446D1EAC42C0DD24
:1018D000BDE8F08370B504460D4616465B48808827
:1018E00049F24131884205D05848808845F210318C
:1018F000884214D15549488900F040FF201200F079
:1019000031FFE0B200F02EFF5049888900F036FF29
:10191000281200F027FFE8B200F024FF8CE04B48CB
:10192000808845F21051884220D14849488900F00A
:1019300025FF201200F016FF44494989491C88B24E
:1019400000F01CFFE0B200F00DFF4049888900F074
:1019500015FF281200F006FF3C498989491C88B20E
:1019600000F00CFFE8B200F0FDFE65E0374880882B
:1019700041F66311884228D13448807920B9334830
:101980000088401E001B84B23049488900F0F6FEF2
:10199000201200F0E7FEE0B200F0E4FE201200F0BA
:1019A000E1FEE0B200F0DEFE2849888900F0E6FEA4
:1019B000281200F0D7FEE8B200F0D4FE281200F0A2
:1019C000D1FEE8B200F0CEFE36E02048808846F630
:1019D000040188421DD11D488079012804D11B488B
:1019E0000088401E001B84B21849488900F0C6FEDA
:1019F000201200F0B7FEE0B200F0B4FE134988896F
:101A000000F0BCFE281200F0ADFEE8B200F0AAFE25
:101A100012E00E488079012804D10C480088401E4D
:101A2000001B84B209494889214600F0BDFE0749E0
:101A30008889294600F0B8FE0448008904490880D6
:101A40004FF0D840A0F8806070BD00001003002067
:101A50007E00006C00B5A1B00020209001217A200A
:101A600001F076F80121084601F082F84FF40040B9
:101A70001E9001208DF87C0000208DF87E00022051
:101A80008DF87D0001208DF87F001EA9FE48FFF72C
:101A90009EFA4CF233701E9002208DF87C000020DC
:101AA0008DF87E0003208DF87D0001208DF87F00E9
:101AB0001EA9F648FFF78BFA4FF680701E900220A1
:101AC0008DF87C0000208DF87E0003208DF87D00CD
:101AD00001208DF87F001EA9ED48FFF778FA4FF43A
:101AE00080501E9002208DF87C0000208DF87E0032
:101AF00003208DF87D0001208DF87F001EA9E548A8
:101B0000FFF765FA4FF480501E9002208DF87C009C
:101B100000208DF87E0003208DF87D0001208DF8D7
:101B20007F001EA9DC48FFF752FA0C220021D7489B
:101B3000FFF795FA0C220121D448FFF790FA0C2206
:101B40000421D248FFF78BFA0C220521CF48FFF77A
:101B500086FA0C220821CD48FFF781FA0C220921D0
:101B6000CA48FFF77CFA0C220A21C848FFF777FA27
:101B70000C220E21C548FFF772FA0C220F21C34830
:101B8000FFF76DFA0C220721C148FFF768FA0C2213
:101B90000821BF48FFF763FA0C220921BC48FFF770
:101BA0005EFA0C220A21BA48FFF759FA0C220B21DF
:101BB000B748FFF754FA0C221146B548FFF74FFA21
:101BC0000C220D21B248FFF74AFA0C220E21B04830
:101BD000FFF745FA0C220F21AD48FFF740FA0C221F
:101BE0001146AC48FFF73BFA0C221146AA48FFF712
:101BF00036FA0F200890002009903C200A9000201F
:101C00000B900C900D900E900920019000200290F6
:101C1000082003900020049005900690079006206D
:101C20000F9000201090119010201290002013901F
:101C300015901490169017904FF480501890002033
:101C400019904FF480401A9000201B9008A81C9017
:101C500001A81D900FA8FEF7AFFF01210620FEF797
:101C600091FF322007F059F90121002000F09CFD7E
:101C7000322007F052F9002000F00CFA87498880E2
:101C800008468088FF280ADB084680884FF6FF71E7
:101C9000884204D081488088B0F5134F69D1D320A1
:101CA00000F06CFD00F0ECF97C49888000F0E8F968
:101CB0007A49888000F0E4F978498880084680886D
:101CC0004FF6FF7101EA00207449888000F0D8F9CE
:101CD000724989880843714988800846808849F29A
:101CE0004131884245D0BF2000F048FD00F0C8F9DE
:101CF0006A49888000F0C4F96849888000F0C0F91A
:101D00006649888000F0BCF964498880084680886C
:101D10004FF6FF7101EA00206049888000F0B0F9B9
:101D20005E49898808435D4988800846808846F670
:101D3000040188421DD0D42000F020FD00F0A0F95D
:101D40005649888000F09CF95449888000F098F941
:101D500052498880084680884FF6FF7101EA0020CA
:101D60004E49888000F08CF94C49898808434B49DA
:101D700088804A48808849F24131884211D04748DA
:101D8000808845F2103188420BD04448808845F263
:101D90001051884205D04148808841F6631188423D
:101DA0001CD13F48006820F00F004FF02041C1F8DF
:101DB0001C010846D0F81C0120F47060C1F81C0119
:101DC0000846D0F81C0140F00300C1F81C01084689
:101DD000D0F81C0140F40070C1F81C012F48818824
:101DE00030A002F03DF92D48808849F24131884207
:101DF00049D1CF2000F0C2FC002000F0B3FCC1208C
:101E000000F0B0FC302000F0ADFCED2000F0B6FC9E
:101E1000642000F0A7FC032000F0A4FC122000F0D6
:101E2000A1FC812000F09EFCE82000F0A7FC8520AA
:101E300000F098FC102000F095FC7A2000F092FC55
:101E4000CB2000F09BFC392000F08CFC2C2000F013
:101E500089FC002000F086FC342000F083FC022086
:101E600000F080FCF72000F089FC202000F07AFCD4
:101E7000EA2000F083FC002000F074FC002000F059
:101E800071FCC02016E0E0E000040240000C0240BB
:101E9000001002400014024000180240100300200D
:101EA0001C0100A0204C43442049443A25780D0AE7
:101EB0000000000000F062FC1B2000F053FCC12079
:101EC00000F05CFC012000F04DFCC52000F056FC49
:101ED000302000F047FC302000F044FCC72000F028
:101EE0004DFCB72000F03EFC362000F047FC4820B7
:101EF00000F038FC3A2000F041FC552000F032FCA4
:101F0000B12000F03BFC002000F02CFC1A2000F077
:101F100029FCB62000F032FC0A2000F023FCA220AD
:101F200000F020FCF22000F029FC002000F01AFC58
:101F3000262000F023FC012000F014FCE02000F03B
:101F40001DFC0F2000F00EFC2A2000F00BFC2820C6
:101F500000F008FC082000F005FC0E2000F002FC58
:101F6000082000F0FFFB542000F0FCFBA92000F04B
:101F7000F9FB432000F0F6FB0A2000F0F3FB0F20F2
:101F800000F0F0FB002000F0EDFB002000F0EAFB89
:101F9000002000F0E7FB002000F0E4FBE12000F06F
:101FA000EDFB002000F0DEFB152000F0DBFB17202E
:101FB00000F0D8FB072000F0D5FB112000F0D2FB89
:101FC000062000F0CFFB2B2000F0CCFB562000F0C9
:101FD000C9FB3C2000F0C6FB052000F0C3FB10202D
:101FE00000F0C0FB0F2000F0BDFB3F2000F0BAFB6B
:101FF0003F2000F0B7FB0F2000F0B4FB2B2000F0D7
:10200000BDFB002000F0AEFB002000F0ABFB012088
:1020100000F0A8FB3F2000F0A5FB2A2000F0AEFB5B
:10202000002000F09FFB002000F09CFB002000F04F
:1020300099FBEF2000F096FB112000F09FFB782029
:1020400006F06BFF292000F099FB0020FFF7ACFAA7
:102050000120044908604FF6FF70FFF73FFA21B0F6
:1020600000BD0000BC82404210B50246012000E0E5
:1020700050430B1EA1F10104E1B2F9D110BD0000E3
:1020800008B5034800880090BDF8000008BD0000B6
:102090008000006C10B50446204600F06FFB052060
:1020A00006F053FFFFF7ECFF10BD0000F0B505464A
:1020B00000240027B748807901280BD1B5488088D3
:1020C00046F60401884205D0B248808841F6631183
:1020D000884208D1AF488079F0B9AE48808841F68F
:1020E0006311884218D1082D15D2DFE805F00406E7
:1020F000080A0C0E101206250DE007250BE004253A
:1021000009E0052507E0012505E0002503E003259A
:1021100001E0022500BF00BF9E48808849F241319E
:10212000884217D09B48808846F60401884211D027
:102130009848808845F2103188420BD095488088B5
:1021400045F21051884205D09248808841F66311CB
:1021500088427DD1082D1CD2DFE805F00406090C69
:102160000F12151800BF14E044F0800411E044F091
:1021700040040EE044F0C0040BE044F0200408E00A
:1021800044F0600405E044F0A00402E044F0E00400
:1021900000BF00BF7F48808845F21051884202D1BD
:1021A0004FF4585700E036277A48808845F21031BE
:1021B00088420DD07748808845F21051884207D078
:1021C0007448808841F66311884201D044F00804C5
:1021D0007048808846F60401884201D144F0020428
:1021E0002146384600F0E0FA6A48808841F66311DB
:1021F00088421DD004F0200068B166480088654917
:102200004988884214DA6348068840886149088012
:10221000084646800CE05F4800885E49498888424D
:1022200006DD5C48068840885A4908800846468092
:102230005848808845F21051884254D15549488900
:1022400000F09CFA002000F08DFA5249498900E024
:1022500078E0491C88B200F091FA002000F082FA80
:102260004C494989891C88B200F088FA4949098893
:10227000491EC1F30F2000F075FA46494989C91C6F
:1022800088B200F07BFA43490978491EC8B200F0D1
:1022900069FA4049888900F071FA002000F062FA7A
:1022A0003C498989491C88B200F068FA002000F096
:1022B00059FA38498989891C88B200F05FFA354992
:1022C0004988491EC1F30F2000F04CFA3149898931
:1022D000C91C88B200F052FA2E498978491EC8B24A
:1022E00000F040FA55E02B49488900F047FA0020F9
:1022F00000F038FA002000F035FA26490988491E16
:10230000C1F30F2000F02EFA22490978491EC8B205
:1023100000F028FA1F49888900F030FA002000F008
:1023200021FA002000F01EFA1A494988491EC1F31B
:102330000F2000F017FA17498978491EC8B200F03B
:1023400011FA26E0082D1CD2DFE805F004070A0D7B
:102350000F12151844F0300413E044F0100410E09C
:1023600044F020040DE000BF0BE044F0380408E026
:1023700044F0280405E044F0180402E044F00804A6
:1023800000BF00BF032744F480542146384600F0C4
:102390000BFAF0BD1003002030B504460D46674827
:1023A000808849F24131884205D06448808845F2EE
:1023B0001031884214D16149488900F0DFF92012B8
:1023C00000F0D0F9E0B200F0CDF95C49888900F066
:1023D000D5F9281200F0C6F9E8B200F0C3F9ABE075
:1023E0005648808846F6040188421DD153488079BA
:1023F000012804D151480088401E001B84B24F4977
:10240000488900F0BBF9201200F0ACF9E0B200F00E
:10241000A9F94A49888900F0B1F9281200F0A2F917
:10242000E8B200F09FF987E04448808841F66311E4
:10243000884247D141488079A8B940480088401E69
:10244000001B84B23D49488900F098F9002000F053
:1024500089F9002000F086F9201200F083F9E0B23B
:1024600000F080F916E03549488900F087F920121C
:1024700000F078F9E0B200F075F930490988491E9A
:10248000C1F30F2000F06EF92C490978491EC8B23B
:1024900000F068F92949888900F070F9281200F0E5
:1024A00061F9E8B200F05EF924494988491EC1F398
:1024B0000F2000F057F921498978491EC8B200F071
:1024C00051F939E01D48808845F21051884220D1E9
:1024D0001A49488900F052F9201200F043F91749CF
:1024E0004989491C88B200F049F9E0B200F03AF994
:1024F0001249888900F042F9281200F033F90F4997
:102500008989491C88B200F039F9E8B200F02AF94B
:1025100012E00A488079012804D108480088401E4A
:10252000001B84B205494889214600F03DF9034962
:102530008889294600F038F930BD000010030020DA
:102540002DE9F84F80460E4617461C46B3462046F6
:10255000E31704EB5373DB1021464FEAE47C04EBF2
:102560005C7C4FEAEC0CA4EBCC0CBCF1000F02D06D
:102570004FF0010C01E04FF0000C6344224604EBE5
:10258000D27C4FEA6C0C03FB0CF3DBB20093A7F197
:102590002000C7B2002556E00C2C07D107EB4700FE
:1025A0002B4901EB800010F8059013E0102C05D1A9
:1025B000284800EB071010F805900BE0182C07D105
:1025C00007EBC700244901EB800010F8059001E0FB
:1025D000BDE8F88F4FF0000A2FE009F0800030B11D
:1025E0001E48028831464046FFF774F907E00A9812
:1025F00028B91B48028831464046FFF76BF94FEA7D
:1026000049604FEA1069701C86B216484088B04293
:1026100000DCDDE7A6EB0B00A0420AD15E4608F124
:1026200001001FFA80F80F480088404500DCCFE722
:1026300006E00AF1010000F0FF0ABAF1080FCCDB56
:1026400000BF681CC5B200988542A5DB00BFBFE78C
:102650005C310308D0350308C03B0308100000209C
:1026600012000020100300202DE9FF4F81B0074623
:1026700091461E460E9D4FF0000A002439E0301BA3
:10268000401EC1B20A20FFF7EFFCB9FBF0F00A21AF
:10269000B0FBF1F201FB1208BAF1000F16D1701E67
:1026A000A04213DDB8F1000F0ED10020AB4605EBC0
:1026B000DB71491001FB0471009088B22B46202287
:1026C0000299FFF73DFF12E04FF0010A0020AB46F0
:1026D00005EBDB71491001FB0471009088B208F131
:1026E0003001CAB22B460299FFF72AFF00BF601CD7
:1026F000C4B2B442C3DB05B0BDE8F08F2DE9F847A2
:1027000004460D4690469946DDE9096704F0FF0A44
:1027100008EB04001FFA80F809EB05001FFA80F9A6
:1027200016E0444502DB5446A81985B24D4500DB4E
:1027300014E0002000903A78334629462046FFF7FF
:10274000FFFE304606EBD07104EB61018CB27F1CBA
:1027500038787E2802DC38782028E2DA00BFBDE82D
:10276000F887000001B5BDF800000090BDF800003A
:102770000149088008BD00008000006C01B5BDF86B
:1027800000000090BDF800000149088008BD00006D
:102790007E00006C024800890249088070470000F2
:1027A000100300207E00006C034A10804FF0D842D6
:1027B000A2F88010704700007E00006C00BFFEE7AA
:1027C000704700000EB5002002900121062000F0A5
:1027D000BFF90220009000208DF804008DF806005B
:1027E00003208DF8050001208DF80700694619487F
:1027F000FEF7EDFB4FF40050009001208DF804002F
:1028000069461548FEF7E3FBFEF78CF800201349F4
:102810000860642006F081FB01201149C1F8B40270
:10282000642006F07AFB012000F056F9012202A98B
:102830004FF4506000F01CF89DF8081009A001F05A
:102840000FFC9DF80800802801D100200EBD01205A
:10285000FCE700000004024000080240B4024142CC
:10286000000041424354502049443A25780D0A0063
:102870002DE9F04105460F461646FEF707F9B2204E
:10288000FEF7D2F8FEF74CF92812FEF7CDF8FEF766
:1028900047F9E8B2FEF7C8F8FEF742F9FEF7F6F896
:1028A000B320FEF7C1F8FEF73BF900240BE0711EE0
:1028B000A14201D0012100E000210846FEF77EF888
:1028C0003855601CC4B2B442F1DBFEF705F9BDE82F
:1028D000F081000031B52DED068B82B0002400257B
:1028E00074480078401C73490870084600780A2133
:1028F00090FBF1F201FB120018B16E4800780A2833
:102900007EDA012208A90020FFF7B2FF9DF820001F
:1029100000F01F00002873D09DF8200000F01F0079
:1029200040F0C000644981F82000002486E062483D
:1029300090F820000121A140084000287CD05F4988
:1029400031F81400042201A9FFF792FF5A4890F8C9
:10295000300000F00100D0B39DF807109DF806206C
:1029600001EB0220FDF716FE41EC190B9FED540B15
:1029700053EC102BFDF79CFD41EC180BFDF728FEE6
:1029800081B24D48163020F814109DF805109DF8BE
:10299000042001EB0220FDF7FDFD41EC1A0B9FED39
:1029A0004A0B53EC102BFDF783FD41EC190B9FED07
:1029B000480B53EC102BFDF778FD41EC180BFDF79D
:1029C00007FE81B23C480C3020F8141034E0FFE7D9
:1029D0009DF807109DF8062001EB0220FDF7DAFDB7
:1029E00041EC190B9FED360B53EC102BFDF760FDFE
:1029F00041EC180BFDF7ECFD81B22F480C3000E0E4
:102A00002BE020F814109DF805109DF8042001EB30
:102A10000220FDF7BFFD41EC190B9FED2B0B53EC92
:102A2000102BFDF745FD41EC180BFDF7D1FD81B2F0
:102A30002148163020F81410601CC4B2052CFFF693
:102A400076AF01251C48808920B91B48C08A08B987
:102A5000002008900020174908709DF8200000F021
:102A60001F00D0B9144890F8200000F0800040B159
:102A7000114890F8200020F080000F4981F82000D4
:102A80000BE04FF6FF700C498881C882084690F829
:102A9000200000F0E00081F8200006480078F028CF
:102AA00002DD0A2003490870284602B0BDEC068BFF
:102AB00038BD000000000010140000202049030869
:102AC0007B14AE47E17AD43FD881734694F6D23F67
:102AD000000000000000894038B504460020009046
:102AE0000CB180200090012269464FF4506000F044
:102AF00001F838BD2DE9F04104460E4617464FF067
:102B00000008FDF7C3FFB220FDF78EFFFEF708F8BF
:102B10002012FDF789FFFEF703F8E0B2FDF784FF0E
:102B2000FDF7FEFF00250BE0705DFDF77DFFFDF773
:102B3000F7FF8046B8F1000F00D003E0681CC5B273
:102B4000BD42F1DB00BFFDF7C7FF4046BDE8F081A5
:102B500029B1064A12680243044B1A6004E0034A92
:102B600012688243014B1A607047000030380240FF
:102B700029B1064A12680243044B1A6004E0034A72
:102B800012688243014B1A607047000038380240D7
:102B900029B1064A12680243044B1A6004E0034A52
:102BA00012688243014B1A607047000044380240AB
:102BB000F0B5002100220024022500260223324F16
:102BC0003F6807F00C0121B1042905D0082937D14D
:102BD00005E02E4F076036E02D4F076033E02A4FA7
:102BE0003F1F3F68C7F38056274F3F1F3F6807F0DE
:102BF0003F036EB1264FB7FBF3F7DFF88CC0ACF1A3
:102C0000040CDCF800C0CCF3881C07FB0CF40CE0CF
:102C10001E4FB7FBF3F7DFF870C0ACF1040CDCF823
:102C200000C0CCF3881C07FB0CF4174F3F1F3F6814
:102C3000C7F301477F1C7D00B4FBF5F7076002E096
:102C4000124F076000BF00BF0F4F3F6807F0F00151
:102C50000909104F7A5C0768D74047600A4F3F6800
:102C600007F4E051890A0B4F7A5C4768D7408760C8
:102C7000054F3F6807F46041490B064F7A5C47688F
:102C8000D740C760F0BD0000083802400024F400BF
:102C900000127A00000000200CB500200190009086
:102CA0003448006840F480303249086000BF314841
:102CB000006800F4003000900198401C01900098DA
:102CC00018B90198B0F5A04FF1D12A48006800F476
:102CD000003010B10120009001E000200090009829
:102CE000012846D123484030006840F080502149F7
:102CF000403108602048006840F440401E490860A8
:102D00001C48083000681B49083108600846006804
:102D100040F4004008600846006840F4A050086095
:102D20001648091F0860081F006840F08070091FDE
:102D3000086000BF0F48006800F000700028F9D05C
:102D400040F205700E4908600A480830006820F01B
:102D500003000849083108600846006840F0020096
:102D6000086000BF03480830006800F00C00082825
:102D7000F8D10CBD003802400070004008544007F4
:102D8000003C024010B500BF502080F31188BFF313
:102D90004F8FBFF36F8F00BF30F090F818B14FF036
:102DA00080500449086000BF002080F3118800BFF4
:102DB00010BD000004ED00E010B51548006840F4B7
:102DC0007000134908601348006840F00100114981
:102DD000086000200F49083108600E4800680E495D
:102DE00008400C4908600D48091D0860081F00686C
:102DF00020F48020091F0860002006490C3108607B
:102E0000FFF74AFF4FF0006001498039086010BDAC
:102E100088ED00E000380240FFFFF6FE103000248D
:102E20002DE9FC5F04460D4617461E46DDE90EAB54
:102E3000DDE90C894FF478405749088057A01021EC
:102E4000CDE90010564843880288A0212820FFF7CA
:102E500055FC54A01021CDE9001051484388028848
:102E6000A0217820FFF74AFC4FA01021CDE90010E7
:102E70004B4843880288B4212820FFF73FFC4BA031
:102E80001021CDE90010464843880288B4217820FB
:102E9000FFF734FC46A01021CDE9001040484388DC
:102EA0000288C8212820FFF729FC42A01021CDE983
:102EB00000103B4843880288C8217820FFF71EFC99
:102EC0003DA01021CDE90010354843880288DC215F
:102ED0002820FFF713FC39A01021CDE9001030485D
:102EE00043880288DC217820FFF708FC34A01021F9
:102EF000CDE900102A4843880288F0212820FFF7F6
:102F0000FDFB102004232246A02100904020FFF763
:102F1000ABFB102004232A46A02100909020FFF74D
:102F2000A3FB102004233A46B42100904020FFF771
:102F30009BFB102004233246B42100909020FFF721
:102F400093FB102004234246C82100904020FFF745
:102F50008BFB102004234A46C82100909020FFF7E5
:102F600083FB102004235246DC2100904020FFF711
:102F70007BFB102004235A46DC2100909020FFF7B1
:102F800073FB102003230090F0216020109AFFF7BC
:102F90006BFBBDE8FC9F00001000002078313A0078
:102FA0001003002079313A0078323A0079323A0041
:102FB00078333A0079333A0078343A0079343A0079
:102FC0006661632069733A0000B597B000201290E3
:102FD0000B9012901F21FE4801804FF6FF71FD48B3
:102FE00001800846FEF77AFA4FF47841F8480180EC
:102FF0004FF6FF70FEF772FA0020F5490880F64898
:10300000006810216423A022CDE900102821084681
:10301000FFF774FB4FF478421421084600F054FC8B
:103020000020EE4981F820009FEDED0A084680ED72
:10303000090A47E2E94840680A9001200A9988474E
:10304000E64890F8200000F0C00040286FD1002032
:103050000B90E24890F8200020F04000DF4981F812
:1030600020000846818913AA129822F82010DB4814
:10307000C18A129802EB800041801298401CC0B2B5
:1030800012901298012806D0022815D0032829D0C2
:10309000042810D141E04FF6FF721421084600F0D9
:1030A00013FCD0480088143880B24FF478421421C1
:1030B0000A9000F009FCF1E3CA480088143880B295
:1030C0004FF6FF7214210A9000F0FEFBC5484088BD
:1030D000143880B24FF4784201460A90142000F070
:1030E000F3FBDBE3BF484088143880B24FF6FF7231
:1030F00001460A90142000F0E7FBBA4840881438D3
:1031000080B20A90B7480088143880B24FF47842F1
:1031100009900A9900F0D8FBC0E3BDF84C10BDF847
:103120005000081A0A90002802DB0A9802E0B6E371
:103130000A9840420F90BDF84E1013A8C088081A94
:103140000A90002801DB0A9801E00A9840420E909C
:103150000F9840430F900E9840430E90DDE90E10FB
:1031600008440590FDF727FACDE906019DED060B11
:1031700000F09AFF8DED080B9DED080B51EC100B44
:10318000FDF726FA80B21190BDF85400BDF8581032
:10319000401A0A90002801DB0A9801E00A98404290
:1031A0000F9013A84189C089081A0A90002801DBF2
:1031B0000A9801E00A9840420E900F9840430F9001
:1031C0000E9840430E90DDE90E1008440590FDF77F
:1031D000F2F9CDE906019DED060B00F065FF8DEDDE
:1031E000080B9DED080B51EC100BFDF7F1F980B2C7
:1031F00010909DED110AF8EE400A9DED100AB8EE10
:10320000401A80EE810A8DED0A0A0A98FDF7F9F955
:10321000CDE90C019FED740B53EC102B9DED0C0BC5
:1032200051EC100BFDF700FA0ED39FED710B53EC30
:10323000102B9DED0C0B51EC100BFDF70DFA03D389
:10324000119808B11098E8BB00201290654840889A
:10325000143880B20A9063480088143880B24FF660
:10326000FF7209900A9900F02FFB4FF47842142165
:10327000084600F029FB9FED600B53EC102B9DEDF1
:103280000C0B51EC100BFDF713F9CDE908019DED86
:10329000080B51EC100BFDF79BF980B213A90A90B3
:1032A000C989BDF8582013AB5B89CDE90132CDE95E
:1032B0000310BDF85400009013A8C0880990BDF811
:1032C000500000E00BE00890BDF84E000790BDF8FC
:1032D0004C00069007A90EC9FFF7A2FDEEE2BDF86B
:1032E0004C10BDF85400081A0A90002801DB0A9817
:1032F00001E00A9840420F90BDF84E1013A8408993
:10330000081A0A90002801DB0A9801E00A98404256
:103310000E900F9840430F900E9840430E90DDE9B9
:103320000E1008440590FDF746F9CDE906019DED24
:10333000060B00F0B9FE8DED080B9DED080B51EC6E
:10334000100BFDF745F980B21190BDF85010BDF893
:103350005800081A0A90002801DB0A9801E00A9830
:1033600040420F9013A8C188C089081A0A9000280B
:1033700001DB0A9801E00A9840420E900F98404302
:103380000F900E9840430E90DDE90E100844059012
:10339000FDF711F9CDE906019DED060B00F084FE65
:1033A0008DED080B9DED080B51EC100BFDF710F99E
:1033B00080B210909DED110AF8EE400A9DED100AC2
:1033C000B8EE401A80EE810A8DED0A0A0A9817E0DD
:1033D00010000020120000201C49030814000020E7
:1033E0000000000010030020666666666666EE3F19
:1033F000CDCCCCCCCCCCF03F00000000000059403C
:10340000FDF7FFF8CDE90C011FED090B53EC102B74
:103410009DED0C0B51EC100BFDF706F90AD31FEDD7
:103420000C0B53EC102B9DED0C0B51EC100BFDF71E
:1034300013F948D200201290FE484088143880B218
:103440000A90FC480088143880B24FF6FF72099049
:103450000A9900F039FA4FF478421421084600F036
:1034600033FA1FED1B0B53EC102B9DED0C0B51ECA5
:10347000100BFDF71DF8CDE908019DED080B51EC8F
:10348000100BFDF7A5F880B213A90A90C989BDF801
:10349000582013AB5B89CDE90132CDE90310BDF8AB
:1034A0005400009013A8C0880990BDF850000890FF
:1034B000BDF84E000790BDF84C00069007A90EC954
:1034C000FFF7AEFCFAE1BDF85000BDF85410401A09
:1034D0000A90002801DB0A9801E00A9840420F9008
:1034E00013A8C1884089081A0A90002801DB0A98AD
:1034F00001E00A9840420E900F9840430F900E98BA
:1035000040430E90DDE90E1008440590FDF753F896
:10351000CDE906019DED060B00F0C6FD8DED080B13
:103520009DED080B51EC100BFDF752F880B2119095
:10353000BDF84C00BDF85810401A0A90002801DB75
:103540000A9801E00A9840420F90BDF84E1013A867
:10355000C089081A0A90002801DB0A9801E00A983D
:1035600040420E900F9840430F900E9840430E90AB
:10357000DDE90E1008440590FDF71DF8CDE90601C0
:103580009DED060B00F090FD8DED080B9DED080BF9
:1035900051EC100BFDF71CF880B210909DED110A54
:1035A000F8EE400A9DED100AB8EE401A80EE810A4E
:1035B0008DED0A0A0A98FDF724F8CDE90C011FEDFC
:1035C000760B53EC102B9DED0C0B51EC100BFDF713
:1035D0002BF80AD31FED7A0B53EC102B9DED0C0B3F
:1035E00051EC100BFDF738F849D2002012909148A9
:1035F0004088143880B20A908E480088143880B20F
:103600004FF6FF7209900A9900F05EF94FF4784284
:103610001421084600F058F91FED890B53EC102BCC
:103620009DED0C0B51EC100BFCF742FFCDE90801AE
:103630009DED080B51EC100BFCF7CAFF80B2014660
:103640000A9013A8C289BDF8580013AB5B89CDE975
:103650000130CDE90321BDF85400009013A8C088C3
:103660000990BDF850000890BDF84E000790BDF8D5
:103670004C00069007A90EC9FFF7D2FB1EE1BDF86A
:103680005000BDF84C10401A00EE100AF8EEC00AC7
:1036900068480088283800EE100AB8EEC00A80EEAC
:1036A000201A654880ED091ABDF85000BDF84C108D
:1036B000084400EE100AF8EEC00A5E48008800EEEA
:1036C000100AB8EE400A5C4890ED091A01EE600A53
:1036D000F0EE000A80EE201ABDEEC10A10EE100ACC
:1036E00001B25548818513A84089BDF84E10401A93
:1036F00000EE100AF8EEC00A4E484088283800EE66
:10370000100AB8EEC00A80EE201A4B4880ED0A1A63
:1037100013A84089BDF84E10084400EE100AF8EED8
:10372000C00A4448408800EE100AB8EE400A4248F9
:1037300090ED0A1A01EE600AF0EE000A80EE201AFF
:10374000BDEEC10A10EE100A00B23B49C88508461A
:1037500090ED090ABDEEC00A8DED090A099800280E
:1037600001DB099801E00998404202280FDC324849
:1037700090ED0A0ABDEEC00A8DED0A0A0A980028EB
:1037800001DB0A9801E00A984042022842DD00204D
:10379000129028484088143880B20A902548008842
:1037A000143880B24FF6FF7209900A9900F08CF835
:1037B0004FF478421421084600F086F81FA010212B
:1037C000CDE900101B4840880A901A4800880990EB
:1037D00002461A2128200A9BFEF790FF164890F80F
:1037E000300008B9012000E00020134981F83000C2
:1037F000084690F8300030B1902015490870D0216B
:103800001448017005E0D021114801709020114941
:10381000087053E01F21104801804FF6FF70FDF73C
:103820005DFE0EA01021CDE90010024840880A90EC
:1038300000481FE010030020140000205450204EC8
:1038400065656420726561646A75737421000000A7
:10385000480000204900002010000020546F7563CC
:10386000682053637265656E2041646A75737420C5
:103870004F4B21000088099002466E2123200A9BAD
:10388000FEF73CFF012005F054FB00F04DFA4FF627
:10389000FF70FDF723FE17B000BDFFE700BF0A2051
:1038A00005F03BFB0B98401C80B20B900B98B0F5D9
:1038B0007A7F02DD00F040F802E000BFFFF7BABBFC
:1038C00000BF00BFE7E7000070B504460D4616468E
:1038D0001848068004F10D018AB2193988B22B46C6
:1038E0002946FDF741FF05F10D0083B2193881B279
:1038F00022462046FDF738FF6A1C91B2621C90B246
:10390000FDF78AFF6A1C91B2621E90B2FDF784FF38
:103910006A1E91B2621C90B2FDF77EFF6A1E91B2E0
:10392000621E90B2FDF778FF062229462046FDF779
:1039300085FF70BD100000201F4801780A2939D189
:103940001E48016800EE101AB8EEC00ADFED1C0A2E
:1039500080EE201A1B4880ED091A1B48016800EE12
:10396000101AB8EEC00ADFED160A80EE201A1548CC
:1039700080ED0A1A1548B0F90000124A90851448E3
:10398000B0F90000D0850C48007882F8300010466D
:1039900090F8300030B190200E4A1070D0200E4ABE
:1039A000107005E0D0200B4A107090200A4A107069
:1039B000012070470020FCE74B0000204C00002055
:1039C00020BCBE4C140000205000002054000020F9
:1039D0005600002048000020490000201CB53F4848
:1039E000808845F21051884220D1FDF75BFB18B961
:1039F0003B483C49486004E0FEF7E4FE3A48394958
:103A00004860384890F8300040F08000354981F82F
:103A10003000084690F830003049897901F0010102
:103A20000843304981F8300000201CBD2B488088B5
:103A300041F66311884218D1FDF732F92B48294924
:103A40004860084690F8300040F0800081F830006F
:103A5000084690F830002149897901F001010843B6
:103A6000204981F830000020DFE701212620FFF700
:103A70006FF80620009000208DF804008DF80600F5
:103A800003208DF8050001208DF8070069461848CD
:103A9000FDF79DFA012000908DF804006946144856
:103AA000FDF795FA4FF40050009001208DF80400C6
:103AB00069461048FDF78BFA4FF400600090012032
:103AC0008DF8040069460C48FDF781FA0549163166
:103AD000A1F10A0000F098F80120A6E710030020E9
:103AE0003912000814000020D5280008E10D000854
:103AF00000040240000802400014024070B506466F
:103B00000025002400201E4908601E49C1F8AC02AF
:103B10001D490860304600F0C1F9062005F015FA8D
:103B200000201A49C1F88002012005F00EFA012098
:103B30001349086005F009FA00201449C1F8800211
:103B400000BF15E04FF6FF7000EA440400200C4966
:103B50000860012005F0F9F901200C49C1F8800244
:103B600007487838006808B1601C84B2681CC5B288
:103B7000102DE7DB2411012003490860204670BDA9
:103B80008082404200804242B40241420080404272
:103B90002DE9FE4380460027002406E04046FFF75B
:103BA000ADFF2DF81400601C84B2052CF6DB002458
:103BB00016E0601C85B20FE03DF814003DF81510CA
:103BC000884207DD3DF814603DF815002DF814001B
:103BD0002DF81560681C85B2052DEDDB601C84B2E4
:103BE000042CE6DB0027012405E03DF814003844EE
:103BF00087B2601C84B2042CF7DB032097FBF0F043
:103C000086B23046BDE8FE83F8B506460F46144836
:103C10000078FFF7BDFF044612480078FFF7B8FFB1
:103C20000546642C01DB642D01DA0020F8BDF0208C
:103C3000002340F67462D2210090204628F094F9C7
:103C400004464FF4A070002340F67462D221009025
:103C5000284628F089F9054634803D800120E5E7B3
:103C600048000020490000207FB504460D4602A907
:103C700003A8FFF7C9FF064616B9002004B070BDBF
:103C8000694601A8FFF7C0FF06460EB90020F5E718
:103C9000BDF80400BDF80C10884206DCBDF80C101D
:103CA000BDF80400323081420CDBBDF80C00BDF8D9
:103CB0000410884236DCBDF80410BDF80C00323028
:103CC00081422FDABDF80000BDF80810884206DCFA
:103CD000BDF80810BDF80000323081420CDBBDF8A1
:103CE0000800BDF8001088421CDCBDF80010BDF8CB
:103CF00008003230814215DABDF80C10BDF80420FE
:103D0000881800EBD071C1F34F012180BDF8081075
:103D1000BDF80020881800EBD071C1F34F01298055
:103D20000120ABE70020A9E7154991ED090ADFED75
:103D3000150A20EE200ABDEEC00A10EE100A124944
:103D400008600F4991ED0A0ADFED0E0A20EE200A05
:103D5000BDEEC00A10EE100A0C4908600849898DB2
:103D60000B4A11800649C98D0A4A1180044991F80D
:103D70003010094A11700A20084908707047000085
:103D80001400002020BCBE4C4C000020500000203D
:103D900054000020560000204B0000204A00002064
:103DA00010B504463B48006800284ED12CB13A4972
:103DB000A1F10A00FFF758FF35E03749A1F10A00E9
:103DC000FFF752FF78B334481638B0F92C0000EEF4
:103DD000100AB8EEC00A3048163890ED091A8089EA
:103DE00000EE900AF8EE600A01EE200ABCEEC00A6E
:103DF00010EE100A2849163988810846B0F92E00BD
:103E000000EE100AB8EEC00A084690ED0A1AC08A01
:103E100000EE900AF8EE600A01EE200ABCEEC00A3D
:103E200010EE100AC8821C48163890F8200000F0E6
:103E3000800038BBC0201849163981F82000084698
:103E400081898182C18AC1831CE01348163890F8A9
:103E5000200000F0800050B10F48163890F8200084
:103E600020F080000C49163981F820000AE000217A
:103E7000094816388182C1834FF6FF70064916390A
:103E80008881C8820448163890F8200000F080002D
:103E900010BD0000048240422A00002070B5044694
:103EA000002500BF17E004F0800018B101200B4985
:103EB000086002E00020094908606006040E002046
:103EC00007490860012005F040F801200549C1F8C4
:103ED0008002681CC5B2082DE5DB70BDAC82424291
:103EE000808240420080404210B586B004460121E5
:103EF0000846FEF72DFE01211020FEF749FE07229D
:103F000009211948FDF7ABF807220A211648FDF7E9
:103F1000A6F84FF4C060049002208DF81400002031
:103F20008DF8160003208DF8150001208DF817007C
:103F300004A90D48FDF74BF800940020ADF80400EB
:103F4000ADF80600ADF80800ADF80C000C20ADF897
:103F50000A006946054800F017F80121034800F0FF
:103F600007F806B010BD000000000240001001403C
:103F700021B1828942F40052828104E082894DF6A7
:103F8000FF731A40828170472DE9FF4705460E46B0
:103F90000024A14600BFA046B08900B100BF2C8A12
:103FA00024F44054F08804432C82AC8941F20C6024
:103FB0008443B08831890843718908430443AC8144
:103FC000AC8A24F44074B0890443AC826846FEF79E
:103FD000EFFD2048854202D01F48854202D1DDF81E
:103FE0000C9001E0DDF80890A88900F4004040B191
:103FF00009EBC90000EB091031684900B0FBF1F78B
:1040000007E009EBC90000EB091031688900B0FB3B
:10401000F1F76420B7FBF0F004012009642101FBF3
:104020001078A88900F4004040B1322000EBC800AD
:10403000B0FBF1F000F00700044308E0322000EB91
:1040400008106421B0FBF1F000F00F0004432C8154
:10405000BDE8FF87001001400014014000BFFEE7EB
:104060000FB4054B10B503A9044A029801F0F8FDFE
:1040700010BC5DF814FB00007D260108080000104C
:104080000FB4084B10B504A902AA039801F0E8FD8B
:10409000044602A9002001F043FF204610BC5DF851
:1040A00014FB0000215F000800B52DED048BB0EE7D
:1040B000409AF0EE609A83B051EC190BFCF772FB5A
:1040C00041EC180B18EE100A18EE901A8DED008BCB
:1040D000002818BF0120084320F00040C0F17F6095
:1040E00000F1E040C00F14D019EE101A19EE900A3A
:1040F0008DED009B002918BF0121084320F00040EE
:10410000C0F17F6000F1E040C00F04BF012000F06B
:1041100017F8B0EE480A03B0F0EE680ABDEC048B65
:1041200000BD02E008C8121F08C1002AFAD170477A
:104130007047002001E001C1121F002AFBD1704727
:1041400001490860704700000C03002070B5044668
:10415000002508E02168481C20600878303805EB0D
:10416000850100EB41052168087800F004F800287B
:10417000F0D1284670BD0146302903DB392901DC26
:10418000012070470020FCE710B54421074800F0EB
:1041900020FF00221E21064827F0A0F805490860EC
:1041A00002F0DCFB00200449087010BD9C040020D4
:1041B0003D6A0008F0010020EC01002030B5034604
:1041C000B1F90040B2F90050AC4202DDB1F9004053
:1041D00001E0B2F900401C80B1F90240B2F902508E
:1041E000AC4202DDB1F9024001E0B2F902405C806C
:1041F000B1F90440B2F90450AC4202DAB1F904401A
:1042000001E0B2F904409C80B1F90640B2F90650D1
:10421000AC4202DAB1F9064001E0B2F90640DC80B6
:104220000120B3F90040B3F90450AC4205DCB3F906
:104230000240B3F90650AC4200DD002030BDF8B5B5
:1042400004460D4616460027B4F90000B5F90010E3
:10425000884212DBB4F90200B5F9021088420CDB87
:10426000B4F90400B5F90410884206DCB4F906007C
:10427000B5F90610884200DC01270FB90020F8BD0F
:104280000EB90120FBE72088ADF800006088ADF88A
:10429000020032466946284600F0A7F808B9002017
:1042A000EDE7A088ADF800006088ADF80200324666
:1042B0006946284600F099F808B90020DFE7208811
:1042C000ADF80000E088ADF80200324669462846A5
:1042D00000F08BF808B90020D1E7A088ADF8000005
:1042E000E088ADF8020032466946284600F07DF8C5
:1042F00008B90020C3E70120C1E70246B2F9000077
:10430000B1F90430984213DCB2F90400B1F900307D
:1043100098420DDBB2F90200B1F90630984207DC91
:10432000B2F90600B1F90230984201DB0120704772
:104330000020FCE7F8B504460D461646B4F9040023
:10434000B5F90010884211DBB4F90600B5F9021086
:1043500088420BDBB4F90000B5F90410884205DC93
:10436000B4F90200B5F90610884201DD0120F8BD5C
:104370000EB90020FBE72088ADF800006088ADF89A
:10438000020032466946284600F02FF808B10020A6
:10439000EDE7A088ADF800006088ADF80200324675
:1043A0006946284600F021F808B10020DFE72088A0
:1043B000ADF80000E088ADF80200324669462846B4
:1043C00000F013F808B10020D1E7A088ADF8000094
:1043D000E088ADF8020032466946284600F005F84C
:1043E00008B10020C3E70120C1E72DE9FC5F0546C5
:1043F0000E4614464FF0000AB6F90000B5F9001059
:10440000884213DBB6F90000B5F9041088420DDCD0
:10441000B6F90200B5F90210884207DBB6F90200CE
:10442000B5F90610884201DC4FF0010ABAF1000F1D
:1044300002D10020BDE8FC9F002C01DC0120F9E73F
:10444000284612F0C2FD834600EBDB704710284679
:1044500012F02CFD834600EBDB704FEA6008474505
:1044600001DA384600E0404681464C4500DD4C46C6
:104470002888ADF800002888204400B2ADF8040078
:104480006888ADF802006888204400B2ADF80600E4
:10449000002231466846FFF7A8FF80B1BDF804004E
:1044A000204400B2ADF80400BDF80600204400B27C
:1044B000ADF806003146684623F006FDBAE7E88805
:1044C000001B00B2ADF80200E888ADF8060000223B
:1044D00031466846FFF789FF80B1BDF804002044EB
:1044E00000B2ADF80400BDF80200001B00B2ADF848
:1044F00002003146684623F0E7FC9BE7A888001BD2
:1045000000B2ADF80000A888ADF8040000223146E2
:104510006846FFF76AFF80B1BDF80000001B00B2DB
:10452000ADF80000BDF80200001B00B2ADF80200BB
:104530003146684623F0C8FC7CE76888ADF8020085
:104540006888204400B2ADF8060000223146684673
:10455000FFF74BFF80B1BDF80000001B00B2ADF8C3
:104560000000BDF80600204400B2ADF80600314658
:10457000684623F0A9FC5DE701205BE710B5B1F9BF
:104580000030B2F90040A34202DAB1F9003001E094
:10459000B2F900300380B1F90230B2F90240A3420F
:1045A00002DAB1F9023001E0B2F902304380B1F928
:1045B0000430B2F90440A34202DDB1F9043001E055
:1045C000B2F904308380B1F90630B2F90640A34253
:1045D00002DDB1F9063001E0B2F90630C38010BD4A
:1045E0002DE9FF41044626F001FE05460020039018
:1045F00034B14749E0680860204626F087FF03E0B1
:1046000015F026FB4249086041490968086923F012
:10461000EFFA3F480068406920B13D4909684869A0
:1046200023F0E6FA3A490968C86923F0E1FA384903
:104630000968086A23F0DCFA35480068006940B967
:10464000002033490968A1F8500100BF00BFBDE850
:10465000FF8123F003FD29F00FF92D480068B0F821
:10466000500100284BD02A4800680068007CC0F345
:104670004000E8B12648006815F068FB401E06B20D
:104680002348006815F0FCFA401E07B23B460022A2
:10469000114601A8009612F0DDFC01A81C4909682A
:1046A0000968C96B48601A48006805F075FD00BFCD
:1046B0004FF480711648006830301DF0BDFB20219A
:1046C0001348006800F598701DF0B6FB00201049F3
:1046D0000968A1F85001284626F07AFD03900C489D
:1046E00000680068406A50B10949096808680849CB
:1046F000096809684B6A07490A68039998471DF0D9
:1047000013F900F03FF800F007F800BF9FE7000042
:10471000B0000020AC00002010B5002416E0C4EB6F
:10472000C4000C4951F8200030B1C4EBC401094A5F
:1047300052F821001DF0AAF9C4EBC401054A02EBAE
:1047400081001C211DF078FB601CC4B2042CE6DB48
:1047500010BD0000780500200146094A10680BE0F2
:1047600042688A4202D002688A4204D1027E22F064
:104770000102521C027640690028F1D17047000006
:10478000840000207047000010B50421014800F0AB
:1047900020FC10BD9004002010B52021014800F03D
:1047A00018FC10BDA80400202DE9FF4704460D4663
:1047B00016461F46DDE90C896FB9B8F5807F0AD12E
:1047C000002020806080681E00B2A080701E00B2B1
:1047D000E080BDE8FF8700200090019002900390E8
:1047E000ADF80450ADF80A60ADF80C50ADF80E60AD
:1047F0004B4642463946684623F09CFA4B464246B1
:10480000394601A823F096FA4B464246394602A89B
:1048100023F090FA4B464246394603A823F08AFA21
:10482000BDF90000BDF90410884202DABDF90000AC
:1048300001E0BDF90400BDF90810BDF90C2091425A
:1048400002DABDF9081001E0BDF90C1088420BDA5C
:10485000BDF90000BDF90410884202DABDF900007C
:104860000DE0BDF904000AE0BDF90800BDF90C1027
:10487000884202DABDF9080001E0BDF90C00801E93
:1048800000B22080BDF90000BDF90410884202DDAD
:10489000BDF9000001E0BDF90400BDF90810BDF943
:1048A0000C20914202DDBDF9081001E0BDF90C10A9
:1048B00088420BDDBDF90000BDF90410884202DD1D
:1048C000BDF900000DE0BDF904000AE0BDF90800E3
:1048D000BDF90C10884202DDBDF9080001E0BDF908
:1048E0000C00801C00B2A080BDF90210BDF90600CA
:1048F000814202DABDF9020001E0BDF90600BDF90E
:104900000A20BDF90E108A4202DABDF90A1001E050
:10491000BDF90E1088420BDABDF90210BDF9060090
:10492000814202DABDF902000DE0BDF906000AE09D
:10493000BDF90A10BDF90E00814202DABDF90A0084
:1049400001E0BDF90E00801E00B26080BDF90210CA
:10495000BDF90600814202DDBDF9020001E0BDF9AA
:104960000600BDF90A20BDF90E108A4202DDBDF92C
:104970000A1001E0BDF90E1088420BDDBDF90210EE
:10498000BDF90600814202DDBDF902000DE0BDF96E
:1049900006000AE0BDF90A10BDF90E00814202DDF1
:1049A000BDF90A0001E0BDF90E00801C00B2E080F4
:1049B00000BF0EE72DE9F743054616460024134CC9
:1049C00026F014FC8046334629462046019A1AF008
:1049D000CDFC07465FB900BF00BF2C2120461DF06B
:1049E0002BFA4FF00040A0620020BDE8FE830020BB
:1049F000A062E06918B9404626F0EAFBE061E06990
:104A000008B90120E0612046EFE70000CC04002057
:104A100010B51421114800F0DCFA1AF059FC0446D4
:104A200000BF1CB900BF00BF00BFFEE700BF14B944
:104A300000BF00BF10BD0A4920461AF031FD0949E8
:104A400020461AF02FFD084920461AF02DFD07498F
:104A500020461AF023FD00BFECE70000B40400205C
:104A6000E9EA0108BDEF0108DDF10108B1EA01083A
:104A700070B504460D46102128461DF0DDF920686A
:104A80000078012804D1208A2880608A68800CE0A0
:104A900020680078022802D1E068686005E020689C
:104AA0000078042801D10A2068602068406820B19D
:104AB000206829464268904701E000BF00BF70BDF2
:104AC0002DE9FE430446A66AEEB9A18A208A08446D
:104AD00001B2A182E18A608A084401B2E1822046E3
:104AE0000CF0CCFF06460EB9BDE8FE83204610F060
:104AF00061F900220921304619F00EF86078C0F300
:104B0000400000B1F0E7208A10B9608A002870D018
:104B100000200290019094F83C0000F00F00032860
:104B200012D130461FF052FA074630461FF0D6F930
:104B3000804603200090B4F910103B4642463046B0
:104B40000CF090FA029012E030461FF0C1FA0746CE
:104B500030461FF035F980460C200090B4F9121051
:104B600043463A4630460CF07DFA019000BF30468D
:104B70001FF086F9054605F0010028B9BDF90800C7
:104B8000002801DD0020029005F0020028B9BDF9DF
:104B90000800002801DA0020029005F0040028B97E
:104BA000BDF90400002801DD0020019005F0080097
:104BB00028B9BDF90400002801DA0020019001AAFB
:104BC00002A9204629F098FD0023BDF90420BDF973
:104BD0000810304622F084FAA08ABDF80810084474
:104BE00001B2A182E08ABDF80410084401B2E1825A
:104BF00000BF00BF78E72DE9F84F0446D4F828B08D
:104C0000BBF1000F01D1BDE8F88F94F83C0000F033
:104C10000F0000B9F7E71AF0EBFE06463068477E52
:104C20004021584620F0C2FE10B900216183218343
:104C300058461FF039FA804658461FF03FFA05469D
:104C400094F83C0000F00F000C2843D10021218390
:104C50001DBBB4F91A00C7F164014843642190FBFD
:104C6000F1F001B2618358461FF0AAF88146584618
:104C70001FF02EFA82460C200090B4F91A104B4611
:104C8000524658460CF0EEF96083B4F91A2000231E
:104C90001946584622F024FA69E0204629F083FD9F
:104CA0000090002161836A46204629F025FDBDF968
:104CB000003041F6FF72514258460DF087F88146A8
:104CC000BDF80000484402B201230021584622F0FA
:104CD00007FA4CE094F83C0000F00F00032846D19E
:104CE00000216183B8F1000F23D1B4F91800C7F196
:104CF00064014843642190FBF1F001B221835846DE
:104D00001FF0ECF8814658461FF060F982460320F8
:104D10000090B4F9181053464A4658460CF0A2F9D0
:104D20002083B4F9181000231A46584622F0D8F907
:104D30001DE0204629F01CFD009000212183002267
:104D40006946204629F0D8FCBDF9003041F6FF72D3
:104D5000514258460CF0A0FF8146BDF8000048447F
:104D600001B201230022584622F0BAF900BF208B7D
:104D7000002860D1608B00285DD11DBB58461FF014
:104D8000A7F9814658461FF01BF88246B9F1000F7B
:104D900002DCBAF1000F14DDB9F1000F06DA0123CD
:104DA0004A460021584622F09BF90AE0BAF1000F6A
:104DB00007DA0123CAF1000002B20021584622F0AE
:104DC0008FF900BFB8F1000F23D158461FF086F8C5
:104DD000814658461FF0FAF88246B9F1000F02DC0E
:104DE000BAF1000F14DDB9F1000F06DA0123002239
:104DF0004946584622F074F90AE0BAF1000F07DA82
:104E000001230022CAF1000001B2584622F068F9DD
:104E100000BF32460A21584618F07EFE6078C0F383
:104E2000400000B1EFE694F83C0020F00F0184F858
:104E30003C100021A16200BFE5E62DE9FF410446D8
:104E40000F4614B914F004FF04460CB9BDE8FF8105
:104E5000204614F096FF00B9F8E794F82800C0F354
:104E6000800010B100BF00BFF0E71FB90020A4F818
:104E70005001EBE70020ADF80800ADF80A0020462D
:104E800014F0FEFE401E00B2ADF80C00204614F0F7
:104E90005DFF401E00B2ADF80E0002AA394668461A
:104EA000FFF78CF9064606B9D0E72068007CC0F30E
:104EB000400060B102982063039860630120A4F869
:104EC0005001606810B1606826F02CFBBEE72068D6
:104ED000806918B1206869468269904700250BE017
:104EE00004F1300000EBC50100226846FFF7A7F986
:104EF00000B1ABE7681C85B2B4F85001A842EFDC02
:104F0000B4F85001202809DAB4F8502104F1300136
:104F100001EBC200694611F030FF0BE00020A4F85D
:104F20005001B4F8502104F1300101EBC20002A994
:104F300011F023FFB4F85001401CA4F85001606840
:104F400010B1606826F0EEFA00BF7FE770B5054645
:104F5000284600F013F8044600260CE021462846B7
:104F600000F024F806462146284600F086F8204640
:104F70001CF08CFD3446002CF0D170BD014609B9FF
:104F8000002070474868FCE770B5064600243046AC
:104F9000FFF7F4FF054605E0641C2946304600F0A3
:104FA00005F80546002DF7D1204670BD02460B4698
:104FB0001068001D03441868704702460B461068CD
:104FC000034418687047014609B900207047886893
:104FD000FCE7002242608260CA1C22F003010160EB
:104FE000704770B50446216801F108001CF070FCA0
:104FF0000546A5B100222946204627F03DFC29465A
:105000002046626827F02AFC606820B12A462046C4
:10501000616827F031FC6560A06800B9A56028468A
:1050200070BD70B50446216801F108001CF050FC09
:105030000546A5B100222946204627F00FFC294647
:105040002046A26827F018FCA06820B12A46204616
:10505000A16827F003FCA560606800B96560284678
:1050600070BD014609B901207047486818B98868C1
:1050700008B90120F8E70020F6E72DE9F0410446E1
:105080000D460CB9BDE8F0812046FFF777FFA84236
:105090000FD129462046FFF789FF6060606810B98C
:1050A0000020A0602FE000222046616827F0E4FB8A
:1050B00029E02046FFF787FFA8420FD12946204666
:1050C000FFF77BFFA060A06810B9002060601AE0C5
:1050D00000222046A16827F0C1FB14E029462046A3
:1050E000FFF76BFF064629462046FFF75FFF07469E
:1050F0003A463146204627F0B1FB32463946204633
:1051000027F0BAFB00BF00BFBCE710B5044620681B
:10511000806818B12068214682689047206800683E
:1051200028B12068006820602046FFF7EEFF10BD20
:105130000146886818B18868B0F9160070470020E9
:10514000FCE70146886818B18868807E800970474E
:105150000020FCE7F7B582B004460E4614B9049867
:1051600005B0F0BD00BF61223146204620F0DEF8D8
:105170000190019D00BFBDB12868A8B100BF6222A7
:105180003146204620F0D2F801900198C0B207467F
:105190004FB13A462B682846049998470190BDF8CC
:1051A0000400ADF8100000BF0498D9E72DE9F04FD6
:1051B00095B004468B4691469A461E9D608C20F021
:1051C0000400001D6084A4F820902A8959462046D6
:1051D00020F0ACF81490A4F820A02A895946204663
:1051E00020F0A4F81390608C20F004006084DDE9C6
:1051F000131088420CD1DDE91310884208D1BDF8A4
:105200005000BDF84C10884202D115B0BDE8F08FB7
:10521000A4F820902A895946204620F087F8149057
:10522000A4F820A0594620460EF06CFB1290298964
:10523000129A1068149A24F0B3FC28890B2833D1F1
:1052400047F6FF711498884202D0139888422BD1F8
:10525000204620F04EFB009000EBD0704710204617
:1052600020F047FB009000EBD0704FEA600847F653
:10527000FF711498884208D1781C08F10101884216
:1052800000DA01E008F10100149047F6FF7113986D
:10529000884208D1781C08F10101884200DA01E057
:1052A00008F10100139000BF2348FFF79AFE06465D
:1052B00000BF1EB900BF00BF00BFFEE700BF06B9B8
:1052C000A3E71498F0601398306134602889B080A7
:1052D000C6F808B001A810F017FF314601A810F079
:1052E000C5FF164901A810F092FF1548039000BFB2
:1052F000144901A810F099FFFF22002101A810F025
:10530000A5FF298801A810F097FF698801A810F06F
:1053100079FFE868089000BF01A8002190F84220BA
:1053200061F3000280F8422000BF2869079001A8BD
:1053300010F0B4FF00BF68E7C0040020D51F0308C9
:1053400079220308A921030810B514210148FFF7A9
:1053500040FE10BDC00400202DE9FE4F04460F465C
:1053600090464FF0000900254CE1E06800EBC500D5
:105370004068C0F3406000B143E1E16801EBC50162
:10538000496821F07F4022F0F9FB064626EA070033
:1053900008B9012000E00020029026EA080008B9C0
:1053A000012000E000200190DDE90101814270D080
:1053B000E06850F835A04FF0000B6A4610215046C7
:1053C00023F0D6FF10B14FF0010B98E06A4611218F
:1053D000504623F0CDFF10B14FF0010B8FE06A462D
:1053E0001221504623F0C4FF10B14FF0010B86E0AC
:1053F0006A461321504623F0BBFF10B14FF0010B5A
:105400007DE06A461521504623F0B2FF10B14FF0FF
:10541000010B74E06A461421504623F0A9FF10B135
:105420004FF0010B6BE06A460A21504623F0A0FFC3
:1054300010B14FF0010B62E06A466A21504623F03A
:1054400097FF10B14FF0010B59E06A466B215046AF
:1054500023F08EFF10B14FF0010B50E06A4601219E
:10546000504623F085FF10B14FF0010B47E06A462C
:105470000421504623F07CFF10B14FF0010B3EE0B9
:105480006A460221504623F073FF18B14FF0010B1A
:1054900035E0B5E06A460321504623F069FF10B1BC
:1054A0004FF0010B2BE06A460521504623F060FFC8
:1054B00010B14FF0010B22E06A460621504623F05E
:1054C00057FF10B14FF0010B19E06A4632215046E8
:1054D00023F04EFF10B14FF0010B10E06A466D2132
:1054E000504623F045FF10B14FF0010B07E06A462C
:1054F0006C21504623F03CFF08B14FF0010BBBF18B
:10550000000F02D00320BDE8FE8F6A466821504696
:1055100023F02EFF10B14FF0020970E06A466921B6
:10552000504623F025FF10B14FF0020967E06A46AC
:105530006D21504623F01CFF10B14FF002095EE0D0
:105540006A466C21504623F013FF10B14FF0020958
:1055500055E06A463721504623F00AFF10B14FF05C
:1055600002094CE06A463821504623F001FF10B191
:105570004FF0020943E06A463521504623F0F8FE19
:1055800010B14FF002093AE06A464021504623F03C
:10559000EFFE10B14FF0020931E06A464521504656
:1055A00023F0E6FE10B14FF0020928E06A464121DF
:1055B000504623F0DDFE10B14FF002091FE06A46AD
:1055C0004221504623F0D4FE10B14FF0020916E0FC
:1055D0006A464321504623F0CBFE10B14FF002093A
:1055E0000DE06A464921504623F0C2FE10B14FF04B
:1055F000020904E0B9F1000F01D14FF0010900BF29
:1056000000BF6D1C608CC0F3C500A8423FF6ADAE74
:10561000484678E70148006870470000B000002065
:1056200070470146C1F30412072A00DD0722D0B2F9
:105630007047000001464FF6FF70814201D11F20E4
:10564000704709B90020FBE7702902DA0948405C7D
:10565000F6E7A1F1700081B20748006838B1074849
:105660000068814203D204480068405CE8E70020FB
:10567000E6E70000988903081402002028020020B1
:1056800010B518210348FFF7A4FC012025F062FEA5
:1056900010BD00006C0400202DE9F04105460F46C6
:1056A00016460DB9BDE8F0812846FAF73CFE804663
:1056B000394628460A4A126890470746E819314693
:1056C000074A1268904706463C4603E0A019285C4A
:1056D0002855641CA8EB0600A042F7D200BFE1E702
:1056E000580200202DE9F04106460C4617461D469B
:1056F00029463046084A126890472060206830B139
:10570000296888190021044A1268904700E00020A7
:105710003860BDE8F0810000500200202DE9F04F14
:1057200087B004460F4692469846DDE910560DB103
:10573000002028801CB9002007B0BDE8F08F207839
:1057400008B90020F8E70FB90020F5E74FF000098D
:1057500006F0020010B906F0040098B1002000E045
:10576000401C215C0A2905D0215C0D2902D0215C56
:105770000029F5D1215C01B1401C15B14FF0FF317A
:105780002980D9E706F0020008B141F6FF78002031
:105790000690059038E000200490059808B9012093
:1057A00000E0002006A904AACDE90062CDE90210BC
:1057B0000599601843465246394626F033F8834629
:1057C0000498A8EB00000FFA80F8049848440FFAF8
:1057D00080F9BBF1000F00D11CE0059858440590FA
:1057E00020780A2802D020780D2800D112E00598F0
:1057F000205C0A2803D00598205C0D2803D1059869
:10580000401C059006E000BF0598205C10B1B8F17F
:10581000000FC0DC00BF059870B905A92046094AF1
:1058200012689047834635B100225946384618F031
:105830002AFB0FFA80F900BF0DB1A5F8009005987A
:105840007AE70000500200202DE9F047064688461E
:10585000174606B10FB9BDE8F0873046FAF763FD89
:1058600081463846FAF75FFD044604B9F3E704EBD6
:10587000090A414630460B4A126890478046554611
:1058800003E0281B305C70556D1E08EB0400A84235
:10589000F7D906EB0800224639461CF087FA00BF0C
:1058A000D9E7000058020020024600200FA31B7811
:1058B0008B4211D113781BB90123137001200BE027
:1058C0001378012B02D10023137005E01378022B0B
:1058D00002D10023137001201378012B04D1202959
:1058E00001D1022313700120704700002300000043
:1058F00073B582B0064603980190324600210846EF
:10590000019B26F0AFFA0546002001900024681C98
:105910001BF0DEFF044600BF1CB900BF00BF00BF84
:10592000FEE700BF14B9002004B070BD0020605530
:105930003246691C2046039B26F094FA2046F3E782
:105940002DE9F04781460E4614461F46DDF820A09B
:1059500035461BE0600800FB075529464846D047FE
:10596000B0F1000809DD04F0010080F00100C0EB97
:105970005404E8190546064608E0B8F1000F02DABB
:105980006408354602E02846BDE8F087002CE1D1E6
:105990000020F9E72DE9FF4F85B08346DDE9158A40
:1059A000DDE91349DDE91775129E05F00200F8B92B
:1059B0004FB105F0010030B1B9F1000F02D105F08F
:1059C0000C0000B17F1E03E030222046641C3254DC
:1059D000544501D2202CF7D303E030222046641C2A
:1059E000325405F0010018B1BC4201D2202CF4D38E
:1059F00005F01000B0B305F4806050B94CB15445C7
:105A000001D0BC4205D1641E1CB1B8F1100F00D109
:105A1000641EB8F1100F09D105F0200030B9202C18
:105A200004D278222046641C325415E0B8F1100FDD
:105A300009D105F0200030B1202C04D25822204694
:105A4000641C325408E0B8F1020F05D1202C03D2B7
:105A500062222046641C3254202C03D2302220467D
:105A6000641C3254202C16D2B9F1000F04D02D2220
:105A70002046641C32540EE005F0040020B12B22B5
:105A80002046641C325406E005F0080018B12022BC
:105A90002046641C3254CDE90275CDE900645846B5
:105AA00006A90EC900F0A2F809B0BDE8F08F2DE9F3
:105AB000FF4F8FB08046DDE91FABDDE91D96219DCC
:105AC0001C9C00270CB925F0100505F4806000B17E
:105AD000E4B100BFB4FBF6F106FB1141C8B20A28DD
