:020000040800F2
:100000006806002029020008AD0500084105000827
:10001000A9050008E3020008150A00080000000016
:100020000000000000000000000000003107000890
:10003000E702000800000000290600086108000827
:10004000430200084302000843020008430200087C
:100050004302000843020008E902000843020008C6
:10006000430200084302000843020008430200085C
:10007000430200084302000843020008430200084C
:10008000430200084302000843020008430200083C
:10009000430200084302000843020008430200082C
:1000A000430200084302000843020008430200081C
:1000B000430200084302000843020008430200080C
:1000C00043020008430200084302000843020008FC
:1000D00043020008430200084302000843020008EC
:1000E00043020008430200084302000843020008DC
:1000F00043020008430200084302000843020008CC
:1001000043020008430200084302000843020008BB
:1001100043020008430200084302000843020008AB
:10012000430200084302000843020008430200089B
:10013000430200084302000843020008430200088B
:10014000430200084302000843020008430200087B
:10015000430200084302000843020008430200086B
:10016000430200084302000843020008430200085B
:10017000430200084302000843020008430200084B
:10018000430200084302000800F002F800F03CF8C7
:100190000AA090E8000C82448344AAF10107DA45E2
:1001A00001D100F031F8AFF2090EBAE80F0013F0F8
:1001B000010F18BFFB1A43F001031847080900009C
:1001C00028090000103A24BF78C878C1FAD852072D
:1001D00024BF30C830C144BF04680C6070470000C1
:1001E0000023002400250026103A28BF78C1FBD840
:1001F000520728BF30C148BF0B6070471FB500F0E1
:100200005BFC1FBD10B510BD00F031F81146FFF7C3
:10021000F5FF00F029FC00F04FF803B4FFF7F2FF00
:1002200003BC00F057F80000094880470948004720
:10023000FEE7FEE7FEE7FEE7FEE7FEE7FEE7FEE796
:10024000FEE7FEE704480549054A064B70470000F3
:100250006508000889010008680000206806002081
:10026000680200206802002070477047704775469A
:1002700000F02CF8AE4605006946534620F0070012
:10028000854618B020B5FFF7DDFFBDE820404FF0F0
:1002900000064FF000074FF000084FF0000B21F070
:1002A0000701AC46ACE8C009ACE8C009ACE8C0093D
:1002B000ACE8C0098D46704710B50446AFF3008026
:1002C0002046BDE81040FFF7A8BF00000048704777
:1002D0000400002001491820ABBEFEE72600020002
:1002E000704700BFFEE7704710B5012000F05AF8D4
:1002F00080B1052000F090FB0121074800F013F9C0
:1003000028B906480068C0F10100044908600120CE
:1003100000F042F810BD0000000002400000002084
:1003200000B585B00121084600F080F901212020A8
:1003300000F07CF90121880300F098F900208DF885
:1003400008008DF80B000120019001A9114800F070
:100350007FF80021084600F0EDF90120039000200D
:100360008DF810000C208DF8110001208DF812007E
:1003700003A800F023F806208DF800000F208DF868
:10038000010001208DF80300684600F011F905B066
:1003900000BD0000000002400149086070470000F5
:1003A000143C014001460020034A12680A400AB189
:1003B000012000E000207047143C01400021234947
:1003C0008279002A3AD00A46126803689A430B469B
:1003D0001A600A1D126803689A430B1D1A6002799D
:1003E00011440A6803681A430A60184A08321268FE
:1003F00003689A43154B08331A601A1D1268036884
:100400009A43124B0C331A604279102A0ED11A1FEC
:10041000126803681A430D4B08331A601A1D1268DC
:1004200003681A43094B0C331A600DE007494279FF
:1004300011440A6803681A430A6005E0027911440E
:100440000A6803689A430A6070470000003C014054
:10045000F0B50A4600210023002400BF3DE001253D
:1004600005FA01F3156805EA03049C4234D10568D6
:100470004F000326BE40B543056015794E00B540D8
:100480000668354305601579012D02D01579022DD6
:1004900016D185684F000326BE40B5438560557967
:1004A0004E00B540866835438560456801268E401C
:1004B000B5434560456896798E40B6B23543456090
:1004C000C5684F000326BE40B543C560D5794E00D0
:1004D000B540C6683543C560491C1029BFD3F0BD7F
:1004E000F0B5002300244D07ED0E02FA05F3CE10FF
:1004F00000F1200555F826504E07F70E0F26BE4096
:10050000B543CF1000F1200646F82750CE1000F179
:10051000200555F8265045EA0304CE1000F12005C9
:1005200045F82640F0BD0246002013690B400BB190
:10053000012000E00020704741837047018370472D
:1005400000BFFEE71CB50121084600F06FF801204E
:10055000009000208DF804008DF8070069460248DD
:10056000FFF776FF1CBD0000000002401CB5012112
:10057000202000F05BF80121084600F057F84FF406
:100580000070009001208DF8040003208DF8050014
:1005900000208DF806008DF8070069460148FFF736
:1005A00057FF1CBD0014024000BFFEE7704700006B
:1005B00070B5002100230F22C4781CB3174C2468A7
:1005C00004F4E064C4F5E064C4F30721C1F1040459
:1005D000E3B20A4144789C40E1B28478144021435C
:1005E0000C07210E0E4C05786155047804F01F05A8
:1005F0000124AC4005786D11AD0005F1E025C5F88A
:10060000004109E0047804F01F050124AC40054DC9
:100610000678761145F8264070BD00000CED00E02C
:1006200000E400E080E100E07047000029B1064AE4
:1006300012680243044B1A6004E0034A12688243C2
:10064000014B1A60704700003038024029B1064A59
:1006500012680243044B1A6004E0034A12688243A2
:10066000014B1A60704700004038024029B1064A29
:1006700012680243044B1A6004E0034A1268824382
:10068000014B1A60704700004438024000B58BB03F
:1006900001210220FFF7DAFF01210420FFF7C6FF46
:1006A0004020099002208DF8280003208DF82900B1
:1006B00000208DF82A0001208DF82B0009A91A4886
:1006C000FFF7C6FE022206211748FFF709FF532055
:1006D000ADF8040044F61F6002900020ADF806005B
:1006E000ADF80C0001A9114800F052F96020ADF8F6
:1006F00010000120ADF812004FF4FA7006900020AF
:10070000ADF81C0004A9094800F0F8F808210748D2
:1007100000F032F90121054800F0D8F80121034822
:1007200000F0E0F80BB000BD0008024000040040FB
:100730007047000030B500228B071C0F0F2303FA0F
:1007400004F20B4B8C1053F824309343084C8D105B
:1007500044F8253023468C1053F824308C07240F9E
:1007600000FA04F42343024C8D1044F8253030BDC8
:10077000083801400CB50020019000903448006812
:1007800040F480303249086000BF3148006800F40E
:10079000003000900198401C0190009818B9019811
:1007A000B0F5A04FF1D12A48006800F4003010B134
:1007B0000120009001E0002000900098012846D11F
:1007C00023484030006840F08050214940310860A3
:1007D0002048006840F440401E4908601C4808302A
:1007E00000681B49083108600846006840F4004072
:1007F00008600846006840F4A05008601648091FC9
:100800000860081F006840F08070091F086000BF82
:100810000F48006800F000700028F9D040F2057021
:100820000E4908600A480830006820F003000849B3
:10083000083108600846006840F00200086000BF08
:1008400003480830006800F00C000828F8D10CBDFF
:10085000003802400070004008544007003C02404D
:100860007047000010B51548006840F47000134947
:1008700008601348006840F001001149086000203A
:100880000F49083108600E4800680E4908400C49BD
:1008900008600D48091D0860081F006820F48020CA
:1008A000091F0860002006490C310860FFF762FF4D
:1008B0004FF0006001498039086010BD88ED00E00C
:1008C00000380240FFFFF6FE1030002421B10288FC
:1008D00042F08002028004E002884FF67F731A40E3
:1008E0000280704721B1028842F00102028004E0D8
:1008F00002884FF6FE731A400280704770B50024DC
:1009000000220023058C4FF6FE7635400584028CCC
:100910008388048B4FF68F752C40B51E2C400D88B4
:100920002C43751E2A408D892A434D882A43104D39
:10093000A84202D00F4DA84213D14FF6F7752A40B6
:10094000CD892A434FF6FB752A408D882A434FF6FE
:10095000FF652B404FF6FF552B400D8A2B434D8AE8
:100960002B43838004838D684563028470BD00003F
:1009700000000140000401400A460021018B4FF6AF
:10098000F7731940114301837047416370470000BA
:1009900000220288184B98420ED0184B98420BD078
:1009A000B0F1804F08D0164B984205D0154B9842B5
:1009B00002D0154B984204D14FF68F731A404B88E2
:1009C0001A43124B984207D0114B984204D04FF66D
:1009D000FF431A400B891A4302804B68C3620B889D
:1009E0000385054B984202D0044B984201D18B7A83
:1009F0000386012383827047000001400004014008
:100A00000004004000080040000C004000100040BE
:100A10000014004000BFFEE700B5034603E04FF4BA
:100A20007A7000F005F8181EA3F10103F7D100BD9C
:100A300015E000214FF0E0221161A7215161002152
:100A400091610521116100BF4FF0E021096901F4B6
:100A500080310029F8D000214FF0E0221161011E01
:100A6000A0F10100E5D17047FFF710FEFFF77EFD12
:100A7000FFF768FDFFF754FC00BF0C480068012831
:100A800009D141020A48FFF757FD40F6C411094851
:100A9000FFF77BFFF1E74FF400710548FFF74EFDCC
:100AA0004FF4FA710348FFF770FFE6E700000020FB
:100AB00000140240000400404FF04070E1EE100AC4
:100AC00070470000E40A0008000000200400000055
:100AD000C4010008E80A00080400002064060000C1
:080AE000E00100080000000025
:0400000508000229C4
:00000001FF
