:020000040800F2
:100000007806002031020008A505000867050008F1
:10001000A105000883040008BF0C000800000000D0
:100020000000000000000000000000008107000840
:100030008704000800000000350600087108000869
:100040004B0200084B0200084B0200084B0200085C
:100050004B0200084B0200084B0200084B0200084C
:100060004B0200084B0200084B0200084B0200083C
:100070004B0200084B0200084B0200084B0200082C
:100080004B0200084B0200084B0200084B0200081C
:100090004B0200084B0200084B0200084B0200080C
:1000A0004B0200084B0200084B0200084B020008FC
:1000B0004B0200084B0200084B0200084B020008EC
:1000C0004B0200084B0200084B0200084B020008DC
:1000D0004B02000895090008690A00084B02000855
:1000E0004B0200084B0200084B0200084B020008BC
:1000F0004B0200084B0200084B0200084B020008AC
:100100004B0200084B0200084B0200084B0200089B
:100110004B0200084B0200084B0200084B0200088B
:100120004B0200084B0200084B0200084B0200087B
:100130004B0200084B0200084B0200084B0200086B
:100140004B0200084B0200084B0200084B0200085B
:100150004B0200084B0200084B0200084B0200084B
:100160004B0200084B0200084B0200084B0200083B
:100170004B0200084B0200084B0200084B0200082B
:100180004B0200084B02000800F002F800F041F8B2
:100190000AA090E8000C82448344AAF10107DA45E2
:1001A00001D100F036F8AFF2090EBAE80F0013F0F3
:1001B000010F18BFFB1A43F001031847140C00008D
:1001C000340C0000103A24BF78C878C1FAD852071E
:1001D00024BF30C830C144BF04680C6070470000C1
:1001E0000023002400250026103A28BF78C1FBD840
:1001F000520728BF30C148BF0B607047732900F019
:100200000281002070471FB500F0DCFD1FBD10B556
:1002100010BD00F0FCF81146FFF7F5FF00F076FD89
:1002200000F01AF903B4FFF7F2FF03BC00F022F963
:100230000948804709480047FEE7FEE7FEE7FEE77A
:10024000FEE7FEE7FEE7FEE7FEE7FEE704480549B6
:10025000054A064B70470000750800088901000830
:100260007800002078060020780200207802002024
:100270000FB41CB5074B06AA7B446946009005984D
:1002800000F097F80020694600F0A6F81CBC5DF865
:1002900014FB00005D0100002DE9F0410E4604460C
:1002A000002020622046E168884730B3252805D029
:1002B000D4E901219047206A401CF2E7E16820461A
:1002C00000278847050018D0A5F14100192802D859
:1002D00020354FF400673246294620462760FFF755
:1002E0008DFF40B1012804D0F61D26F00706083620
:1002F000D8E7361DD6E72846DAE7206ABDE8F08160
:1003000070B50C460546012A05D02878800600D530
:10031000EA69002302E0012305E05B1C934202D25C
:10032000E05C0028F9D1A869E618C01AA861286A1B
:10033000184428622846AFF3008004E0D5E9012183
:1003400014F8010B9047B442F8D32846AFF300806D
:1003500070BD4FF0000200B5134694469646203912
:1003600022BFA0E80C50A0E80C50B1F12001BFF46E
:10037000F7AF090728BFA0E80C5048BF0CC05DF8D4
:1003800004EB890028BF40F8042B08BF704748BF22
:1003900020F8022B11F0804F18BF00F8012B704796
:1003A000704770477047000001694A1C0261087875
:1003B000704700B58FB0CDE90131002105910549A5
:1003C0007944CDE9031011466846FFF765FF0FB089
:1003D00000BD0000E5FFFFFF0A6802F8010B0A609C
:1003E000704710B5436913B1AFF3008001E0FFF728
:1003F00087FF012010BD127800F124010A7000224D
:100400004A700122EDE711684FF0FF32E9E77546C7
:1004100000F02CF8AE4605006946534620F0070070
:10042000854618B020B5FFF711FFBDE820404FF01A
:1004300000064FF000074FF000084FF0000B21F0CE
:100440000701AC46ACE8C009ACE8C009ACE8C0099B
:10045000ACE8C0098D46704710B50446AFF3008084
:100460002046BDE81040FFF7DDBE000000487047A1
:100470001400002001491820ABBEFEE72600020050
:10048000704700BFFEE77047F0B50A460021002321
:10049000002400BF3DE0012505FA01F3156805EAD7
:1004A00003049C4234D105684F000326BE40B54387
:1004B000056015794E00B54006683543056015792D
:1004C000012D02D01579022D16D185684F00032623
:1004D000BE40B543856055794E00B54086683543CA
:1004E0008560456801268E40B5434560456896792C
:1004F0008E40B6B235434560C5684F000326BE4006
:10050000B543C560D5794E00B540C6683543C56072
:10051000491C1029BFD3F0BDF0B5002300244D07BE
:10052000ED0E02FA05F3CE1000F1200555F8265025
:100530004E07F70E0F26BE40B543CF1000F1200640
:1005400046F82750CE1000F1200555F8265045EA10
:100550000304CE1000F1200545F82640F0BD41838C
:1005600070470183704700BFFEE700001CB5012102
:10057000202000F061F801208DF8040003208DF8A0
:10058000050000208DF806008DF807004FF400707C
:10059000009069460148FFF777FF1CBD0014024038
:1005A00000BFFEE77047000070B5002100230F2256
:1005B000C4781CB3174C246804F4E064C4F5E06408
:1005C000C4F30721C1F10404E3B20A4144789C401A
:1005D000E1B28478144021430C07210E0E4C0578BB
:1005E0006155047804F01F050124AC4005786D11B5
:1005F000AD0005F1E025C5F8004109E0047804F0FC
:100600001F050124AC40054D0678761145F82640BB
:1006100070BD00000CED00E000E400E080E100E0CF
:1006200002490143024A1160704700000000FA05C8
:100630000CED00E07047000029B1064A1268024341
:10064000044B1A6004E0034A12688243014B1A60AB
:10065000704700003038024029B1064A1268024350
:10066000044B1A6004E0034A12688243014B1A608B
:10067000704700004038024029B1064A1268024320
:10068000044B1A6004E0034A12688243014B1A606B
:100690007047000044380240F0B5002100220024D9
:1006A000022500260223324F3F6807F00C0121B1DA
:1006B000042905D0082937D105E02E4F076036E020
:1006C0002D4F076033E02A4F3F1F3F68C7F3805626
:1006D000274F3F1F3F6807F03F036EB1264FB7FB20
:1006E000F3F7DFF88CC0ACF1040CDCF800C0CCF3FD
:1006F000881C07FB0CF40CE01E4FB7FBF3F7DFF888
:1007000070C0ACF1040CDCF800C0CCF3881C07FB13
:100710000CF4174F3F1F3F68C7F301477F1C7D0054
:10072000B4FBF5F7076002E0124F076000BF00BF9F
:100730000F4F3F6807F0F0010909104F7A5C076816
:10074000D74047600A4F3F6807F4E051890A0B4FD2
:100750007A5C4768D7408760054F3F6807F460417F
:10076000490B064F7A5C4768D740C760F0BD000070
:10077000083802400024F40000127A000000002033
:10078000704700000CB500200190009034480068CC
:1007900040F480303249086000BF3148006800F4FE
:1007A000003000900198401C0190009818B9019801
:1007B000B0F5A04FF1D12A48006800F4003010B124
:1007C0000120009001E0002000900098012846D10F
:1007D00023484030006840F0805021494031086093
:1007E0002048006840F440401E4908601C4808301A
:1007F00000681B49083108600846006840F4004062
:1008000008600846006840F4A05008601648091FB8
:100810000860081F006840F08070091F086000BF72
:100820000F48006800F000700028F9D040F2057011
:100830000E4908600A480830006820F003000849A3
:10084000083108600846006840F00200086000BFF8
:1008500003480830006800F00C000828F8D10CBDEF
:10086000003802400070004008544007003C02403D
:100870007047000010B51548006840F47000134937
:1008800008601348006840F001001149086000202A
:100890000F49083108600E4800680E4908400C49AD
:1008A00008600D48091D0860081F006820F48020BA
:1008B000091F0860002006490C310860FFF762FF3D
:1008C0004FF0006001498039086010BD88ED00E0FC
:1008D00000380240FFFFF6FE1030002400B587B05C
:1008E00001210846FFF7A8FE01211020FFF7C4FEF2
:1008F000072209212548FFF70FFE07220A21234876
:10090000FFF70AFE02208DF8040003208DF8050091
:1009100000208DF8060001208DF8070040020090AD
:1009200069461A48FFF7B0FD4FF4806000906946B1
:100930001648FFF7A9FD4FF4E13003900020ADF811
:100940001000ADF81200ADF81400ADF818000C203E
:10095000ADF8160003A90E4800F03EF925208DF8E9
:10096000080000208DF8090001208DF80B0002A876
:10097000FFF71AFE012240F22551054800F006F962
:100980000121034800F0BFF807B000BD000002409D
:100990000010014010B540F22551074800F0CCF896
:1009A00040B1054800F082F9C4B22146024800F087
:1009B00082F900BF10BD00000010014000B587B0F3
:1009C00001210846FFF738FE01214804FFF744FEE5
:1009D000072202212248FFF79FFD0722032120481A
:1009E000FFF79AFD02208DF8040003208DF8050022
:1009F00000208DF8060001208DF807000C200090E3
:100A000069461748FFF740FD4FF416500390002049
:100A1000ADF81000ADF81200ADF81400ADF81800F4
:100A20000C20ADF8160003A90E4800F0D5F82620DA
:100A30008DF8080000208DF8090001208DF80B00CA
:100A400002A8FFF7B1FD012240F22551054800F050
:100A50009DF80121034800F056F807B000BD0000E2
:100A6000000002400044004010B540F225511048FB
:100A700000F055F8D0B10E4800F018F9C4B2214684
:100A80000C4800F018F92CB1012C07D102200A49BA
:100A9000086004E001200849086000E000BF00BFD2
:100AA00040F22551024800F01FF800BF10BD0000C1
:100AB00000440040001001401000002010B5044622
:100AC0000BE02178074800F0F6F8641C00BF802195
:100AD000044800F024F80028F9D020780028F0D14C
:100AE00010BD00000044004010B50022002340F675
:100AF0006A14A14200D100BF0A1201249440A3B29B
:100B0000DC43048010BD21B1828942F4005282810D
:100B100004E082894DF6FF731A40828170470246D5
:100B20000020B1F5007F00D100BF13880B400BB14E
:100B3000012000E00020704770B502460024002329
:100B40000025002040F66A16B14200D100BFC1F373
:100B5000421501F01F03012606FA03F3012D02D10D
:100B60009689334006E0022D02D1168A334001E017
:100B7000968A33400C12012606FA04F41688344093
:100B800013B10CB1012000E0002070BDF0B50346A8
:100B9000002400260025002040F66A17B94200D143
:100BA00000BF1846C1F3421401F01F06012707FADF
:100BB00006F5012C01D10C3004E0022C01D11030DB
:100BC00000E014301AB107682F43076002E007689D
:100BD000AF430760F0BD00002DE9FF4705460E4614
:100BE0000024A14600BFA046B08900B100BF2C8AF6
:100BF00024F44054F08804432C82AC8941F20C6008
:100C00008443B08831890843718908430443AC8127
:100C1000AC8A24F44074B0890443AC826846FFF780
:100C20003BFD2048854202D01F48854202D1DDF8B5
:100C30000C9001E0DDF80890A88900F4004040B174
:100C400009EBC90000EB091031684900B0FBF1F76E
:100C500007E009EBC90000EB091031688900B0FB1F
:100C6000F1F76420B7FBF0F004012009642101FBD7
:100C70001078A88900F4004040B1322000EBC80091
:100C8000B0FBF1F000F00700044308E0322000EB75
:100C900008106421B0FBF1F000F00F0004432C8138
:100CA000BDE8FF870010014000140140014688881C
:100CB000C0F308007047C1F308028280704700BF8C
:100CC000FEE700B5034603E04FF47A7000F005F844
:100CD000181EA3F10103F7D100BD00214FF0E0225F
:100CE0001161A8214143491E5161002191610521F3
:100CF000116100BF4FF0E021096901F48031002942
:100D0000F8D000214FF0E02211617047C0B04FF4DD
:100D10004070FFF785FCFFF7E1FDFFF74FFEFFF79F
:100D200025FC4FF480716846FFF713FB19A0FFF70D
:100D3000C5FE4FF4FA70FFF7C4FF18A219A1684668
:100D4000FFF796FA6846FFF7B9FE4FF4FA70FFF71F
:100D5000B8FF17A0FFF7B2FE4FF4FA70FFF7B1FF2C
:100D600000BF16480068012809D0022810D10102EE
:100D70001348FFF7F4FB00201049086009E04FF426
:100D800000710F48FFF7EDFB00200C49086000E000
:100D900000BFE6E741540D0A000000004D795F42B4
:100DA0004C45000041542B4E414D4525730D0A0022
:100DB00041542B52455345540D0A000010000020A9
:100DC000001402404FF04070E1EE100A704700003E
:100DD000F00D00080000002014000000C40100080D
:100DE000040E00081400002064060000E001000862
:100DF00000000000010203040102030406070809C1
:040E000000000000EE
:0400000508000231BC
:00000001FF
