:020000040800F2
:1000000030060020A1010008EF050008E705000800
:10001000EB05000869040008CF1400080000000088
:10002000000000000000000000000000890E000831
:100030006D0400080000000089060008790F000820
:10004000BB010008BB010008BB010008590D0008F6
:10005000BB010008BB010008BB010008BB01000890
:10006000BB010008BB010008BB010008BB01000880
:10007000BB010008BB010008BB010008BB01000870
:10008000BB010008BB010008BB010008BB01000860
:10009000BB010008BB010008BB010008BB01000850
:1000A000BB010008BB010008BB010008BB01000840
:1000B000BB010008BB010008BB010008BB01000830
:1000C000BB010008BB010008BB010008BB01000820
:1000D000BB0100089D110008BB0100087112000857
:1000E000BB010008BB010008BB010008BB01000800
:1000F000BB010008BB010008BB010008BB010008F0
:10010000BB010008BB010008BB010008BB010008DF
:10011000BB010008BB010008BB010008BB010008CF
:10012000BB010008BB010008BB010008BB010008BF
:10013000BB010008BB010008BB010008BB010008AF
:10014000BB010008BB010008BB010008BB0100089F
:10015000BB010008BB010008BB010008BB0100088F
:10016000BB010008BB010008BB010008BB0100087F
:10017000BB010008BB010008BB010008BB0100086F
:10018000BB010008BB010008DFF810D000F0BCF88C
:1001900000480047451A0008AFF3008030060020F1
:1001A0000648804706480047FEE7FEE7FEE7FEE711
:1001B000FEE7FEE7FEE7FEE7FEE7FEE77D0F00084D
:1001C00089010008D2B201E000F8012B491EFBD2E0
:1001D00070470022F6E710B513460A460446194652
:1001E000FFF7F0FF204610BD30B505462A460B4606
:1001F00012F8010B13F8014B08B1A042F8D01CB162
:10020000002802D06D1CF1E7284630BD70B50F4DB7
:1002100000B92868002412E00A4602E09E4203D09A
:10022000521C1378002BF9D1DAB2224305D02BB13E
:1002300024B1002100F8011B04E00446401C0678AC
:10024000002EE9D12860204670BD0000200000206B
:1002500070B5064601F0CAFA046805460A22002174
:10026000304600F018F82C6070BD30B50B460146E2
:1002700000202022012409E021FA02F59D4205D345
:1002800003FA02F5491B04FA02F52844151EA2F1EF
:100290000102F1DC30BD2DE9F04791460F46804662
:1002A0000446002614F8015B2DB100F03FF8006809
:1002B000405DC007F6D12B2D02D02D2D18D0641E25
:1002C0004A463946204600F035F827B13968A14240
:1002D00001D1C7F8008071054FF002040BD54042F0
:1002E000002803DD01F082FA0460A007BDE8F08772
:1002F00046F48066E4E70028F8DA01F077FA046053
:100300006FF00040F2E70000064C074D06E0E068A1
:1003100040F0010394E8070098471034AC42F6D34C
:10032000FFF736FF401B0008601B000800487047BD
:100330003C1B00082DE9F05F824600780027154637
:100340008B460AF10104B946302801D09DB113E073
:1003500014F8010B0127782803D0582801D045B1A3
:100360000AE00DB1102D07D10027102514F8010B5C
:1003700002E0082500E00A250026B0460EE005FB55
:10038000080005FB06F1012701EB10461FFA80F873
:10039000B6F5803F00D3B94614F8010B294600F0AA
:1003A00018F80028EBDABBF1000F05D00FB1641E7E
:1003B00000E05446CBF80040B9F1000F06D001F040
:1003C00015FA02210160C81EBDE8F09F48EA064008
:1003D000FAE73A2800D2303820F02002412A01D32F
:1003E000A2F13700884201D34FF0FF307047000080
:1003F00000B5C1B04FF4807101A8FFF7EAFE4FF4D9
:1004000000710848FFF7E5FE00200749088007A2B1
:100410000FA101A801F0D6F901A800F067FF41B0D3
:1004200000BD00002C000020100000206136346167
:1004300038633036626435663464663862613033FE
:100440006332303561333663636137650000000025
:10045000636D643D37267569643D25732674797034
:10046000653D320D0A00000000BFFEE77047000046
:100470000149086070470000143C014000212349F5
:100480008279002A3AD00A46126803689A430B46DA
:100490001A600A1D126803689A430B1D1A600279DC
:1004A00011440A6803681A430A60184A083212683D
:1004B00003689A43154B08331A601A1D12680368C3
:1004C0009A43124B0C331A604279102A0ED11A1F2C
:1004D000126803681A430D4B08331A601A1D12681C
:1004E00003681A43094B0C331A600DE0074942793F
:1004F00011440A6803681A430A6005E0027911444E
:100500000A6803689A430A6070470000003C014093
:10051000F0B50A4600210023002400BF3DE001257C
:1005200005FA01F3156805EA03049C4234D1056815
:100530004F000326BE40B543056015794E00B54017
:100540000668354305601579012D02D01579022D15
:1005500016D185684F000326BE40B54385605579A6
:100560004E00B540866835438560456801268E405B
:10057000B5434560456896798E40B6B235434560CF
:10058000C5684F000326BE40B543C560D5794E000F
:10059000B540C6683543C560491C1029BFD3F0BDBE
:1005A000F0B5002300244D07ED0E02FA05F3CE103E
:1005B00000F1200555F826504E07F70E0F26BE40D5
:1005C000B543CF1000F1200646F82750CE1000F1B9
:1005D000200555F8265045EA0304CE1000F1200509
:1005E00045F82640F0BD00BFFEE700BFFEE77047BC
:1005F00070B5002100230F22C4781CB3174C246867
:1006000004F4E064C4F5E064C4F30721C1F1040418
:10061000E3B20A4144789C40E1B28478144021431B
:100620000C07210E0E4C05786155047804F01F0567
:100630000124AC4005786D11AD0005F1E025C5F849
:10064000004109E0047804F01F050124AC40054D89
:100650000678761145F8264070BD00000CED00E0EC
:1006600000E400E080E100E002490143024A116039
:10067000704700000000FA050CED00E00149086237
:100680007047000000000E427047000029B1064A82
:1006900012680243044B1A6004E0034A1268824362
:1006A000014B1A60704700003038024029B1064AF9
:1006B00012680243044B1A6004E0034A1268824342
:1006C000014B1A60704700004038024029B1064AC9
:1006D00012680243044B1A6004E0034A1268824322
:1006E000014B1A607047000044380240F0B5002109
:1006F00000220024022500260223324F3F6807F023
:100700000C0121B1042905D0082937D105E02E4F6D
:10071000076036E02D4F076033E02A4F3F1F3F68E8
:10072000C7F38056274F3F1F3F6807F03F036EB166
:10073000264FB7FBF3F7DFF88CC0ACF1040CDCF804
:1007400000C0CCF3881C07FB0CF40CE01E4FB7FB79
:10075000F3F7DFF870C0ACF1040CDCF800C0CCF3A8
:10076000881C07FB0CF4174F3F1F3F68C7F3014776
:100770007F1C7D00B4FBF5F7076002E0124F0760B5
:1007800000BF00BF0F4F3F6807F0F0010909104F8D
:100790007A5C0768D74047600A4F3F6807F4E0512A
:1007A000890A0B4F7A5C4768D7408760054F3F68DE
:1007B00007F46041490B064F7A5C4768D740C76031
:1007C000F0BD0000083802400024F40000127A0056
:1007D0000000002010B501460022002300204A112D
:1007E000012A02D10A4C236808E0022A03D1084CEE
:1007F0007034236802E0064C7434236801F01F0251
:10080000012494401C400CB1012000E0002010BDE8
:10081000003802400021094A11701170012802D0ED
:10082000042808D103E00121044A117004E00521E5
:10083000024A117000E000BF00BF704770380240EC
:1008400001490860704700003C0E4742002100F457
:100850004072B2F5407F08D1094A116821F4F811BD
:10086000084A02401143064A1160054A683212687C
:10087000C0F30B031A43024B68331A607047000041
:1008800008380240FFFCFF0F014600BF080900EBDB
:100890008000420001F00F001044C0B270470146D2
:1008A000002204E0501CC2B2A1F10A00C1B20A2920
:1008B000F8DA100741EA10607047000000210109D2
:1008C0008AB242F08002044B1B6803F0800363EAA3
:1008D0000202014B1A6070470C28004000B587B037
:1008E00001210807FFF7E2FE0120FFF7C7FE012004
:1008F000FFF790FF00BF4120FFF76CFF0028FAD000
:100900004FF48070FFF7A2FF0120FFF799FF00F07E
:1009100037FA7F200590FF2006900020049004A85D
:1009200000F0F4F825208DF80F0011208DF80D004F
:1009300006208DF80E0004208DF80C0003A901207C
:1009400000F016F903208DF8080001208DF8090049
:1009500000208DF80A0001208DF80B0002A8FFF797
:1009600047FE4FF48000FFF783FD4FF480000090B6
:1009700000208DF8040008208DF8050001208DF876
:1009800006006846FFF77AFD002000F041FA0420D7
:1009900000F026FA002000F0B7F90121880300F0EA
:1009A00083F84FF48040FFF789FF012000F030FA10
:1009B00007B000BD08B50022009200200021104AB7
:1009C000126802F04002CAB9421E0D4B1A6000BF05
:1009D0000B4A126802F04001009A521C0092009AE1
:1009E000B2F5803F01D00029F2D0054A126802F02A
:1009F00040020AB1012002E0002000E0012008BD11
:100A00000C2800400348006820F08000014908607D
:100A1000704700000C28004030B50146002000223D
:100A200000230C4C246804F004020A4C383C24686F
:100A30000C4002EAD13544EA0503064C343C2468F4
:100A400004EA11121BB194B20CB1012000E00020A5
:100A500030BD00004028004070B506460C46002519
:100A60000F4800680F4900EA0105C5F305402070F2
:100A7000C5F30620607005F07F00A07005F48000CB
:100A8000000CE0705EB92078FFF7FEFE2070607801
:100A9000FFF7FAFE6070A078FFF7F6FEA07070BD59
:100AA000002800407F7F7F00CA22174B1A60532224
:100AB0001A6091B1144A1C3A126820F004031A43D8
:100AC000114B1C3B1A60104A1C32126800F00403E0
:100AD0001A430D4B1C331A6011E00B4A1C3A126882
:100AE00020F004039A43084B1C3B1A60064A1C3250
:100AF000126800F004039A43034B1C331A60FF2270
:100B0000014B1A60704700002428004030B50446AD
:100B10000025CA201549086053200860FFF74AFFE6
:100B200000B91DE011481C38006820F040000F4952
:100B30001C39086008460068216808430B491C39C5
:100B400008600A491439A068086008460068A1884E
:100B500040EA0140054914390860FFF753FF0125B9
:100B6000FF2002490860284630BD000024280040CC
:100B70002DE9F04105460C46002600274DB9607866
:100B800000F01000102804D1607820F010000A3026
:100B9000607005B908E06078FFF776FE0646A07839
:100BA000FFF772FE064600BF55B1E0780004617899
:100BB00040EA0120A1780843217840EA413611E05B
:100BC000E078FFF76CFE4FEA00486078FFF767FEB9
:100BD00048EA0028A078FFF762FE48EA000820787B
:100BE00048EA4036CA201249086053200860FFF7DF
:100BF000E1FE08B9002714E00E4830400C492039C6
:100C00000860FFF7FFFE0A481C38006800F020006B
:100C100030B900F0B5F808B9002702E0012700E07C
:100C20000127FF20024908603846BDE8F081000036
:100C3000242800403FFFFF002DE9F04105460C4607
:100C4000002600274DB92E48006800F0400000B192
:100C500002E00020E07000BF0DE02948006800F0CD
:100C6000400020B12078FFF70FFE064602E000208A
:100C7000E07000BF00BF55B120780004617840EA01
:100C80000120A1780843E17840EA014611E020788C
:100C9000FFF705FE4FEA00486078FFF700FE48EADC
:100CA0000028A078FFF7FBFD48EA0008E07848EA52
:100CB0000046CA2012491C31086053200860FFF723
:100CC00079FE08B9002713E00E4830400C49083976
:100CD0000860FFF797FE0A48006800F0200030B96E
:100CE00000F04EF808B9002702E0012700E00127D4
:100CF000FF2003491C3108603846BDE8F081000040
:100D0000082800407F7F7F00CA21054A11605321D7
:100D10001160034910390860FF211160704700001D
:100D20002428004010B506490020FFF795FE04482E
:100D300083784278017803A000F034FD10BD0000F4
:100D40001400002025302E32643A25302E32643AC9
:100D500025302E32640D0A0010B54FF48040FFF7A5
:100D60005BFE48B10120054908608003FFF7A6FD3E
:100D70004FF48000FFF77CFB10BD0000180000203E
:100D800008B50022009200200021CA22134B1A60ED
:100D900053221A60114A183A126822F0A0020F4B2F
:100DA000183B1A6000BF0D4A183A126802F0200181
:100DB000009A521C0092009AB2F5003F01D000291F
:100DC000F1D0064A183A126802F020020AB1012056
:100DD00000E00020FF22014B1A6008BD24280040DB
:100DE000CA210A4A11605321116008491C39096857
:100DF00021F00701054A1C3A1160114609680143B8
:100E00001160FF21014A1160704700002428004052
:100E100018B501460023009300220020CA23194C74
:100E200023605323236049B1164B1C3B1B6843F4DA
:100E30008063144C1C3C236001201FE0114B1C3BC1
:100E40001B6823F480630F4C1C3C236000BF0D4BD8
:100E5000183B1B6803F00402009B5B1C0093009B83
:100E6000B3F5803F01D0002AF1D0064B183B1B6838
:100E700003F004030BB9002000E00120FF23014C24
:100E8000236018BD24280040704700000CB50020E6
:100E9000019000903448006840F480303249086086
:100EA00000BF3148006800F4003000900198401CF9
:100EB0000190009818B90198B0F5A04FF1D12A48D7
:100EC000006800F4003010B10120009001E0002023
:100ED00000900098012846D123484030006840F037
:100EE00080502149403108602048006840F440406B
:100EF0001E4908601C48083000681B49083108601A
:100F00000846006840F4004008600846006840F465
:100F1000A05008601648091F0860081F006840F0CC
:100F20008070091F086000BF0F48006800F0007063
:100F30000028F9D040F205700E4908600A480830D0
:100F4000006820F00300084908310860084600687E
:100F500040F00200086000BF03480830006800F05D
:100F60000C000828F8D10CBD003802400070004089
:100F700008544007003C02407047000010B5154877
:100F8000006840F47000134908601348006840F09E
:100F900001001149086000200F49083108600E481F
:100FA00000680E4908400C4908600D48091D08609A
:100FB000081F006820F48020091F086000200649EF
:100FC0000C310860FFF762FF4FF000600149803983
:100FD000086010BD88ED00E000380240FFFFF6FE1B
:100FE0001030002410B533A13348FFF70FF9044641
:100FF000002C5AD02046FFF72BF9304908700846DC
:1010000001782FA000F0CEFB2C4800780A2190FB3D
:10101000F1F201FB1201294800780A2290FBF2F05C
:1010200001EB00102949087022A10020FFF7EEF81B
:101030000446002C39D02046FFF70AF924490870ED
:101040000846017823A000F0ADFB214800780A2172
:1010500090FBF1F201FB12011D4800780A2290FB7F
:10106000F2F001EB00101949487012A10020FFF7BF
:10107000CDF80446CCB12046FFF7EAF818490870CD
:101080000846017817A000F08DFB154800780A216A
:1010900090FBF1F201FB1201114800780A2290FB4B
:1010A000F2F001EB00100949887008490120FFF7B0
:1010B000C3FD10BD3A0000002C0000201C000020E1
:1010C000686F7572203D2025640D0A001400002011
:1010D0001D0000206D696E203D2025640D0A000072
:1010E0001E000020736563203D2025640D0A00006A
:1010F00010B588B0044601210846FFF7C7FA012160
:101100001020FFF7E3FA072209212248FFF748FAE7
:1011100007220A211F48FFF743FA02208DF8080032
:1011200003208DF8090000208DF80A0001208DF8B9
:101130000B004FF4C060019001A91648FFF7E8F9D1
:1011400004940020ADF81400ADF81600ADF81800B6
:10115000ADF81C000C20ADF81A0004A90E4800F0F0
:1011600043F925208DF80C0000208DF80D0001209A
:101170008DF80F0003A8FFF73BFA012240F225513A
:10118000054800F00CF90121034800F0C5F808B04B
:1011900010BD0000000002400010014010B5002406
:1011A00040F22551064800F0D0F8012807D1044844
:1011B00000F084F9C4B22146014800F084F910BD62
:1011C0000010014010B588B0044601210220FFF74D
:1011D0005DFA01218804FFF769FA07220A212248F3
:1011E000FFF7DEF907220B211F48FFF7D9F902208C
:1011F0008DF8080003208DF8090000208DF80A0002
:1012000001208DF80B004FF44060019001A91648B1
:10121000FFF77EF904940020ADF81400ADF8160035
:10122000ADF81800ADF81C000C20ADF81A0004A9A8
:101230000E4800F0D9F827208DF80C0000208DF81A
:101240000D0001208DF80F0003A8FFF7D1F901224E
:1012500040F22551054800F0A2F80121034800F0B2
:101260005BF808B010BD00000004024000480040D8
:1012700010B540F22551164800F067F8012825D135
:1012800014480088B0F5007F20DA114800F016F904
:10129000C4B210490888411C0E4A11800E490C54F2
:1012A0000E48007890B11046008808280ED10846F4
:1012B00080783A280AD1084640793A2806D1012098
:1012C00007490870044907A000F06CFA10BD00003F
:1012D00000480040100000202C00002013000020D7
:1012E0001200002025730D0A0000000010B504460E
:1012F0000BE000BF8021074800F01AF80028F9D061
:1013000014F8011B034800F0DEF820780028F0D123
:1013100010BD00000048004021B1828942F4005213
:10132000828104E082894DF6FF731A408281704702
:1013300002460020B1F5007F00D100BF13880B40AA
:101340000BB1012000E00020704770B50246002478
:1013500000230025002040F66A16B14200D100BFEC
:10136000C1F3421501F01F03012606FA03F3012D14
:1013700002D19689334006E0022D02D1168A33400D
:1013800001E0968A33400C12012606FA04F416880E
:10139000344013B10CB1012000E0002070BDF0B565
:1013A0000346002400260025002040F66A17B942B3
:1013B00000D100BF1846C1F3421401F01F060127F7
:1013C00007FA06F5012C01D10C3004E0022C01D102
:1013D000103000E014301AB107682F43076002E0B4
:1013E0000768AF430760F0BD2DE9FF4705460E468D
:1013F0000024A14600BFA046B08900B100BF2C8ADE
:1014000024F44054F08804432C82AC8941F20C60EF
:101410008443B08831890843718908430443AC810F
:10142000AC8A24F44074B0890443AC826846FFF768
:101430005DF92048854202D01F48854202D1DDF87F
:101440000C9001E0DDF80890A88900F4004040B15C
:1014500009EBC90000EB091031684900B0FBF1F756
:1014600007E009EBC90000EB091031688900B0FB07
:10147000F1F76420B7FBF0F004012009642101FBBF
:101480001078A88900F4004040B1322000EBC80079
:10149000B0FBF1F000F00700044308E0322000EB5D
:1014A00008106421B0FBF1F000F00F0004432C8120
:1014B000BDE8FF8700100140001401400146888804
:1014C000C0F308007047C1F308028280704700BF74
:1014D000FEE7000010B5A0B0044680216846FEF784
:1014E00078FE2046FFF76EFE35A0FFF7FFFE4FF4B3
:1014F0007A7000F070FA40F6B83132A000F022F9AC
:1015000018B132A000F04EF902E033A000F04AF921
:1015100040F6B83133A000F015F918B136A000F04C
:1015200041F902E039A000F03DF980216846FEF75C
:1015300050FE3BA33DA23EA1684600F043F942F2B3
:101540001071684600F0FEF818B140A000F02AF9CA
:1015500002E043A000F026F940F6B83145A000F0C3
:10156000F1F818B147A000F01DF902E04BA000F01F
:1015700019F980216846FEF72CFE42F298034DA22D
:101580004FA1684600F01EF94FF4FA51684600F08A
:10159000D9F818B151A000F005F902E055A000F00B
:1015A00001F940F6B83159A000F0CCF818B15BA0B1
:1015B00000F0F8F802E05EA000F0F4F820B010BDF2
:1015C0002B2B2B0041540D0A0000000057494649BF
:1015D000D4DACFDF0D0A000057494649C0EBCFDF10
:1015E0000D0A000041542B43574D4F44455F44457D
:1015F000463D330D0A000000C9E8D6C357494649A5
:10160000C4A3CABDB3C9B9A60D0A0000C9E8D6C3B0
:1016100057494649C4A3CABDCAA7B0DC0D0A000099
:101620003132333435363738000000006362000051
:1016300041542B43574A41505F4445463D22257350
:10164000222C222573220D0A00000000574946492A
:10165000C1ACBDD34150B3C9B9A60D0A000000000A
:1016600057494649C1ACBDD34150CAA7B0DC0D0AA9
:101670000000000041542B4349504D4F44453D313B
:101680000D0A0000BFAAC6F457494649CDB8B4AB0D
:10169000C4A3CABDB3C9B9A60D0A0000BFAAC6F447
:1016A00057494649CDB8B4ABC4A3CABDCAA7B0DC3C
:1016B0000D0A000062656D66612E636F6D000000AB
:1016C00041542B43495053544152543D22544350AA
:1016D000222C222573222C25640D0A0057494649E5
:1016E000C1ACBDD3B7FECEF1C6F7B3C9B9A60D0ADA
:1016F0000000000057494649C1ACBDD3B7FECEF14A
:10170000C6F7CAA7B0DC0D0A0000000041542B4305
:10171000495053454E440D0A0000000057494649C0
:10172000BDF8C8EBCDB8B4ABB3C9B9A60D0A00007B
:1017300057494649BDF8C8EBCDB8B4ABCAA7B0DC31
:101740000D0A000070B505460C464FF400711148B3
:10175000FEF73FFD0020104908802846FFF7C6FD30
:101760000DE0012000F037F90CA10A48FEF73CFD1E
:1017700020B90BA10748FEF737FD00B103E0601E5A
:1017800080B2041EEDD100BF002C01DD012070BD30
:101790000020FCE72C000020100000204F4B000030
:1017A0003E0000000FB4054B10B503A9044A02988F
:1017B00000F030F810BC5DF814FB0000211A00089E
:1017C000240000200FB4084B10B504A902AA039806
:1017D00000F020F8044602A9002000F0F7F82046A7
:1017E00010BC5DF814FB0000CD19000800487047DC
:1017F0002800002002E008C8121F08C1002AFAD100
:1018000070477047002001E001C1121F002AFBD180
:10181000704700002DE9FF4F8BB09A460F460546F2
:10182000002606E025280BD052460D9990476D1CE6
:10183000761C28780028F5D10FB03046BDE8F08F2F
:101840000024A0460122604900E0044315F8013F4E
:10185000203B02FA03F00842F7D128782E2817D14E
:1018600015F8010F44F004042A280ED06FF02F025F
:101870002878A0F1300109290AD808EB880102EB89
:10188000410100EB01086D1CF2E757F8048B6D1C59
:10189000287869283ED006DC0028CDD063280BD0FC
:1018A000642804D136E0732810D075284BD05246F6
:1018B0000D999047761C85E017F8040B8DF8000011
:1018C00000208DF80100E946012003E057F8049B51
:1018D0004FF0FF3061074FF0000401D40AE0641CB0
:1018E00044450DDA8442FADB19F804100029F6D1D8
:1018F00006E0641C8442FCDB19F804100029F8D1CE
:10190000264404E019F8010B52460D999047641ED5
:10191000F8D257E001CF4FF00A0B002802DA40421C
:101920002D2102E0210504D52B218DF82410012161
:1019300003E0E10705D02021F7E70DF12009089128
:101940000CE00021F9E701CF4FF00A0BF9E7594607
:10195000FEF78BFC01F1300209F8012D0028F6D1C9
:10196000ADEB090000F1200B600701D44FF0010836
:10197000D84502DDA8EB0B0000E0002080460024E3
:1019800006E009A85246005D0D999047641C761C3C
:1019900008988442F5DB04E0302052460D999047C8
:1019A000761CB8F10001A8F10108F5DC05E019F892
:1019B000010B52460D999047761CBBF10001ABF12B
:1019C000010BF4DC6D1C34E7092801000A68531C84
:1019D0000B601070704700B5034603E04FF47A7057
:1019E00000F005F8181EA3F10103F7D100BD002196
:1019F0004FF0E0221161A8214143491E51610021AD
:101A000091610521116100BF4FF0E021096901F4E6
:101A100080310029F8D000214FF0E0221161704799
:101A200070B504460D4600BF80210548FFF780FCD5
:101A30000028F9D0A1B20248FFF745FD204670BD4D
:101A4000001001404FF44070FEF70EFE4FF4E130FD
:101A5000FFF74EFB4FF4E130FFF73CFDFEF73EFF92
:101A60004FF400710F48FEF7B4FB00200E490880C8
:101A7000FEF7BEFC01200D49087000BF0C4800783D
:101A8000012804D100200A490870FFF7ABFA094881
:101A900000680028F2D0002006490860FFF742F9EC
:101AA000ECE700002C0000201000002013000020B4
:101AB00012000020180000200040404040404040FC
:101AC0004040414141414140404040404040404011
:101AD00040404040404040404005020202020202B5
:101AE0000202020202020202022020202020202004
:101AF0002020200202020202020290909090909018
:101B000010101010101010101010101010101010D5
:101B10001010101002020202020288888888888849
:101B20000808080808080808080808080808080835
:101B3000080808080202020240000000B91A000862
:101B4000601B0008000000202C000000F4170008B3
:101B50008C1B00082C00002004060000041800085C
:101B60000000000001020304010203040607080943
:101B70000000000000000000000000000000000065
:0C1B800000000000000000000000000059
:04000005080001A14D
:00000001FF
