:020000040800F2
:100000008806002031020008FD050008C10500082F
:10001000F9050008C704000853100008000000009C
:10002000000000000000000000000000550900086A
:10003000E1040008000000008D060008A50A000881
:100040004B0200084B0200084B0200084B0200085C
:100050004B0200084B0200084B0200084B0200084C
:100060004B0200084B0200084B0200084B0200083C
:100070004B0200084B0200084B0200084B0200082C
:100080004B0200084B0200084B0200084B0200081C
:100090004B0200084B0200084B0200084B0200080C
:1000A0004B0200084B0200084B0200084B020008FC
:1000B0004B0200084B0200084B0200084B020008EC
:1000C0004B0200084B0200084B0200084B020008DC
:1000D0004B020008110D0008E50D00084B02000856
:1000E0004B0200084B0200084B0200084B020008BC
:1000F0004B0200084B0200084B0200084B020008AC
:100100004B0200084B0200084B0200084B0200089B
:100110004B0200084B0200084B0200084B0200088B
:100120004B0200084B0200084B0200084B0200087B
:100130004B0200084B0200084B0200084B0200086B
:100140004B0200084B0200084B0200084B0200085B
:100150004B0200084B0200084B0200084B0200084B
:100160004B0200084B0200084B0200084B0200083B
:100170004B0200084B0200084B0200084B0200082B
:100180004B0200084B02000800F002F800F041F8B2
:100190000AA090E8000C82448344AAF10107DA45E2
:1001A00001D100F036F8AFF2090EBAE80F0013F0F3
:1001B000010F18BFFB1A43F001031847D00F0000CE
:1001C000F00F0000103A24BF78C878C1FAD852075F
:1001D00024BF30C830C144BF04680C6070470000C1
:1001E0000023002400250026103A28BF78C1FBD840
:1001F000520728BF30C148BF0B607047732900F019
:100200002481002070471FB500F0BAFF1FBD10B554
:1002100010BD00F01EF91146FFF7F5FF00F04EFF8C
:1002200000F03CF903B4FFF7F2FF03BC00F044F91F
:100230000948804709480047FEE7FEE7FEE7FEE77A
:10024000FEE7FEE7FEE7FEE7FEE7FEE704480549B6
:10025000054A064B70470000A90A000889010008FA
:1002600088000020880600208802002088020020E4
:100270000FB41CB5074B06AA7B446946009005984D
:1002800000F0B9F80020694600F0C8F81CBC5DF821
:1002900014FB0000A10100002DE9F0410E460446C8
:1002A000002020622046E168884730B3252805D029
:1002B000D4E901219047206A401CF2E7E16820461A
:1002C00000278847050018D0A5F14100192802D859
:1002D00020354FF400673246294620462760FFF755
:1002E0008DFF40B1012804D0F61D26F00706083620
:1002F000D8E7361DD6E72846DAE7206ABDE8F08160
:1003000070B50C460546012A05D02878800600D530
:10031000EA69002302E0012305E05B1C934202D25C
:10032000E05C0028F9D1A869E618C01AA861286A1B
:10033000184428622846AFF3008004E0D5E9012183
:1003400014F8010B9047B442F8D32846AFF300806D
:1003500070BD4FF000020429C0F0128010F0030CB1
:1003600000F01B80CCF1040CBCF1020F18BF00F8A8
:10037000012BA8BF20F8022BA1EB0C0100F00DB857
:100380005FEAC17C24BF00F8012B00F8012B48BFB5
:1003900000F8012B70474FF0000200B51346944659
:1003A0009646203922BFA0E80C50A0E80C50B1F1CD
:1003B0002001BFF4F7AF090728BFA0E80C5048BFE1
:1003C0000CC05DF804EB890028BF40F8042B08BF7F
:1003D000704748BF20F8022B11F0804F18BF00F87B
:1003E000012B7047704770477047000001694A1C35
:1003F00002610878704700B58FB0CDE90131002166
:10040000059105497944CDE9031011466846FFF787
:1004100043FF0FB000BD0000E5FFFFFF0A6802F8D0
:10042000010B0A60704710B5436913B1AFF3008048
:1004300001E0FFF765FF012010BD127800F12401F3
:100440000A7000224A700122EDE711684FF0FF3276
:10045000E9E7754600F02CF8AE46050069465346BC
:1004600020F00700854618B020B5FFF7EFFEBDE885
:1004700020404FF000064FF000074FF000084FF00B
:10048000000B21F00701AC46ACE8C009ACE8C0099C
:10049000ACE8C009ACE8C0098D46704710B5044609
:1004A000AFF300802046BDE81040FFF7BBBE000060
:1004B000004870472800002001491820ABBEFEE725
:1004C00026000200704700BFFEE7014608784B781F
:1004D00018448B781844CB781844C2B21046704741
:1004E0007047F0B50A4600210023002400BF3DE01C
:1004F000012505FA01F3156805EA03049C4234D18D
:1005000005684F000326BE40B543056015794E00CF
:10051000B5400668354305601579012D02D015797F
:10052000022D16D185684F000326BE40B543856075
:1005300055794E00B540866835438560456801268B
:100540008E40B5434560456896798E40B6B23543D6
:100550004560C5684F000326BE40B543C560D579E8
:100560004E00B540C6683543C560491C1029BFD34D
:10057000F0BDF0B5002300244D07ED0E02FA05F39F
:10058000CE1000F1200555F826504E07F70E0F2625
:10059000BE40B543CF1000F1200646F82750CE10DC
:1005A00000F1200555F8265045EA0304CE1000F16D
:1005B000200545F82640F0BD418370470183704710
:1005C00000BFFEE71CB50121202000F0CDF801207E
:1005D0008DF8040003208DF8050000208DF806003A
:1005E0008DF807004FF40070009069460148FFF74E
:1005F00078FF1CBD0014024000BFFEE770470000FA
:1006000070B5002100230F22C4781CB3174C246856
:1006100004F4E064C4F5E064C4F30721C1F1040408
:10062000E3B20A4144789C40E1B28478144021430B
:100630000C07210E0E4C05786155047804F01F0557
:100640000124AC4005786D11AD0005F1E025C5F839
:10065000004109E0047804F01F050124AC40054D79
:100660000678761145F8264070BD00000CED00E0DC
:1006700000E400E080E100E002490143024A116029
:10068000704700000000FA050CED00E07047000024
:1006900070B504460025207861780844A1780844A4
:1006A000E1780844C6B200BF2078AA2805D0FF250B
:1006B000A078294600F050F970BD6078062805D072
:1006C000FE25A078294600F047F9F5E7204600F01E
:1006D000C2FC28B9FD252179FD2000F03DF9EBE7AA
:1006E0006079BB2805D0FC25A078294600F034F9B4
:1006F000E2E7A07810B1012829D113E0E07830B901
:100700004FF400711648FFF759FF002509E0E07823
:10071000012805D141021248FFF74EFF012500E0F4
:10072000FB2516E0E07830B940F6C4110D4800F022
:100730004EFA00250AE0E078012806D14FF4FA715C
:10074000084800F044FA012500E0FB2501E0FA2505
:1007500000BF00BFA078294600F0FEF800BFABE75D
:10076000001402400004004029B1064A1268024306
:10077000044B1A6004E0034A12688243014B1A607A
:10078000704700003038024029B1064A126802431F
:10079000044B1A6004E0034A12688243014B1A605A
:1007A000704700004038024029B1064A12680243EF
:1007B000044B1A6004E0034A12688243014B1A603A
:1007C0007047000044380240F0B5002100220024A8
:1007D000022500260223324F3F6807F00C0121B1A9
:1007E000042905D0082937D105E02E4F076036E0EF
:1007F0002D4F076033E02A4F3F1F3F68C7F38056F5
:10080000274F3F1F3F6807F03F036EB1264FB7FBEE
:10081000F3F7DFF88CC0ACF1040CDCF800C0CCF3CB
:10082000881C07FB0CF40CE01E4FB7FBF3F7DFF856
:1008300070C0ACF1040CDCF800C0CCF3881C07FBE2
:100840000CF4174F3F1F3F68C7F301477F1C7D0023
:10085000B4FBF5F7076002E0124F076000BF00BF6E
:100860000F4F3F6807F0F0010909104F7A5C0768E5
:10087000D74047600A4F3F6807F4E051890A0B4FA1
:100880007A5C4768D7408760054F3F6807F460414E
:10089000490B064F7A5C4768D740C760F0BD00003F
:1008A000083802400024F40000127A000000002002
:1008B00000B58BB001210220FFF766FF0121042063
:1008C000FFF752FF4020099002208DF828000320F6
:1008D0008DF8290000208DF82A0001208DF82B00CA
:1008E00009A91A48FFF7FDFD022206211748FFF764
:1008F00040FE5320ADF8040044F61F600290002033
:10090000ADF80600ADF80C0001A9114800F062F93D
:100910006020ADF810000120ADF8120040F6C410C0
:1009200006900020ADF81C0004A9094800F008F961
:100930000821074800F042F90121054800F0E8F8D5
:100940000121034800F0F0F80BB000BD00080240A0
:1009500000040040704700002DE9FC4106460C46AB
:100960006F46AA208DF8000006208DF801008DF852
:100970000260BB208DF8050014B18DF8034002E041
:1009800000208DF803006846FFF79FFD8DF80400F6
:1009900000250BE0795D074800F057FB00BF4021C0
:1009A000044800F086FA0028F9D06D1C062DF1D31A
:1009B000BDE8FC81001001400CB5002001900090C2
:1009C0003448006840F480303249086000BF314844
:1009D000006800F4003000900198401C01900098DD
:1009E00018B90198B0F5A04FF1D12A48006800F479
:1009F000003010B10120009001E00020009000982C
:100A0000012846D123484030006840F080502149F9
:100A1000403108602048006840F440401E490860AA
:100A20001C48083000681B49083108600846006807
:100A300040F4004008600846006840F4A050086098
:100A40001648091F0860081F006840F08070091FE1
:100A5000086000BF0F48006800F000700028F9D05F
:100A600040F205700E4908600A480830006820F01E
:100A700003000849083108600846006840F0020099
:100A8000086000BF03480830006800F00C00082828
:100A9000F8D10CBD003802400070004008544007F7
:100AA000003C02407047000010B51548006840F453
:100AB0007000134908601348006840F001001149B4
:100AC000086000200F49083108600E4800680E4990
:100AD00008400C4908600D48091D0860081F00689F
:100AE00020F48020091F0860002006490C310860AE
:100AF000FFF762FF4FF0006001498039086010BDC8
:100B000088ED00E000380240FFFFF6FE10300024C0
:100B100021B1028842F08002028004E002884FF690
:100B20007F731A400280704721B1028842F00102AF
:100B3000028004E002884FF6FE731A40028070477C
:100B400070B5002400220023058C4FF6FE76354058
:100B50000584028C8388048B4FF68F752C40B51E5C
:100B60002C400D882C43751E2A408D892A434D88C0
:100B70002A43104DA84202D00F4DA84213D14FF680
:100B8000F7752A40CD892A434FF6FB752A408D8898
:100B90002A434FF6FF652B404FF6FF552B400D8A39
:100BA0002B434D8A2B43838004838D6845630284E5
:100BB00070BD000000000140000401400A46002111
:100BC000018B4FF6F773194011430183704741635E
:100BD0007047000000220288184B98420ED0184B34
:100BE00098420BD0B0F1804F08D0164B984205D0F8
:100BF000154B984202D0154B984204D14FF68F7393
:100C00001A404B881A43124B984207D0114B984216
:100C100004D04FF6FF431A400B891A4302804B68F9
:100C2000C3620B880385054B984202D0044B98425F
:100C300001D18B7A03860123838270470000014033
:100C4000000401400004004000080040000C004087
:100C5000001000400014004000B587B00121084694
:100C6000FFF782FD01211020FFF79EFD07220921D9
:100C70002548FFF77EFC07220A212348FFF779FC6D
:100C800002208DF8040003208DF8050000208DF867
:100C9000060001208DF807004002009069461A48BE
:100CA000FFF71FFC4FF48060009069461648FFF77D
:100CB00018FC4FF4E13003900020ADF81000ADF8BF
:100CC0001200ADF81400ADF818000C20ADF81600B5
:100CD00003A90E4800F04AF925208DF808000020ED
:100CE0008DF8090001208DF80B0002A8FFF788FCA1
:100CF000012240F22551054800F012F90121034874
:100D000000F0CBF807B000BD000002400010014029
:100D100010B540F22551074800F0D8F840B1054819
:100D200000F08EF9C4B22146024800F08EF900BFEF
:100D300010BD00000010014000B587B00121084639
:100D4000FFF712FD01214804FFF71EFD07220221D3
:100D50002248FFF70EFC072203212048FFF709FC79
:100D600002208DF8040003208DF8050000208DF886
:100D7000060001208DF807000C20009069461748F6
:100D8000FFF7AFFB4FF4165003900020ADF81000B2
:100D9000ADF81200ADF81400ADF818000C20ADF855
:100DA000160003A90E4800F0E1F826208DF808008F
:100DB00000208DF8090001208DF80B0002A8FFF734
:100DC0001FFC012240F22551054800F0A9F801213D
:100DD000034800F062F807B000BD000000000240C8
:100DE0000044004010B540F22551154800F061F86C
:100DF00020B3134800F024F9C4B212480078102838
:100E00000FDA104801780078401C0E4A10700E4826
:100E100044541046007806280AD301200B49087074
:100E200006E000200749087010210748FFF791FAF3
:100E300040F22551024800F021F800BF10BD00002B
:100E4000004400401400002018000020150000207D
:100E500010B504460BE02178074800F0F6F8641C52
:100E600000BF8021044800F024F80028F9D0207841
:100E70000028F0D110BD00000044004010B5002251
:100E8000002340F66A14A14200D100BF0A120124D7
:100E90009440A3B2DC43048010BD21B1828942F4A6
:100EA0000052828104E082894DF6FF731A408281EC
:100EB000704702460020B1F5007F00D100BF1388C3
:100EC0000B400BB1012000E00020704770B50246D6
:100ED000002400230025002040F66A16B14200D10C
:100EE00000BFC1F3421501F01F03012606FA03F308
:100EF000012D02D19689334006E0022D02D1168AD7
:100F0000334001E0968A33400C12012606FA04F4BD
:100F10001688344013B10CB1012000E0002070BDF0
:100F2000F0B50346002400260025002040F66A178D
:100F3000B94200D100BF1846C1F3421401F01F06A8
:100F4000012707FA06F5012C01D10C3004E0022C30
:100F500001D1103000E014301AB107682F43076048
:100F600002E00768AF430760F0BD00002DE9FF47CE
:100F700005460E460024A14600BFA046B08900B138
:100F800000BF2C8A24F44054F08804432C82AC899E
:100F900041F20C608443B088318908437189084369
:100FA0000443AC81AC8A24F44074B0890443AC821D
:100FB0006846FFF709FC2048854202D01F48854259
:100FC00002D1DDF80C9001E0DDF80890A88900F46A
:100FD000004040B109EBC90000EB0910316849003D
:100FE000B0FBF1F707E009EBC90000EB091031682D
:100FF0008900B0FBF1F76420B7FBF0F00401200991
:10100000642101FB1078A88900F4004040B132202F
:1010100000EBC800B0FBF1F000F00700044308E06B
:10102000322000EB08106421B0FBF1F000F00F005B
:1010300004432C81BDE8FF870010014000140140EB
:1010400001468888C0F308007047C1F30802828017
:10105000704700BFFEE730B504462046FFF735FA7B
:1010600005462079A84201D1012030BD0020FCE7CF
:1010700000B5034603E04FF47A7000F005F8181E3F
:10108000A3F10103F7D100BD00214FF0E02211616F
:10109000A8214143491E516100219161052111613F
:1010A00000BF4FF0E021096901F480310029F8D038
:1010B00000214FF0E022116170470000C0B04FF4F2
:1010C0004070FFF7D9FAFFF7C7FDFFF735FEFFF7CE
:1010D00079FAFFF7EDFB4FF480716846FFF75BF993
:1010E0001AA0FFF7B5FE4FF4FA70FFF7C1FF19A27F
:1010F0001AA16846FFF7BCF86846FFF7A9FE4FF44F
:10110000FA70FFF7B5FF18A0FFF7A2FE4FF4FA70D0
:10111000FFF7AEFF10211748FFF71BF90020164913
:1011200008701649087000BF144800780028FBD0EA
:101130001048FFF7ADFA00200F4908700F490870FA
:1011400010210C48FFF705F9EEE7000041540D0AA5
:10115000000000004D795F424C45000041542B4E89
:10116000414D4525730D0A0041542B5245534554BA
:101170000D0A0000180000201400002015000020B7
:101180004FF04070E1EE100A70470000AC1100080B
:101190000000002018000000C4010008C41100086D
:1011A0001800002070060000E001000800000000A8
:1011B00001020304010203040607080900000000FD
:0411C000000000002B
:0400000508000231BC
:00000001FF
