:020000040800F2
:1000000018060020A1010008F50400086B04000890
:10001000F10400088F030008D70A00080000000060
:10002000000000000000000000000000B106000811
:10003000930300080000000085050008A1070008E0
:10004000BB010008BB010008BB010008BB010008A0
:10005000BB010008BB010008BB010008BB01000890
:10006000BB010008BB010008BB010008BB01000880
:10007000BB010008BB010008BB010008BB01000870
:10008000BB010008BB010008BB010008BB01000860
:10009000BB010008BB010008BB010008BB01000850
:1000A000BB010008BB010008BB010008BB01000840
:1000B000BB010008BB010008BB010008BB01000830
:1000C000BB010008BB010008BB010008BB01000820
:1000D000BB010008B9080008BB010008E1080008DE
:1000E000BB010008BB010008BB010008BB01000800
:1000F000BB010008BB010008BB010008BB010008F0
:10010000BB010008BB010008BB010008BB010008DF
:10011000BB010008BB010008BB010008BB010008CF
:10012000BB010008BB010008BB010008BB010008BF
:10013000BB010008BB010008BB010008BB010008AF
:10014000BB010008BB010008BB010008BB0100089F
:10015000BB010008BB010008BB010008BB0100088F
:10016000BB010008BB010008BB010008BB0100087F
:10017000BB010008BB010008BB010008BB0100086F
:10018000BB010008BB010008DFF810D000F030F818
:1001900000480047E10C0008AFF30080180600207B
:1001A0000648804706480047FEE7FEE7FEE7FEE711
:1001B000FEE7FEE7FEE7FEE7FEE7FEE7A50700082D
:1001C0008901000830B50B46014600202022012499
:1001D00009E021FA02F59D4205D303FA02F5491B15
:1001E00004FA02F52844151EA2F10102F1DC30BD2B
:1001F000064C074D06E0E06840F0010394E8070074
:1002000098471034AC42F6D3FFF7C2FF400D000808
:10021000600D000821B1826842F00102826003E0B3
:10022000826822F001028260704700000021084AC3
:100230001168084A1140D0E900231A4383681A4321
:10024000C3681A431143044AC2F8041370470000FC
:1002500004230140E030FCFF002001400146C86C4F
:1002600080B270470246002013680B400BB101209A
:1002700000E000207047000030B502460020002357
:100280005068104C20400D790C6844EA0524204346
:10029000506090680C4C2040D1E903542C438D6889
:1002A0002C434D7944EA450420439060D06A20F401
:1002B00070000C7D641EE4B2234340EA0350D06218
:1002C00030BD0000FFFEFFFCFDF7FFC0F0B50446A7
:1002D0000D4600200021092D11DDE068A5F10A0678
:1002E00006EB4607072606FA07F18843A5F10A063A
:1002F00006EB460603FA06F10843E0600CE02069CD
:1003000005EB4507072606FA07F1884305EB450686
:1003100003FA06F108432061072A0FDA606B561EC4
:1003200006EB86071F2606FA07F18843561E06EBE2
:10033000860605FA06F10843606322E00D2A0FDA0B
:10034000206BD61F06EB86071F2606FA07F18843A7
:10035000D61F06EB860605FA06F10843206310E077
:10036000E06AA2F10D0606EB86071F2606FA07F1E2
:100370008843A2F10D0606EB860605FA06F108434E
:10038000E062F0BD816841F080418160704700BF4C
:10039000FEE77047F0B50A4600210023002400BFA5
:1003A0003DE0012505FA01F3156805EA03049C42C6
:1003B00034D105684F000326BE40B543056015796A
:1003C0004E00B5400668354305601579012D02D011
:1003D0001579022D16D185684F000326BE40B5431E
:1003E000856055794E00B54086683543856045681F
:1003F00001268E40B5434560456896798E40B6B279
:1004000035434560C5684F000326BE40B543C5600F
:10041000D5794E00B540C6683543C560491C1029E2
:10042000BFD3F0BDF0B5002300244D07ED0E02FA56
:1004300005F3CE1000F1200555F826504E07F70EB3
:100440000F26BE40B543CF1000F1200646F82750D6
:10045000CE1000F1200555F8265045EA0304CE10D1
:1004600000F1200545F82640F0BD00BFFEE7000082
:1004700000B58DB00121880200F096F801212020FE
:1004800000F082F880200B9003208DF830000020CF
:100490008DF833000BA91448FFF77CFF002007906C
:1004A0004FF480300890002009900A9007A8FFF7C9
:1004B000BDFE002001908DF808008DF80900039022
:1004C000059001208DF8180001A90848FFF7D4FE17
:1004D0000023012205210548FFF7F8FE012103480A
:1004E000FFF798FE0DB000BD00140240002201404D
:1004F00000BFFEE77047000070B5002100230F2207
:10050000C4781CB3174C246804F4E064C4F5E064B8
:10051000C4F30721C1F10404E3B20A4144789C40CA
:10052000E1B28478144021430C07210E0E4C05786B
:100530006155047804F01F050124AC4005786D1165
:10054000AD0005F1E025C5F8004109E0047804F0AC
:100550001F050124AC40054D0678761145F826406C
:1005600070BD00000CED00E000E400E080E100E080
:1005700002490143024A1160704700000000FA0579
:100580000CED00E07047000029B1064A12680243F2
:10059000044B1A6004E0034A12688243014B1A605C
:1005A000704700003038024029B1064A1268024301
:1005B000044B1A6004E0034A12688243014B1A603C
:1005C0007047000044380240F0B5002100220024AA
:1005D000022500260223324F3F6807F00C0121B1AB
:1005E000042905D0082937D105E02E4F076036E0F1
:1005F0002D4F076033E02A4F3F1F3F68C7F38056F7
:10060000274F3F1F3F6807F03F036EB1264FB7FBF0
:10061000F3F7DFF88CC0ACF1040CDCF800C0CCF3CD
:10062000881C07FB0CF40CE01E4FB7FBF3F7DFF858
:1006300070C0ACF1040CDCF800C0CCF3881C07FBE4
:100640000CF4174F3F1F3F68C7F301477F1C7D0025
:10065000B4FBF5F7076002E0124F076000BF00BF70
:100660000F4F3F6807F0F0010909104F7A5C0768E7
:10067000D74047600A4F3F6807F4E051890A0B4FA3
:100680007A5C4768D7408760054F3F6807F4604150
:10069000490B064F7A5C4768D740C760F0BD000041
:1006A000083802400024F40000127A000000002004
:1006B000704700000CB5002001900090344800689D
:1006C00040F480303249086000BF3148006800F4CF
:1006D000003000900198401C0190009818B90198D2
:1006E000B0F5A04FF1D12A48006800F4003010B1F5
:1006F0000120009001E0002000900098012846D1E0
:1007000023484030006840F0805021494031086063
:100710002048006840F440401E4908601C480830EA
:1007200000681B49083108600846006840F4004032
:1007300008600846006840F4A05008601648091F89
:100740000860081F006840F08070091F086000BF43
:100750000F48006800F000700028F9D040F20570E2
:100760000E4908600A480830006820F00300084974
:10077000083108600846006840F00200086000BFC9
:1007800003480830006800F00C000828F8D10CBDC0
:10079000003802400070004008544007003C02400E
:1007A0007047000010B51548006840F47000134908
:1007B00008601348006840F00100114908600020FB
:1007C0000F49083108600E4800680E4908400C497E
:1007D00008600D48091D0860081F006820F480208B
:1007E000091F0860002006490C310860FFF762FF0E
:1007F0004FF0006001498039086010BD88ED00E0CD
:1008000000380240FFFFF6FE1030002410B588B01B
:10081000044601210846FFF7B7FE01211020FFF72B
:10082000C3FE072209212248FFF7FCFD07220A2107
:100830001F48FFF7F7FD02208DF8080003208DF810
:10084000090000208DF80A0001208DF80B004FF4FC
:10085000C060019001A91648FFF79CFD0494002098
:10086000ADF81400ADF81600ADF81800ADF81C0096
:100870000C20ADF81A0004A90E4800F0B9F82520A4
:100880008DF80C0000208DF80D0001208DF80F0070
:1008900003A8FFF731FE012240F22551054800F080
:1008A00082F80121034800F03BF808B010BD0000B9
:1008B000000002400010014010B5002440F2255114
:1008C000064800F046F8012807D1044800F0FAF87D
:1008D000C4B22146014800F0FAF810BD00100140F2
:1008E00010B540F225510B4800F033F801280FD124
:1008F00009480088B0F5007F0ADA064800F0E2F8FF
:10090000C1B205480488601C034A108003480155A1
:1009100010BD00000048004010000020180000201A
:1009200021B1828942F40052828104E082894DF62D
:10093000FF731A408281704702460020B1F5007FA4
:1009400000D100BF13880B400BB1012000E0002054
:10095000704770B50246002400230025002040F6B1
:100960006A16B14200D100BFC1F3421501F01F0366
:10097000012606FA03F3012D02D19689334006E0E1
:10098000022D02D1168A334001E0968A33400C12C0
:10099000012606FA04F41688344013B10CB1012084
:1009A00000E0002070BDF0B50346002400260025BD
:1009B000002040F66A17B94200D100BF1846C1F3C3
:1009C000421401F01F06012707FA06F5012C01D198
:1009D0000C3004E0022C01D1103000E014301AB1C8
:1009E00007682F43076002E00768AF430760F0BD68
:1009F0002DE9FF4705460E460024A14600BFA0464C
:100A0000B08900B100BF2C8A24F44054F08804431C
:100A10002C82AC8941F20C608443B0883189084350
:100A2000718908430443AC81AC8A24F44074B089D2
:100A30000443AC826846FFF7C7FD2048854202D0D8
:100A40001F48854202D1DDF80C9001E0DDF80890E6
:100A5000A88900F4004040B109EBC90000EB09107F
:100A600031684900B0FBF1F707E009EBC90000EB82
:100A7000091031688900B0FBF1F76420B7FBF0F092
:100A800004012009642101FB1078A88900F40040CA
:100A900040B1322000EBC800B0FBF1F000F00700DD
:100AA000044308E0322000EB08106421B0FBF1F0B1
:100AB00000F00F0004432C81BDE8FF8700100140C7
:100AC0000014014001468888C0F308007047C1F354
:100AD00008028280704700BFFEE700000FB4054B9C
:100AE00010B503A9044A029800F018F810BC5DF88C
:100AF00014FB0000BD0C00081400002002E008C830
:100B0000121F08C1002AFAD170477047002001E087
:100B100001C1121F002AFBD1704700002DE9FF4FD1
:100B200089B09B460446002506E025280BD05A468E
:100B30000B999047641C6D1C20780028F5D10DB0EE
:100B40002846BDE8F08F0027B8460122474900E05B
:100B5000074314F8013F203B02FA03F00842F7D1A3
:100B600020782E2819D114F8010F47F004072A28FD
:100B70000ED06FF02F022078A0F1300109290CD897
:100B800008EB880102EB410100EB0108641CF2E76D
:100B90000A98641C50F8048B0A9020780028CED064
:100BA000642808D0692806D075281ED05A460B99AB
:100BB00090476D1C58E00A994FF00A0901C90A9143
:100BC000002802DA40422D2102E0390504D52B210C
:100BD0008DF82010012103E0F90704D02021F7E768
:100BE0008A4608AE0DE00021FAE70A994FF00A099B
:100BF00001C90A91F7E74946FFF7E4FA303106F8F0
:100C0000011D0028F7D1ADEB060000F1200978079F
:100C100001D44FF00108C84502DDA8EB090000E04F
:100C200000208046002706E008A85A46C05D0B99C0
:100C300090476D1C7F1C5745F6DB04E030205A4678
:100C40000B9990476D1CB8F10001A8F10108F5DC83
:100C500005E016F8010B5A460B9990476D1CB9F147
:100C60000001A9F10109F4DC641C65E70928010011
:100C700000B5034603E04FF47A7000F005F8181E43
:100C8000A3F10103F7D100BD00214FF0E022116173
:100C9000A8214143491E5161002191610521116143
:100CA00000BF4FF0E021096901F480310029F8D03C
:100CB00000214FF0E02211617047000070B504463A
:100CC0000D4600BF80210548FFF736FE0028F9D009
:100CD000A1B20248FFF7FBFE204670BD00100140A4
:100CE0004FF44070FFF744FC4FF4E130FFF78EFD06
:100CF000FFF7BEFB002400BF0B48FFF743FB00BF1C
:100D000002210948FFF7AEFA0028F9D00648FFF79C
:100D1000A5FA0446214605A0FFF7E0FE4FF4FA705D
:100D2000FFF7A6FFE8E70000002201406C69676852
:100D3000745F76616C203D2025640D0A0000000080
:100D4000600D00080000002018000000FC0A0008E8
:100D5000780D000818000020000600000C0B0008A9
:100D60000000000001020304010203040607080951
:080D700000000000000000007B
:04000005080001A14D
:00000001FF
