:020000040800F2
:10000000600600200D020008990300089103000813
:1000100095030008C7020008190500080000000049
:10002000000000000000000000000000BD03000808
:10003000CB020008000000009B030008AD0400088C
:1000400027020008270200082702000827020008EC
:1000500027020008270200082702000827020008DC
:1000600027020008270200082702000827020008CC
:1000700027020008270200082702000827020008BC
:1000800027020008270200082702000827020008AC
:10009000270200082702000827020008270200089C
:1000A000270200082702000827020008270200088C
:1000B000270200082702000827020008270200087C
:1000C000270200082702000827020008270200086C
:1000D000270200082702000827020008270200085C
:1000E000270200082702000827020008270200084C
:1000F000270200082702000827020008270200083C
:10010000270200082702000827020008270200082B
:10011000270200082702000827020008270200081B
:10012000270200082702000827020008270200080B
:1001300027020008270200082702000827020008FB
:1001400027020008270200082702000827020008EB
:1001500027020008270200082702000827020008DB
:1001600027020008270200082702000827020008CB
:1001700027020008270200082702000827020008BB
:10018000270200082702000800F002F800F02EF80D
:100190000AA090E8000C82448344AAF10107DA45E2
:1001A00001D100F023F8AFF2090EBAE80F0013F006
:1001B000010F18BFFB1A43F0010318472404000085
:1001C000340400000023002400250026103A28BF34
:1001D00078C1FBD8520728BF30C148BF0B607047B9
:1001E0001FB500F0F7F91FBD10B510BD00F031F8D4
:1001F0001146FFF7F5FF00F0B7F900F04FF803B430
:10020000FFF7F2FF03BC00F057F8000009488047F1
:1002100009480047FEE7FEE7FEE7FEE7FEE7FEE7E8
:10022000FEE7FEE7FEE7FEE704480549054A064B00
:1002300070470000B1040008890100086000002038
:1002400060060020600200206002002070477047B6
:100250007047754600F02CF8AE46050069465346D7
:1002600020F00700854618B020B5FFF7DDFFBDE898
:1002700020404FF000064FF000074FF000084FF00D
:10028000000B21F00701AC46ACE8C009ACE8C0099E
:10029000ACE8C009ACE8C0098D46704710B504460B
:1002A000AFF300802046BDE81040FFF7A8BF000074
:1002B000004870470000002001491820ABBEFEE74F
:1002C00026000200704700BFFEE770471CB5012101
:1002D000042000F063F801208DF8040000208DF860
:1002E00007004020009003208DF8050000208DF8C5
:1002F00006006946014800F003F81CBD00080240F2
:10030000F0B50A4600210023002400BF3DE001258E
:1003100005FA01F3156805EA03049C4234D1056827
:100320004F000326BE40B543056015794E00B54029
:100330000668354305601579012D02D01579022D27
:1003400016D185684F000326BE40B54385605579B8
:100350004E00B540866835438560456801268E406D
:10036000B5434560456896798E40B6B235434560E1
:10037000C5684F000326BE40B543C560D5794E0021
:10038000B540C6683543C560491C1029BFD3F0BDD0
:1003900000BFFEE700BFFEE77047704729B1064A7D
:1003A00012680243044B1A6004E0034A1268824355
:1003B000014B1A607047000030380240704700005F
:1003C0000CB50020019000903448006840F4803063
:1003D0003249086000BF3148006800F400300090E6
:1003E0000198401C0190009818B90198B0F5A04FF1
:1003F000F1D12A48006800F4003010B101200090CB
:1004000001E0002000900098012846D123484030A8
:10041000006840F080502149403108602048006861
:1004200040F440401E4908601C48083000681B49E1
:10043000083108600846006840F40040086008463B
:10044000006840F4A05008601648091F0860081FA3
:10045000006840F08070091F086000BF0F48006806
:1004600000F000700028F9D040F205700E490860D5
:100470000A480830006820F0030008490831086085
:100480000846006840F00200086000BF03480830DA
:10049000006800F00C000828F8D10CBD00380240BC
:1004A0000070004008544007003C024070470000C4
:1004B00010B51548006840F47000134908601348EF
:1004C000006840F001001149086000200F49083120
:1004D00008600E4800680E4908400C4908600D4845
:1004E000091D0860081F006820F48020091F0860AB
:1004F000002006490C310860FFF762FF4FF00060F2
:1005000001498039086010BD88ED00E000380240E4
:10051000FFFFF6FE1030002400BFFEE700B50346E3
:1005200003E04FF47A7000F005F8181EA3F1010300
:10053000F7D100BD00214FF0E0221161A821414315
:10054000491E5161002191610521116100BF4FF0E9
:10055000E021096901F480310029F8D000214FF031
:10056000E022116170470000FFF7B0FE00BF40209D
:10057000174908800220FFF7D1FF4FF4FA70FFF708
:10058000D9FF40201249891C08801120FFF7C6FFBF
:100590004FF4FA70FFF7CEFF4FF47A70FFF7BEFF0B
:1005A00040200B4908804FF4FA70FFF7C3FF40204A
:1005B0000749891C08801320FFF7B0FF4FF4FA7039
:1005C000FFF7B8FF4FF47A70FFF7A8FFCFE70000FE
:1005D000180802404FF04070E1EE100A704700002A
:1005E000F00500080000002060060000C4010008BB
:040000050800020DE0
:00000001FF
