:020000040800F2
:100000006806002029020008C7030008BF03000893
:10001000C3030008E3020008C9080008000000004C
:10002000000000000000000000000000290500089A
:10003000E70200080000000041040008190600085B
:10004000430200084302000843020008430200087C
:10005000430200084302000843020008430200086C
:10006000430200084302000843020008430200085C
:10007000430200084302000843020008430200084C
:10008000430200084302000843020008430200083C
:10009000430200084302000843020008430200082C
:1000A000430200084302000843020008430200081C
:1000B000430200084302000843020008430200080C
:1000C00043020008430200084302000843020008FC
:1000D00043020008430200084302000843020008EC
:1000E00043020008430200084302000843020008DC
:1000F00043020008430200084302000843020008CC
:1001000043020008430200084302000843020008BB
:100110004302000843020008E10600084302000809
:10012000430200084302000843020008430200089B
:10013000430200084302000843020008430200088B
:10014000430200084302000843020008430200087B
:10015000430200084302000843020008430200086B
:10016000430200084302000843020008430200085B
:10017000430200084302000843020008430200084B
:10018000430200084302000800F002F800F03CF8C7
:100190000AA090E8000C82448344AAF10107DA45E2
:1001A00001D100F031F8AFF2090EBAE80F0013F0F8
:1001B000010F18BFFB1A43F001031847280700007E
:1001C00048070000103A24BF78C878C1FAD852070F
:1001D00024BF30C830C144BF04680C6070470000C1
:1001E0000023002400250026103A28BF78C1FBD840
:1001F000520728BF30C148BF0B6070471FB500F0E1
:100200006BFB1FBD10B510BD00F031F81146FFF7B4
:10021000F5FF00F05BFB00F04FF803B4FFF7F2FFCF
:1002200003BC00F057F80000094880470948004720
:10023000FEE7FEE7FEE7FEE7FEE7FEE7FEE7FEE796
:10024000FEE7FEE704480549054A064B70470000F3
:100250001D060008890100086800002068060020CB
:10026000680200206802002070477047704775469A
:1002700000F02CF8AE4605006946534620F0070012
:10028000854618B020B5FFF7DDFFBDE820404FF0F0
:1002900000064FF000074FF000084FF0000B21F070
:1002A0000701AC46ACE8C009ACE8C009ACE8C0093D
:1002B000ACE8C0098D46704710B50446AFF3008026
:1002C0002046BDE81040FFF7A8BF00000048704777
:1002D0000800002001491820ABBEFEE726000200FE
:1002E000704700BFFEE77047F0B50A4600210023C3
:1002F000002400BF3DE0012505FA01F3156805EA79
:1003000003049C4234D105684F000326BE40B54328
:10031000056015794E00B5400668354305601579CE
:10032000012D02D01579022D16D185684F000326C4
:10033000BE40B543856055794E00B540866835436B
:100340008560456801268E40B543456045689679CD
:100350008E40B6B235434560C5684F000326BE40A7
:10036000B543C560D5794E00B540C6683543C56014
:10037000491C1029BFD3F0BDF0B5002300244D0760
:10038000ED0E02FA05F3CE1000F1200555F82650C7
:100390004E07F70E0F26BE40B543CF1000F12006E2
:1003A00046F82750CE1000F1200555F8265045EAB2
:1003B0000304CE1000F1200545F82640F0BD00BF33
:1003C000FEE700BFFEE7704770B5002100230F2253
:1003D000C4781CB3174C246804F4E064C4F5E064EA
:1003E000C4F30721C1F10404E3B20A4144789C40FC
:1003F000E1B28478144021430C07210E0E4C05789D
:100400006155047804F01F050124AC4005786D1196
:10041000AD0005F1E025C5F8004109E0047804F0DD
:100420001F050124AC40054D0678761145F826409D
:1004300070BD00000CED00E000E400E080E100E0B1
:100440007047000029B1064A12680243044B1A6043
:1004500004E0034A12688243014B1A6070470000AF
:100460003038024029B1064A12680243044B1A6030
:1004700004E0034A12688243014B1A60704700008F
:100480004038024000B58BB001210220FFF7EAFF9F
:1004900001210420FFF7D6FF4020099002208DF8AB
:1004A000280003208DF8290000208DF82A00012063
:1004B0008DF82B0009A91A48FFF716FF0222062122
:1004C0001748FFF759FF5320ADF8040044F61F60AA
:1004D00002900020ADF80600ADF80C0001A911480B
:1004E00000F0B0F96020ADF810000120ADF8120066
:1004F0004FF4FA7006900020ADF81C0004A90948DA
:1005000000F056F90821074800F090F9012105484C
:1005100000F018F90121034800F023F90BB000BDE9
:100520000008024000040040704700000CB50020A5
:10053000019000903448006840F4803032490860EF
:1005400000BF3148006800F4003000900198401C62
:100550000190009818B90198B0F5A04FF1D12A4840
:10056000006800F4003010B10120009001E000208C
:1005700000900098012846D123484030006840F0A0
:1005800080502149403108602048006840F44040D4
:100590001E4908601C48083000681B490831086083
:1005A0000846006840F4004008600846006840F4CF
:1005B000A05008601648091F0860081F006840F036
:1005C0008070091F086000BF0F48006800F00070CD
:1005D0000028F9D040F205700E4908600A4808303A
:1005E000006820F0030008490831086008460068E8
:1005F00040F00200086000BF03480830006800F0C7
:100600000C000828F8D10CBD0038024000700040F2
:1006100008544007003C02407047000010B51548E0
:10062000006840F47000134908601348006840F007
:1006300001001149086000200F49083108600E4888
:1006400000680E4908400C4908600D48091D086003
:10065000081F006820F48020091F08600020064958
:100660000C310860FFF762FF4FF0006001498039EC
:10067000086010BD88ED00E000380240FFFFF6FE84
:10068000103000241FB501211020FFF7EBFE42F2CD
:10069000CF00ADF8040042F20F7002900020ADF8D8
:1006A0000C00ADF8060001A90C4800F0CBF836208C
:1006B0008DF8000000208DF8010001208DF8030066
:1006C0006846FFF781FE01221146044800F066F8F3
:1006D0000121024800F045F81FBD00000010004055
:1006E00010B50121134800F048F810B31248006813
:1006F00058B11248006800F5FA60104908600E48C9
:100700000068401E0C4908600AE00C480068A0F52B
:10071000FA600A49086008480068401C06490860F9
:1007200006480168064800F08AF80121014800F0F7
:1007300015F810BD0010004004000020000000204B
:100740000004004021B1028842F08002028004E0EF
:1007500002884FF67F731A4002807047CA430282B4
:10076000704721B1028842F00102028004E0028851
:100770004FF6FE731A400280704730B502460020E3
:1007800000230024158A05EA0103958905EA01047E
:1007900013B10CB1012000E0002030BD1AB18389F3
:1007A0000B43838102E083898B4383817047000080
:1007B00070B5002400220023058C4FF6FE763540EC
:1007C0000584028C8388048B4FF68F752C40B51EF0
:1007D0002C400D882C43751E2A408D892A434D8854
:1007E0002A43104DA84202D00F4DA84213D14FF614
:1007F000F7752A40CD892A434FF6FB752A408D882C
:100800002A434FF6FF652B404FF6FF552B400D8ACC
:100810002B434D8A2B43838004838D684563028478
:1008200070BD000000000140000401400A460021A4
:10083000018B4FF6F77319401143018370474163F1
:100840007047000000220288184B98420ED0184BC7
:1008500098420BD0B0F1804F08D0164B984205D08B
:10086000154B984202D0154B984204D14FF68F7326
:100870001A404B881A43124B984207D0114B9842AA
:1008800004D04FF6FF431A400B891A4302804B688D
:10089000C3620B880385054B984202D0044B9842F3
:1008A00001D18B7A038601238382704700000140C7
:1008B000000401400004004000080040000C00401B
:1008C000001000400014004000BFFEE7FFF7DAFD13
:1008D000FFF7D8FE00BFFEE74FF04070E1EE100AD0
:1008E0007047000004090008000000200800000014
:1008F000C40100080C090008080000206006000080
:0C090000E0010008F4010000010000000C
:0400000508000229C4
:00000001FF
